{
  "_format": "hh-sol-artifact-1",
  "contractName": "Bridge",
  "sourceName": "contracts/Bridge.sol",
  "abi": [
    {
      "inputs": [
        {
          "internalType": "address",
          "name": "config_",
          "type": "address"
        },
        {
          "internalType": "address",
          "name": "etnCall_",
          "type": "address"
        }
      ],
      "stateMutability": "nonpayable",
      "type": "constructor"
    },
    {
      "inputs": [
        {
          "internalType": "address",
          "name": "router",
          "type": "address"
        }
      ],
      "name": "InvalidRouter",
      "type": "error"
    },
    {
      "inputs": [
        {
          "internalType": "address",
          "name": "owner",
          "type": "address"
        }
      ],
      "name": "OwnableInvalidOwner",
      "type": "error"
    },
    {
      "inputs": [
        {
          "internalType": "address",
          "name": "account",
          "type": "address"
        }
      ],
      "name": "OwnableUnauthorizedAccount",
      "type": "error"
    },
    {
      "anonymous": false,
      "inputs": [
        {
          "indexed": true,
          "internalType": "address",
          "name": "previousOwner",
          "type": "address"
        },
        {
          "indexed": true,
          "internalType": "address",
          "name": "newOwner",
          "type": "address"
        }
      ],
      "name": "OwnershipTransferred",
      "type": "event"
    },
    {
      "inputs": [
        {
          "internalType": "uint256",
          "name": "toChainId",
          "type": "uint256"
        },
        {
          "components": [
            {
              "internalType": "address",
              "name": "tokenId",
              "type": "address"
            },
            {
              "internalType": "uint256",
              "name": "amount",
              "type": "uint256"
            }
          ],
          "internalType": "struct Data.Token[]",
          "name": "tokens",
          "type": "tuple[]"
        },
        {
          "internalType": "address",
          "name": "tokenPool",
          "type": "address"
        }
      ],
      "name": "bridgeToken",
      "outputs": [],
      "stateMutability": "payable",
      "type": "function"
    },
    {
      "inputs": [],
      "name": "etnCallPayMaster",
      "outputs": [
        {
          "internalType": "address",
          "name": "",
          "type": "address"
        }
      ],
      "stateMutability": "view",
      "type": "function"
    },
    {
      "inputs": [
        {
          "components": [
            {
              "internalType": "bytes32",
              "name": "messageId",
              "type": "bytes32"
            },
            {
              "internalType": "uint256",
              "name": "fromChainId",
              "type": "uint256"
            },
            {
              "internalType": "address",
              "name": "sender",
              "type": "address"
            },
            {
              "internalType": "bytes",
              "name": "payload",
              "type": "bytes"
            },
            {
              "components": [
                {
                  "internalType": "address",
                  "name": "tokenId",
                  "type": "address"
                },
                {
                  "internalType": "uint256",
                  "name": "amount",
                  "type": "uint256"
                }
              ],
              "internalType": "struct Data.Token[]",
              "name": "tokens",
              "type": "tuple[]"
            },
            {
              "internalType": "enum Data.PayMaster",
              "name": "payMaster",
              "type": "uint8"
            }
          ],
          "internalType": "struct Data.IncomingMessage",
          "name": "message",
          "type": "tuple"
        }
      ],
      "name": "etnCallReceive",
      "outputs": [],
      "stateMutability": "nonpayable",
      "type": "function"
    },
    {
      "inputs": [],
      "name": "getETNCall",
      "outputs": [
        {
          "internalType": "address",
          "name": "",
          "type": "address"
        }
      ],
      "stateMutability": "view",
      "type": "function"
    },
    {
      "inputs": [],
      "name": "owner",
      "outputs": [
        {
          "internalType": "address",
          "name": "",
          "type": "address"
        }
      ],
      "stateMutability": "view",
      "type": "function"
    },
    {
      "inputs": [],
      "name": "renounceOwnership",
      "outputs": [],
      "stateMutability": "nonpayable",
      "type": "function"
    },
    {
      "inputs": [
        {
          "internalType": "uint256",
          "name": "chainId",
          "type": "uint256"
        },
        {
          "internalType": "address",
          "name": "contractId",
          "type": "address"
        }
      ],
      "name": "setContract",
      "outputs": [],
      "stateMutability": "nonpayable",
      "type": "function"
    },
    {
      "inputs": [
        {
          "internalType": "address",
          "name": "newOwner",
          "type": "address"
        }
      ],
      "name": "transferOwnership",
      "outputs": [],
      "stateMutability": "nonpayable",
      "type": "function"
    }
  ],
  "bytecode": "0x60a03461012357601f610d7d38819003918201601f19168301916001600160401b0383118484101761012857808492604094855283398101031261012357610052602061004b8361013e565b920161013e565b90331561010d5760008054336001600160a01b0319821681178355604051949290916001600160a01b0316907f8be0079c531659141344cd1fd0a4f28419497f9722a3daafe3b4186f6b6457e09080a36001600160a01b031680156100f757608052600180546001600160a01b0319166001600160a01b0392909216919091179055610c2a908161015382396080518181816101cc015281816102b3015261068e0152f35b6335fdcccd60e21b600052600060045260246000fd5b631e4fbdf760e01b600052600060045260246000fd5b600080fd5b634e487b7160e01b600052604160045260246000fd5b51906001600160a01b03821682036101235756fe608080604052600436101561001357600080fd5b60003560e01c9081633f2fa79b1461064d57508063606e987a1461012e578063715018a6146105e75780638599fe89146101f057806387530b18146101ac57806389e865a9146101555780638da5cb5b1461012e5763f2fde38b1461007757600080fd5b34610129576020366003190112610129576004356001600160a01b038116809103610129576100a4610bb2565b80156100fa576001600160a01b036000548273ffffffffffffffffffffffffffffffffffffffff19821617600055167f8be0079c531659141344cd1fd0a4f28419497f9722a3daafe3b4186f6b6457e0600080a3005b7f1e4fbdf700000000000000000000000000000000000000000000000000000000600052600060045260246000fd5b600080fd5b346101295760003660031901126101295760206001600160a01b0360005416604051908152f35b34610129576040366003190112610129576024356001600160a01b03811680910361012957600435600052600260205260406000209073ffffffffffffffffffffffffffffffffffffffff19825416179055600080f35b346101295760003660031901126101295760206040516001600160a01b037f0000000000000000000000000000000000000000000000000000000000000000168152f35b60603660031901126101295760043560243567ffffffffffffffff81116101295761021f903690600401610aad565b604435906001600160a01b038216809203610129578260005260026020526001600160a01b0360406000205416926040519233602085015260208452610266604085610a77565b6040519160a0830183811067ffffffffffffffff82111761054757604096959652825260208201938452604082019485526060820183815260808301600181526000966001600160a01b037f000000000000000000000000000000000000000000000000000000000000000016975b8651811015610412576102e88188610b86565b519060206001600160a01b038351169201805192604051937f23b872dd00000000000000000000000000000000000000000000000000000000855233600486015230602486015260448501526020846064816000855af19182156103eb576103a3946020936103f7575b5051908c60006040518097819582947f095ea7b300000000000000000000000000000000000000000000000000000000845260048401602090939291936001600160a01b0360408201951681520152565b03925af19182156103eb576001926103bd575b50016102d5565b6103dd9060203d81116103e4575b6103d58183610a77565b810190610b9a565b508a6103b6565b503d6103cb565b6040513d6000823e3d90fd5b61040d90843d81116103e4576103d58183610a77565b610352565b509087916001600160a01b0388604051977f0c840101000000000000000000000000000000000000000000000000000000008952604060048a0152516044890152511660648701525160a060848701528051908160e488015260005b8281106105d057505060006101048288010152601f8019910116850192602061012461010486019251956043196101048a8303010160a48a015286518094520194019060005b8181106105a5575050505191600283101561058f57600085809492602096829460c4840152602483015203925af19081156103eb5760009161055d575b5033600052600360205260406000208054906801000000000000000082101561054757600182018082558210156105315760005260206000200155600080f35b634e487b7160e01b600052603260045260246000fd5b634e487b7160e01b600052604160045260246000fd5b90506020813d602011610587575b8161057860209383610a77565b810103126101295751816104f1565b3d915061056b565b634e487b7160e01b600052602160045260246000fd5b825180516001600160a01b0316875260209081015181880152604090960195909201916001016104b4565b806020809284010151610104828b0101520161046e565b3461012957600036600319011261012957610600610bb2565b60006001600160a01b03815473ffffffffffffffffffffffffffffffffffffffff1981168355167f8be0079c531659141344cd1fd0a4f28419497f9722a3daafe3b4186f6b6457e08280a3005b346101295760203660031901126101295760043567ffffffffffffffff811161012957806004019060c0600319823603011261012957336001600160a01b037f00000000000000000000000000000000000000000000000000000000000000001603610a2d5760009260c0810181811067ffffffffffffffff821117610a1957604052823581526024820135928360208301526106ec60448401610a99565b6040830152606483013567ffffffffffffffff8111610a155783019436602387011215610a1257600486013567ffffffffffffffff81116109fe576040519661073f601f8301601f191660200189610a77565b81885236602482840101116109fa57818392602460209301838b013788010152606083019586526084840192833567ffffffffffffffff81116109fa5761078e60a49160043691890101610aad565b956080830196875201359060028210156109fa5760a001526001546001600160a01b03169594815b8551518110156108d3576107d4816107ce8787610b40565b90610b76565b356001600160a01b0381168091036108bc57604051907ffb0d2b5000000000000000000000000000000000000000000000000000000000825283600483015260248201526020816044818c5afa9081156108c8578491610881575b509061087a816001936020610848836107ce8c8c610b40565b01356001600160a01b036040519261085f84610a5b565b16825260208201528951906108748383610b86565b52610b86565b50016107b6565b90506020813d82116108c0575b8161089b60209383610a77565b810103126108bc57516001600160a01b03811681036108bc5761087a61082f565b8380fd5b3d915061088e565b6040513d86823e3d90fd5b82868189516020818051810103126109f657602001516001600160a01b0381168091036109f657815b83519081518110156109f257610913818593610b86565b5180516001600160a01b031673eeeeeeeeeeeeeeeeeeeeeeeeeeeeeeeeeeeeeeee810361097257509180806020819495015186828215610969575bf11561095e576001905b016108fc565b6040513d84823e3d90fd5b506108fc61094e565b6020918201516040517fa9059cbb0000000000000000000000000000000000000000000000000000000081526001600160a01b0387166004820152602481019190915293849160449183915af19182156108c8576001926109d4575b50610958565b6109eb9060203d81116103e4576103d58183610a77565b50866109ce565b8380f35b5080fd5b8280fd5b602482634e487b7160e01b81526041600452fd5b80fd5b8580fd5b602485634e487b7160e01b81526041600452fd5b7fd7f73334000000000000000000000000000000000000000000000000000000006000523360045260246000fd5b6040810190811067ffffffffffffffff82111761054757604052565b90601f8019910116810190811067ffffffffffffffff82111761054757604052565b35906001600160a01b038216820361012957565b81601f820112156101295780359067ffffffffffffffff82116105475760405192610ade60208460051b0185610a77565b82845260208085019360061b8301019181831161012957602001925b828410610b08575050505090565b6040848303126101295760206040918251610b2281610a5b565b610b2b87610a99565b81528287013583820152815201930192610afa565b903590601e1981360301821215610129570180359067ffffffffffffffff821161012957602001918160061b3603831361012957565b91908110156105315760061b0190565b80518210156105315760209160051b010190565b90816020910312610129575180151581036101295790565b6001600160a01b03600054163303610bc657565b7f118cdaa7000000000000000000000000000000000000000000000000000000006000523360045260246000fdfea264697066735822122072a42a6d2fd747a62122f5e04ea6ef40fad79569632127d433a2e8e366fe5b6c64736f6c634300081c0033",
  "linkReferences": {},
  "deployedLinkReferences": {}
}