{
  "contracts/Bridge.sol": {
    "Bridge": {
      "abi": [
        {
          "inputs": [
            {
              "internalType": "address",
              "name": "config_",
              "type": "address"
            },
            {
              "internalType": "address",
              "name": "etnCall_",
              "type": "address"
            }
          ],
          "stateMutability": "nonpayable",
          "type": "constructor"
        },
        {
          "inputs": [
            {
              "internalType": "address",
              "name": "router",
              "type": "address"
            }
          ],
          "name": "InvalidRouter",
          "type": "error"
        },
        {
          "inputs": [
            {
              "internalType": "address",
              "name": "owner",
              "type": "address"
            }
          ],
          "name": "OwnableInvalidOwner",
          "type": "error"
        },
        {
          "inputs": [
            {
              "internalType": "address",
              "name": "account",
              "type": "address"
            }
          ],
          "name": "OwnableUnauthorizedAccount",
          "type": "error"
        },
        {
          "anonymous": false,
          "inputs": [
            {
              "indexed": true,
              "internalType": "address",
              "name": "previousOwner",
              "type": "address"
            },
            {
              "indexed": true,
              "internalType": "address",
              "name": "newOwner",
              "type": "address"
            }
          ],
          "name": "OwnershipTransferred",
          "type": "event"
        },
        {
          "inputs": [
            {
              "internalType": "uint256",
              "name": "toChainId",
              "type": "uint256"
            },
            {
              "components": [
                {
                  "internalType": "address",
                  "name": "tokenId",
                  "type": "address"
                },
                {
                  "internalType": "uint256",
                  "name": "amount",
                  "type": "uint256"
                }
              ],
              "internalType": "struct Data.Token[]",
              "name": "tokens",
              "type": "tuple[]"
            },
            {
              "internalType": "address",
              "name": "tokenPool",
              "type": "address"
            }
          ],
          "name": "bridgeToken",
          "outputs": [],
          "stateMutability": "payable",
          "type": "function"
        },
        {
          "inputs": [],
          "name": "etnCallPayMaster",
          "outputs": [
            {
              "internalType": "address",
              "name": "",
              "type": "address"
            }
          ],
          "stateMutability": "view",
          "type": "function"
        },
        {
          "inputs": [
            {
              "components": [
                {
                  "internalType": "bytes32",
                  "name": "messageId",
                  "type": "bytes32"
                },
                {
                  "internalType": "uint256",
                  "name": "fromChainId",
                  "type": "uint256"
                },
                {
                  "internalType": "address",
                  "name": "sender",
                  "type": "address"
                },
                {
                  "internalType": "bytes",
                  "name": "payload",
                  "type": "bytes"
                },
                {
                  "components": [
                    {
                      "internalType": "address",
                      "name": "tokenId",
                      "type": "address"
                    },
                    {
                      "internalType": "uint256",
                      "name": "amount",
                      "type": "uint256"
                    }
                  ],
                  "internalType": "struct Data.Token[]",
                  "name": "tokens",
                  "type": "tuple[]"
                },
                {
                  "internalType": "enum Data.PayMaster",
                  "name": "payMaster",
                  "type": "uint8"
                }
              ],
              "internalType": "struct Data.IncomingMessage",
              "name": "message",
              "type": "tuple"
            }
          ],
          "name": "etnCallReceive",
          "outputs": [],
          "stateMutability": "nonpayable",
          "type": "function"
        },
        {
          "inputs": [],
          "name": "getETNCall",
          "outputs": [
            {
              "internalType": "address",
              "name": "",
              "type": "address"
            }
          ],
          "stateMutability": "view",
          "type": "function"
        },
        {
          "inputs": [],
          "name": "owner",
          "outputs": [
            {
              "internalType": "address",
              "name": "",
              "type": "address"
            }
          ],
          "stateMutability": "view",
          "type": "function"
        },
        {
          "inputs": [],
          "name": "renounceOwnership",
          "outputs": [],
          "stateMutability": "nonpayable",
          "type": "function"
        },
        {
          "inputs": [
            {
              "internalType": "uint256",
              "name": "chainId",
              "type": "uint256"
            },
            {
              "internalType": "address",
              "name": "contractId",
              "type": "address"
            }
          ],
          "name": "setContract",
          "outputs": [],
          "stateMutability": "nonpayable",
          "type": "function"
        },
        {
          "inputs": [
            {
              "internalType": "address",
              "name": "newOwner",
              "type": "address"
            }
          ],
          "name": "transferOwnership",
          "outputs": [],
          "stateMutability": "nonpayable",
          "type": "function"
        }
      ],
      "evm": {
        "bytecode": {
          "linkReferences": {},
          "object": "60a03461012357601f610d7d38819003918201601f19168301916001600160401b0383118484101761012857808492604094855283398101031261012357610052602061004b8361013e565b920161013e565b90331561010d5760008054336001600160a01b0319821681178355604051949290916001600160a01b0316907f8be0079c531659141344cd1fd0a4f28419497f9722a3daafe3b4186f6b6457e09080a36001600160a01b031680156100f757608052600180546001600160a01b0319166001600160a01b0392909216919091179055610c2a908161015382396080518181816101cc015281816102b3015261068e0152f35b6335fdcccd60e21b600052600060045260246000fd5b631e4fbdf760e01b600052600060045260246000fd5b600080fd5b634e487b7160e01b600052604160045260246000fd5b51906001600160a01b03821682036101235756fe608080604052600436101561001357600080fd5b60003560e01c9081633f2fa79b1461064d57508063606e987a1461012e578063715018a6146105e75780638599fe89146101f057806387530b18146101ac57806389e865a9146101555780638da5cb5b1461012e5763f2fde38b1461007757600080fd5b34610129576020366003190112610129576004356001600160a01b038116809103610129576100a4610bb2565b80156100fa576001600160a01b036000548273ffffffffffffffffffffffffffffffffffffffff19821617600055167f8be0079c531659141344cd1fd0a4f28419497f9722a3daafe3b4186f6b6457e0600080a3005b7f1e4fbdf700000000000000000000000000000000000000000000000000000000600052600060045260246000fd5b600080fd5b346101295760003660031901126101295760206001600160a01b0360005416604051908152f35b34610129576040366003190112610129576024356001600160a01b03811680910361012957600435600052600260205260406000209073ffffffffffffffffffffffffffffffffffffffff19825416179055600080f35b346101295760003660031901126101295760206040516001600160a01b037f0000000000000000000000000000000000000000000000000000000000000000168152f35b60603660031901126101295760043560243567ffffffffffffffff81116101295761021f903690600401610aad565b604435906001600160a01b038216809203610129578260005260026020526001600160a01b0360406000205416926040519233602085015260208452610266604085610a77565b6040519160a0830183811067ffffffffffffffff82111761054757604096959652825260208201938452604082019485526060820183815260808301600181526000966001600160a01b037f000000000000000000000000000000000000000000000000000000000000000016975b8651811015610412576102e88188610b86565b519060206001600160a01b038351169201805192604051937f23b872dd00000000000000000000000000000000000000000000000000000000855233600486015230602486015260448501526020846064816000855af19182156103eb576103a3946020936103f7575b5051908c60006040518097819582947f095ea7b300000000000000000000000000000000000000000000000000000000845260048401602090939291936001600160a01b0360408201951681520152565b03925af19182156103eb576001926103bd575b50016102d5565b6103dd9060203d81116103e4575b6103d58183610a77565b810190610b9a565b508a6103b6565b503d6103cb565b6040513d6000823e3d90fd5b61040d90843d81116103e4576103d58183610a77565b610352565b509087916001600160a01b0388604051977f0c840101000000000000000000000000000000000000000000000000000000008952604060048a0152516044890152511660648701525160a060848701528051908160e488015260005b8281106105d057505060006101048288010152601f8019910116850192602061012461010486019251956043196101048a8303010160a48a015286518094520194019060005b8181106105a5575050505191600283101561058f57600085809492602096829460c4840152602483015203925af19081156103eb5760009161055d575b5033600052600360205260406000208054906801000000000000000082101561054757600182018082558210156105315760005260206000200155600080f35b634e487b7160e01b600052603260045260246000fd5b634e487b7160e01b600052604160045260246000fd5b90506020813d602011610587575b8161057860209383610a77565b810103126101295751816104f1565b3d915061056b565b634e487b7160e01b600052602160045260246000fd5b825180516001600160a01b0316875260209081015181880152604090960195909201916001016104b4565b806020809284010151610104828b0101520161046e565b3461012957600036600319011261012957610600610bb2565b60006001600160a01b03815473ffffffffffffffffffffffffffffffffffffffff1981168355167f8be0079c531659141344cd1fd0a4f28419497f9722a3daafe3b4186f6b6457e08280a3005b346101295760203660031901126101295760043567ffffffffffffffff811161012957806004019060c0600319823603011261012957336001600160a01b037f00000000000000000000000000000000000000000000000000000000000000001603610a2d5760009260c0810181811067ffffffffffffffff821117610a1957604052823581526024820135928360208301526106ec60448401610a99565b6040830152606483013567ffffffffffffffff8111610a155783019436602387011215610a1257600486013567ffffffffffffffff81116109fe576040519661073f601f8301601f191660200189610a77565b81885236602482840101116109fa57818392602460209301838b013788010152606083019586526084840192833567ffffffffffffffff81116109fa5761078e60a49160043691890101610aad565b956080830196875201359060028210156109fa5760a001526001546001600160a01b03169594815b8551518110156108d3576107d4816107ce8787610b40565b90610b76565b356001600160a01b0381168091036108bc57604051907ffb0d2b5000000000000000000000000000000000000000000000000000000000825283600483015260248201526020816044818c5afa9081156108c8578491610881575b509061087a816001936020610848836107ce8c8c610b40565b01356001600160a01b036040519261085f84610a5b565b16825260208201528951906108748383610b86565b52610b86565b50016107b6565b90506020813d82116108c0575b8161089b60209383610a77565b810103126108bc57516001600160a01b03811681036108bc5761087a61082f565b8380fd5b3d915061088e565b6040513d86823e3d90fd5b82868189516020818051810103126109f657602001516001600160a01b0381168091036109f657815b83519081518110156109f257610913818593610b86565b5180516001600160a01b031673eeeeeeeeeeeeeeeeeeeeeeeeeeeeeeeeeeeeeeee810361097257509180806020819495015186828215610969575bf11561095e576001905b016108fc565b6040513d84823e3d90fd5b506108fc61094e565b6020918201516040517fa9059cbb0000000000000000000000000000000000000000000000000000000081526001600160a01b0387166004820152602481019190915293849160449183915af19182156108c8576001926109d4575b50610958565b6109eb9060203d81116103e4576103d58183610a77565b50866109ce565b8380f35b5080fd5b8280fd5b602482634e487b7160e01b81526041600452fd5b80fd5b8580fd5b602485634e487b7160e01b81526041600452fd5b7fd7f73334000000000000000000000000000000000000000000000000000000006000523360045260246000fd5b6040810190811067ffffffffffffffff82111761054757604052565b90601f8019910116810190811067ffffffffffffffff82111761054757604052565b35906001600160a01b038216820361012957565b81601f820112156101295780359067ffffffffffffffff82116105475760405192610ade60208460051b0185610a77565b82845260208085019360061b8301019181831161012957602001925b828410610b08575050505090565b6040848303126101295760206040918251610b2281610a5b565b610b2b87610a99565b81528287013583820152815201930192610afa565b903590601e1981360301821215610129570180359067ffffffffffffffff821161012957602001918160061b3603831361012957565b91908110156105315760061b0190565b80518210156105315760209160051b010190565b90816020910312610129575180151581036101295790565b6001600160a01b03600054163303610bc657565b7f118cdaa7000000000000000000000000000000000000000000000000000000006000523360045260246000fdfea264697066735822122072a42a6d2fd747a62122f5e04ea6ef40fad79569632127d433a2e8e366fe5b6c64736f6c634300081c0033",
          "opcodes": "PUSH1 0xA0 CALLVALUE PUSH2 0x123 JUMPI PUSH1 0x1F PUSH2 0xD7D CODESIZE DUP2 SWAP1 SUB SWAP2 DUP3 ADD PUSH1 0x1F NOT AND DUP4 ADD SWAP2 PUSH1 0x1 PUSH1 0x1 PUSH1 0x40 SHL SUB DUP4 GT DUP5 DUP5 LT OR PUSH2 0x128 JUMPI DUP1 DUP5 SWAP3 PUSH1 0x40 SWAP5 DUP6 MSTORE DUP4 CODECOPY DUP2 ADD SUB SLT PUSH2 0x123 JUMPI PUSH2 0x52 PUSH1 0x20 PUSH2 0x4B DUP4 PUSH2 0x13E JUMP JUMPDEST SWAP3 ADD PUSH2 0x13E JUMP JUMPDEST SWAP1 CALLER ISZERO PUSH2 0x10D JUMPI PUSH1 0x0 DUP1 SLOAD CALLER PUSH1 0x1 PUSH1 0x1 PUSH1 0xA0 SHL SUB NOT DUP3 AND DUP2 OR DUP4 SSTORE PUSH1 0x40 MLOAD SWAP5 SWAP3 SWAP1 SWAP2 PUSH1 0x1 PUSH1 0x1 PUSH1 0xA0 SHL SUB AND SWAP1 PUSH32 0x8BE0079C531659141344CD1FD0A4F28419497F9722A3DAAFE3B4186F6B6457E0 SWAP1 DUP1 LOG3 PUSH1 0x1 PUSH1 0x1 PUSH1 0xA0 SHL SUB AND DUP1 ISZERO PUSH2 0xF7 JUMPI PUSH1 0x80 MSTORE PUSH1 0x1 DUP1 SLOAD PUSH1 0x1 PUSH1 0x1 PUSH1 0xA0 SHL SUB NOT AND PUSH1 0x1 PUSH1 0x1 PUSH1 0xA0 SHL SUB SWAP3 SWAP1 SWAP3 AND SWAP2 SWAP1 SWAP2 OR SWAP1 SSTORE PUSH2 0xC2A SWAP1 DUP2 PUSH2 0x153 DUP3 CODECOPY PUSH1 0x80 MLOAD DUP2 DUP2 DUP2 PUSH2 0x1CC ADD MSTORE DUP2 DUP2 PUSH2 0x2B3 ADD MSTORE PUSH2 0x68E ADD MSTORE RETURN JUMPDEST PUSH4 0x35FDCCCD PUSH1 0xE2 SHL PUSH1 0x0 MSTORE PUSH1 0x0 PUSH1 0x4 MSTORE PUSH1 0x24 PUSH1 0x0 REVERT JUMPDEST PUSH4 0x1E4FBDF7 PUSH1 0xE0 SHL PUSH1 0x0 MSTORE PUSH1 0x0 PUSH1 0x4 MSTORE PUSH1 0x24 PUSH1 0x0 REVERT JUMPDEST PUSH1 0x0 DUP1 REVERT JUMPDEST PUSH4 0x4E487B71 PUSH1 0xE0 SHL PUSH1 0x0 MSTORE PUSH1 0x41 PUSH1 0x4 MSTORE PUSH1 0x24 PUSH1 0x0 REVERT JUMPDEST MLOAD SWAP1 PUSH1 0x1 PUSH1 0x1 PUSH1 0xA0 SHL SUB DUP3 AND DUP3 SUB PUSH2 0x123 JUMPI JUMP INVALID PUSH1 0x80 DUP1 PUSH1 0x40 MSTORE PUSH1 0x4 CALLDATASIZE LT ISZERO PUSH2 0x13 JUMPI PUSH1 0x0 DUP1 REVERT JUMPDEST PUSH1 0x0 CALLDATALOAD PUSH1 0xE0 SHR SWAP1 DUP2 PUSH4 0x3F2FA79B EQ PUSH2 0x64D JUMPI POP DUP1 PUSH4 0x606E987A EQ PUSH2 0x12E JUMPI DUP1 PUSH4 0x715018A6 EQ PUSH2 0x5E7 JUMPI DUP1 PUSH4 0x8599FE89 EQ PUSH2 0x1F0 JUMPI DUP1 PUSH4 0x87530B18 EQ PUSH2 0x1AC JUMPI DUP1 PUSH4 0x89E865A9 EQ PUSH2 0x155 JUMPI DUP1 PUSH4 0x8DA5CB5B EQ PUSH2 0x12E JUMPI PUSH4 0xF2FDE38B EQ PUSH2 0x77 JUMPI PUSH1 0x0 DUP1 REVERT JUMPDEST CALLVALUE PUSH2 0x129 JUMPI PUSH1 0x20 CALLDATASIZE PUSH1 0x3 NOT ADD SLT PUSH2 0x129 JUMPI PUSH1 0x4 CALLDATALOAD PUSH1 0x1 PUSH1 0x1 PUSH1 0xA0 SHL SUB DUP2 AND DUP1 SWAP2 SUB PUSH2 0x129 JUMPI PUSH2 0xA4 PUSH2 0xBB2 JUMP JUMPDEST DUP1 ISZERO PUSH2 0xFA JUMPI PUSH1 0x1 PUSH1 0x1 PUSH1 0xA0 SHL SUB PUSH1 0x0 SLOAD DUP3 PUSH20 0xFFFFFFFFFFFFFFFFFFFFFFFFFFFFFFFFFFFFFFFF NOT DUP3 AND OR PUSH1 0x0 SSTORE AND PUSH32 0x8BE0079C531659141344CD1FD0A4F28419497F9722A3DAAFE3B4186F6B6457E0 PUSH1 0x0 DUP1 LOG3 STOP JUMPDEST PUSH32 0x1E4FBDF700000000000000000000000000000000000000000000000000000000 PUSH1 0x0 MSTORE PUSH1 0x0 PUSH1 0x4 MSTORE PUSH1 0x24 PUSH1 0x0 REVERT JUMPDEST PUSH1 0x0 DUP1 REVERT JUMPDEST CALLVALUE PUSH2 0x129 JUMPI PUSH1 0x0 CALLDATASIZE PUSH1 0x3 NOT ADD SLT PUSH2 0x129 JUMPI PUSH1 0x20 PUSH1 0x1 PUSH1 0x1 PUSH1 0xA0 SHL SUB PUSH1 0x0 SLOAD AND PUSH1 0x40 MLOAD SWAP1 DUP2 MSTORE RETURN JUMPDEST CALLVALUE PUSH2 0x129 JUMPI PUSH1 0x40 CALLDATASIZE PUSH1 0x3 NOT ADD SLT PUSH2 0x129 JUMPI PUSH1 0x24 CALLDATALOAD PUSH1 0x1 PUSH1 0x1 PUSH1 0xA0 SHL SUB DUP2 AND DUP1 SWAP2 SUB PUSH2 0x129 JUMPI PUSH1 0x4 CALLDATALOAD PUSH1 0x0 MSTORE PUSH1 0x2 PUSH1 0x20 MSTORE PUSH1 0x40 PUSH1 0x0 KECCAK256 SWAP1 PUSH20 0xFFFFFFFFFFFFFFFFFFFFFFFFFFFFFFFFFFFFFFFF NOT DUP3 SLOAD AND OR SWAP1 SSTORE PUSH1 0x0 DUP1 RETURN JUMPDEST CALLVALUE PUSH2 0x129 JUMPI PUSH1 0x0 CALLDATASIZE PUSH1 0x3 NOT ADD SLT PUSH2 0x129 JUMPI PUSH1 0x20 PUSH1 0x40 MLOAD PUSH1 0x1 PUSH1 0x1 PUSH1 0xA0 SHL SUB PUSH32 0x0 AND DUP2 MSTORE RETURN JUMPDEST PUSH1 0x60 CALLDATASIZE PUSH1 0x3 NOT ADD SLT PUSH2 0x129 JUMPI PUSH1 0x4 CALLDATALOAD PUSH1 0x24 CALLDATALOAD PUSH8 0xFFFFFFFFFFFFFFFF DUP2 GT PUSH2 0x129 JUMPI PUSH2 0x21F SWAP1 CALLDATASIZE SWAP1 PUSH1 0x4 ADD PUSH2 0xAAD JUMP JUMPDEST PUSH1 0x44 CALLDATALOAD SWAP1 PUSH1 0x1 PUSH1 0x1 PUSH1 0xA0 SHL SUB DUP3 AND DUP1 SWAP3 SUB PUSH2 0x129 JUMPI DUP3 PUSH1 0x0 MSTORE PUSH1 0x2 PUSH1 0x20 MSTORE PUSH1 0x1 PUSH1 0x1 PUSH1 0xA0 SHL SUB PUSH1 0x40 PUSH1 0x0 KECCAK256 SLOAD AND SWAP3 PUSH1 0x40 MLOAD SWAP3 CALLER PUSH1 0x20 DUP6 ADD MSTORE PUSH1 0x20 DUP5 MSTORE PUSH2 0x266 PUSH1 0x40 DUP6 PUSH2 0xA77 JUMP JUMPDEST PUSH1 0x40 MLOAD SWAP2 PUSH1 0xA0 DUP4 ADD DUP4 DUP2 LT PUSH8 0xFFFFFFFFFFFFFFFF DUP3 GT OR PUSH2 0x547 JUMPI PUSH1 0x40 SWAP7 SWAP6 SWAP7 MSTORE DUP3 MSTORE PUSH1 0x20 DUP3 ADD SWAP4 DUP5 MSTORE PUSH1 0x40 DUP3 ADD SWAP5 DUP6 MSTORE PUSH1 0x60 DUP3 ADD DUP4 DUP2 MSTORE PUSH1 0x80 DUP4 ADD PUSH1 0x1 DUP2 MSTORE PUSH1 0x0 SWAP7 PUSH1 0x1 PUSH1 0x1 PUSH1 0xA0 SHL SUB PUSH32 0x0 AND SWAP8 JUMPDEST DUP7 MLOAD DUP2 LT ISZERO PUSH2 0x412 JUMPI PUSH2 0x2E8 DUP2 DUP9 PUSH2 0xB86 JUMP JUMPDEST MLOAD SWAP1 PUSH1 0x20 PUSH1 0x1 PUSH1 0x1 PUSH1 0xA0 SHL SUB DUP4 MLOAD AND SWAP3 ADD DUP1 MLOAD SWAP3 PUSH1 0x40 MLOAD SWAP4 PUSH32 0x23B872DD00000000000000000000000000000000000000000000000000000000 DUP6 MSTORE CALLER PUSH1 0x4 DUP7 ADD MSTORE ADDRESS PUSH1 0x24 DUP7 ADD MSTORE PUSH1 0x44 DUP6 ADD MSTORE PUSH1 0x20 DUP5 PUSH1 0x64 DUP2 PUSH1 0x0 DUP6 GAS CALL SWAP2 DUP3 ISZERO PUSH2 0x3EB JUMPI PUSH2 0x3A3 SWAP5 PUSH1 0x20 SWAP4 PUSH2 0x3F7 JUMPI JUMPDEST POP MLOAD SWAP1 DUP13 PUSH1 0x0 PUSH1 0x40 MLOAD DUP1 SWAP8 DUP2 SWAP6 DUP3 SWAP5 PUSH32 0x95EA7B300000000000000000000000000000000000000000000000000000000 DUP5 MSTORE PUSH1 0x4 DUP5 ADD PUSH1 0x20 SWAP1 SWAP4 SWAP3 SWAP2 SWAP4 PUSH1 0x1 PUSH1 0x1 PUSH1 0xA0 SHL SUB PUSH1 0x40 DUP3 ADD SWAP6 AND DUP2 MSTORE ADD MSTORE JUMP JUMPDEST SUB SWAP3 GAS CALL SWAP2 DUP3 ISZERO PUSH2 0x3EB JUMPI PUSH1 0x1 SWAP3 PUSH2 0x3BD JUMPI JUMPDEST POP ADD PUSH2 0x2D5 JUMP JUMPDEST PUSH2 0x3DD SWAP1 PUSH1 0x20 RETURNDATASIZE DUP2 GT PUSH2 0x3E4 JUMPI JUMPDEST PUSH2 0x3D5 DUP2 DUP4 PUSH2 0xA77 JUMP JUMPDEST DUP2 ADD SWAP1 PUSH2 0xB9A JUMP JUMPDEST POP DUP11 PUSH2 0x3B6 JUMP JUMPDEST POP RETURNDATASIZE PUSH2 0x3CB JUMP JUMPDEST PUSH1 0x40 MLOAD RETURNDATASIZE PUSH1 0x0 DUP3 RETURNDATACOPY RETURNDATASIZE SWAP1 REVERT JUMPDEST PUSH2 0x40D SWAP1 DUP5 RETURNDATASIZE DUP2 GT PUSH2 0x3E4 JUMPI PUSH2 0x3D5 DUP2 DUP4 PUSH2 0xA77 JUMP JUMPDEST PUSH2 0x352 JUMP JUMPDEST POP SWAP1 DUP8 SWAP2 PUSH1 0x1 PUSH1 0x1 PUSH1 0xA0 SHL SUB DUP9 PUSH1 0x40 MLOAD SWAP8 PUSH32 0xC84010100000000000000000000000000000000000000000000000000000000 DUP10 MSTORE PUSH1 0x40 PUSH1 0x4 DUP11 ADD MSTORE MLOAD PUSH1 0x44 DUP10 ADD MSTORE MLOAD AND PUSH1 0x64 DUP8 ADD MSTORE MLOAD PUSH1 0xA0 PUSH1 0x84 DUP8 ADD MSTORE DUP1 MLOAD SWAP1 DUP2 PUSH1 0xE4 DUP9 ADD MSTORE PUSH1 0x0 JUMPDEST DUP3 DUP2 LT PUSH2 0x5D0 JUMPI POP POP PUSH1 0x0 PUSH2 0x104 DUP3 DUP9 ADD ADD MSTORE PUSH1 0x1F DUP1 NOT SWAP2 ADD AND DUP6 ADD SWAP3 PUSH1 0x20 PUSH2 0x124 PUSH2 0x104 DUP7 ADD SWAP3 MLOAD SWAP6 PUSH1 0x43 NOT PUSH2 0x104 DUP11 DUP4 SUB ADD ADD PUSH1 0xA4 DUP11 ADD MSTORE DUP7 MLOAD DUP1 SWAP5 MSTORE ADD SWAP5 ADD SWAP1 PUSH1 0x0 JUMPDEST DUP2 DUP2 LT PUSH2 0x5A5 JUMPI POP POP POP MLOAD SWAP2 PUSH1 0x2 DUP4 LT ISZERO PUSH2 0x58F JUMPI PUSH1 0x0 DUP6 DUP1 SWAP5 SWAP3 PUSH1 0x20 SWAP7 DUP3 SWAP5 PUSH1 0xC4 DUP5 ADD MSTORE PUSH1 0x24 DUP4 ADD MSTORE SUB SWAP3 GAS CALL SWAP1 DUP2 ISZERO PUSH2 0x3EB JUMPI PUSH1 0x0 SWAP2 PUSH2 0x55D JUMPI JUMPDEST POP CALLER PUSH1 0x0 MSTORE PUSH1 0x3 PUSH1 0x20 MSTORE PUSH1 0x40 PUSH1 0x0 KECCAK256 DUP1 SLOAD SWAP1 PUSH9 0x10000000000000000 DUP3 LT ISZERO PUSH2 0x547 JUMPI PUSH1 0x1 DUP3 ADD DUP1 DUP3 SSTORE DUP3 LT ISZERO PUSH2 0x531 JUMPI PUSH1 0x0 MSTORE PUSH1 0x20 PUSH1 0x0 KECCAK256 ADD SSTORE PUSH1 0x0 DUP1 RETURN JUMPDEST PUSH4 0x4E487B71 PUSH1 0xE0 SHL PUSH1 0x0 MSTORE PUSH1 0x32 PUSH1 0x4 MSTORE PUSH1 0x24 PUSH1 0x0 REVERT JUMPDEST PUSH4 0x4E487B71 PUSH1 0xE0 SHL PUSH1 0x0 MSTORE PUSH1 0x41 PUSH1 0x4 MSTORE PUSH1 0x24 PUSH1 0x0 REVERT JUMPDEST SWAP1 POP PUSH1 0x20 DUP2 RETURNDATASIZE PUSH1 0x20 GT PUSH2 0x587 JUMPI JUMPDEST DUP2 PUSH2 0x578 PUSH1 0x20 SWAP4 DUP4 PUSH2 0xA77 JUMP JUMPDEST DUP2 ADD SUB SLT PUSH2 0x129 JUMPI MLOAD DUP2 PUSH2 0x4F1 JUMP JUMPDEST RETURNDATASIZE SWAP2 POP PUSH2 0x56B JUMP JUMPDEST PUSH4 0x4E487B71 PUSH1 0xE0 SHL PUSH1 0x0 MSTORE PUSH1 0x21 PUSH1 0x4 MSTORE PUSH1 0x24 PUSH1 0x0 REVERT JUMPDEST DUP3 MLOAD DUP1 MLOAD PUSH1 0x1 PUSH1 0x1 PUSH1 0xA0 SHL SUB AND DUP8 MSTORE PUSH1 0x20 SWAP1 DUP2 ADD MLOAD DUP2 DUP9 ADD MSTORE PUSH1 0x40 SWAP1 SWAP7 ADD SWAP6 SWAP1 SWAP3 ADD SWAP2 PUSH1 0x1 ADD PUSH2 0x4B4 JUMP JUMPDEST DUP1 PUSH1 0x20 DUP1 SWAP3 DUP5 ADD ADD MLOAD PUSH2 0x104 DUP3 DUP12 ADD ADD MSTORE ADD PUSH2 0x46E JUMP JUMPDEST CALLVALUE PUSH2 0x129 JUMPI PUSH1 0x0 CALLDATASIZE PUSH1 0x3 NOT ADD SLT PUSH2 0x129 JUMPI PUSH2 0x600 PUSH2 0xBB2 JUMP JUMPDEST PUSH1 0x0 PUSH1 0x1 PUSH1 0x1 PUSH1 0xA0 SHL SUB DUP2 SLOAD PUSH20 0xFFFFFFFFFFFFFFFFFFFFFFFFFFFFFFFFFFFFFFFF NOT DUP2 AND DUP4 SSTORE AND PUSH32 0x8BE0079C531659141344CD1FD0A4F28419497F9722A3DAAFE3B4186F6B6457E0 DUP3 DUP1 LOG3 STOP JUMPDEST CALLVALUE PUSH2 0x129 JUMPI PUSH1 0x20 CALLDATASIZE PUSH1 0x3 NOT ADD SLT PUSH2 0x129 JUMPI PUSH1 0x4 CALLDATALOAD PUSH8 0xFFFFFFFFFFFFFFFF DUP2 GT PUSH2 0x129 JUMPI DUP1 PUSH1 0x4 ADD SWAP1 PUSH1 0xC0 PUSH1 0x3 NOT DUP3 CALLDATASIZE SUB ADD SLT PUSH2 0x129 JUMPI CALLER PUSH1 0x1 PUSH1 0x1 PUSH1 0xA0 SHL SUB PUSH32 0x0 AND SUB PUSH2 0xA2D JUMPI PUSH1 0x0 SWAP3 PUSH1 0xC0 DUP2 ADD DUP2 DUP2 LT PUSH8 0xFFFFFFFFFFFFFFFF DUP3 GT OR PUSH2 0xA19 JUMPI PUSH1 0x40 MSTORE DUP3 CALLDATALOAD DUP2 MSTORE PUSH1 0x24 DUP3 ADD CALLDATALOAD SWAP3 DUP4 PUSH1 0x20 DUP4 ADD MSTORE PUSH2 0x6EC PUSH1 0x44 DUP5 ADD PUSH2 0xA99 JUMP JUMPDEST PUSH1 0x40 DUP4 ADD MSTORE PUSH1 0x64 DUP4 ADD CALLDATALOAD PUSH8 0xFFFFFFFFFFFFFFFF DUP2 GT PUSH2 0xA15 JUMPI DUP4 ADD SWAP5 CALLDATASIZE PUSH1 0x23 DUP8 ADD SLT ISZERO PUSH2 0xA12 JUMPI PUSH1 0x4 DUP7 ADD CALLDATALOAD PUSH8 0xFFFFFFFFFFFFFFFF DUP2 GT PUSH2 0x9FE JUMPI PUSH1 0x40 MLOAD SWAP7 PUSH2 0x73F PUSH1 0x1F DUP4 ADD PUSH1 0x1F NOT AND PUSH1 0x20 ADD DUP10 PUSH2 0xA77 JUMP JUMPDEST DUP2 DUP9 MSTORE CALLDATASIZE PUSH1 0x24 DUP3 DUP5 ADD ADD GT PUSH2 0x9FA JUMPI DUP2 DUP4 SWAP3 PUSH1 0x24 PUSH1 0x20 SWAP4 ADD DUP4 DUP12 ADD CALLDATACOPY DUP9 ADD ADD MSTORE PUSH1 0x60 DUP4 ADD SWAP6 DUP7 MSTORE PUSH1 0x84 DUP5 ADD SWAP3 DUP4 CALLDATALOAD PUSH8 0xFFFFFFFFFFFFFFFF DUP2 GT PUSH2 0x9FA JUMPI PUSH2 0x78E PUSH1 0xA4 SWAP2 PUSH1 0x4 CALLDATASIZE SWAP2 DUP10 ADD ADD PUSH2 0xAAD JUMP JUMPDEST SWAP6 PUSH1 0x80 DUP4 ADD SWAP7 DUP8 MSTORE ADD CALLDATALOAD SWAP1 PUSH1 0x2 DUP3 LT ISZERO PUSH2 0x9FA JUMPI PUSH1 0xA0 ADD MSTORE PUSH1 0x1 SLOAD PUSH1 0x1 PUSH1 0x1 PUSH1 0xA0 SHL SUB AND SWAP6 SWAP5 DUP2 JUMPDEST DUP6 MLOAD MLOAD DUP2 LT ISZERO PUSH2 0x8D3 JUMPI PUSH2 0x7D4 DUP2 PUSH2 0x7CE DUP8 DUP8 PUSH2 0xB40 JUMP JUMPDEST SWAP1 PUSH2 0xB76 JUMP JUMPDEST CALLDATALOAD PUSH1 0x1 PUSH1 0x1 PUSH1 0xA0 SHL SUB DUP2 AND DUP1 SWAP2 SUB PUSH2 0x8BC JUMPI PUSH1 0x40 MLOAD SWAP1 PUSH32 0xFB0D2B5000000000000000000000000000000000000000000000000000000000 DUP3 MSTORE DUP4 PUSH1 0x4 DUP4 ADD MSTORE PUSH1 0x24 DUP3 ADD MSTORE PUSH1 0x20 DUP2 PUSH1 0x44 DUP2 DUP13 GAS STATICCALL SWAP1 DUP2 ISZERO PUSH2 0x8C8 JUMPI DUP5 SWAP2 PUSH2 0x881 JUMPI JUMPDEST POP SWAP1 PUSH2 0x87A DUP2 PUSH1 0x1 SWAP4 PUSH1 0x20 PUSH2 0x848 DUP4 PUSH2 0x7CE DUP13 DUP13 PUSH2 0xB40 JUMP JUMPDEST ADD CALLDATALOAD PUSH1 0x1 PUSH1 0x1 PUSH1 0xA0 SHL SUB PUSH1 0x40 MLOAD SWAP3 PUSH2 0x85F DUP5 PUSH2 0xA5B JUMP JUMPDEST AND DUP3 MSTORE PUSH1 0x20 DUP3 ADD MSTORE DUP10 MLOAD SWAP1 PUSH2 0x874 DUP4 DUP4 PUSH2 0xB86 JUMP JUMPDEST MSTORE PUSH2 0xB86 JUMP JUMPDEST POP ADD PUSH2 0x7B6 JUMP JUMPDEST SWAP1 POP PUSH1 0x20 DUP2 RETURNDATASIZE DUP3 GT PUSH2 0x8C0 JUMPI JUMPDEST DUP2 PUSH2 0x89B PUSH1 0x20 SWAP4 DUP4 PUSH2 0xA77 JUMP JUMPDEST DUP2 ADD SUB SLT PUSH2 0x8BC JUMPI MLOAD PUSH1 0x1 PUSH1 0x1 PUSH1 0xA0 SHL SUB DUP2 AND DUP2 SUB PUSH2 0x8BC JUMPI PUSH2 0x87A PUSH2 0x82F JUMP JUMPDEST DUP4 DUP1 REVERT JUMPDEST RETURNDATASIZE SWAP2 POP PUSH2 0x88E JUMP JUMPDEST PUSH1 0x40 MLOAD RETURNDATASIZE DUP7 DUP3 RETURNDATACOPY RETURNDATASIZE SWAP1 REVERT JUMPDEST DUP3 DUP7 DUP2 DUP10 MLOAD PUSH1 0x20 DUP2 DUP1 MLOAD DUP2 ADD SUB SLT PUSH2 0x9F6 JUMPI PUSH1 0x20 ADD MLOAD PUSH1 0x1 PUSH1 0x1 PUSH1 0xA0 SHL SUB DUP2 AND DUP1 SWAP2 SUB PUSH2 0x9F6 JUMPI DUP2 JUMPDEST DUP4 MLOAD SWAP1 DUP2 MLOAD DUP2 LT ISZERO PUSH2 0x9F2 JUMPI PUSH2 0x913 DUP2 DUP6 SWAP4 PUSH2 0xB86 JUMP JUMPDEST MLOAD DUP1 MLOAD PUSH1 0x1 PUSH1 0x1 PUSH1 0xA0 SHL SUB AND PUSH20 0xEEEEEEEEEEEEEEEEEEEEEEEEEEEEEEEEEEEEEEEE DUP2 SUB PUSH2 0x972 JUMPI POP SWAP2 DUP1 DUP1 PUSH1 0x20 DUP2 SWAP5 SWAP6 ADD MLOAD DUP7 DUP3 DUP3 ISZERO PUSH2 0x969 JUMPI JUMPDEST CALL ISZERO PUSH2 0x95E JUMPI PUSH1 0x1 SWAP1 JUMPDEST ADD PUSH2 0x8FC JUMP JUMPDEST PUSH1 0x40 MLOAD RETURNDATASIZE DUP5 DUP3 RETURNDATACOPY RETURNDATASIZE SWAP1 REVERT JUMPDEST POP PUSH2 0x8FC PUSH2 0x94E JUMP JUMPDEST PUSH1 0x20 SWAP2 DUP3 ADD MLOAD PUSH1 0x40 MLOAD PUSH32 0xA9059CBB00000000000000000000000000000000000000000000000000000000 DUP2 MSTORE PUSH1 0x1 PUSH1 0x1 PUSH1 0xA0 SHL SUB DUP8 AND PUSH1 0x4 DUP3 ADD MSTORE PUSH1 0x24 DUP2 ADD SWAP2 SWAP1 SWAP2 MSTORE SWAP4 DUP5 SWAP2 PUSH1 0x44 SWAP2 DUP4 SWAP2 GAS CALL SWAP2 DUP3 ISZERO PUSH2 0x8C8 JUMPI PUSH1 0x1 SWAP3 PUSH2 0x9D4 JUMPI JUMPDEST POP PUSH2 0x958 JUMP JUMPDEST PUSH2 0x9EB SWAP1 PUSH1 0x20 RETURNDATASIZE DUP2 GT PUSH2 0x3E4 JUMPI PUSH2 0x3D5 DUP2 DUP4 PUSH2 0xA77 JUMP JUMPDEST POP DUP7 PUSH2 0x9CE JUMP JUMPDEST DUP4 DUP1 RETURN JUMPDEST POP DUP1 REVERT JUMPDEST DUP3 DUP1 REVERT JUMPDEST PUSH1 0x24 DUP3 PUSH4 0x4E487B71 PUSH1 0xE0 SHL DUP2 MSTORE PUSH1 0x41 PUSH1 0x4 MSTORE REVERT JUMPDEST DUP1 REVERT JUMPDEST DUP6 DUP1 REVERT JUMPDEST PUSH1 0x24 DUP6 PUSH4 0x4E487B71 PUSH1 0xE0 SHL DUP2 MSTORE PUSH1 0x41 PUSH1 0x4 MSTORE REVERT JUMPDEST PUSH32 0xD7F7333400000000000000000000000000000000000000000000000000000000 PUSH1 0x0 MSTORE CALLER PUSH1 0x4 MSTORE PUSH1 0x24 PUSH1 0x0 REVERT JUMPDEST PUSH1 0x40 DUP2 ADD SWAP1 DUP2 LT PUSH8 0xFFFFFFFFFFFFFFFF DUP3 GT OR PUSH2 0x547 JUMPI PUSH1 0x40 MSTORE JUMP JUMPDEST SWAP1 PUSH1 0x1F DUP1 NOT SWAP2 ADD AND DUP2 ADD SWAP1 DUP2 LT PUSH8 0xFFFFFFFFFFFFFFFF DUP3 GT OR PUSH2 0x547 JUMPI PUSH1 0x40 MSTORE JUMP JUMPDEST CALLDATALOAD SWAP1 PUSH1 0x1 PUSH1 0x1 PUSH1 0xA0 SHL SUB DUP3 AND DUP3 SUB PUSH2 0x129 JUMPI JUMP JUMPDEST DUP2 PUSH1 0x1F DUP3 ADD SLT ISZERO PUSH2 0x129 JUMPI DUP1 CALLDATALOAD SWAP1 PUSH8 0xFFFFFFFFFFFFFFFF DUP3 GT PUSH2 0x547 JUMPI PUSH1 0x40 MLOAD SWAP3 PUSH2 0xADE PUSH1 0x20 DUP5 PUSH1 0x5 SHL ADD DUP6 PUSH2 0xA77 JUMP JUMPDEST DUP3 DUP5 MSTORE PUSH1 0x20 DUP1 DUP6 ADD SWAP4 PUSH1 0x6 SHL DUP4 ADD ADD SWAP2 DUP2 DUP4 GT PUSH2 0x129 JUMPI PUSH1 0x20 ADD SWAP3 JUMPDEST DUP3 DUP5 LT PUSH2 0xB08 JUMPI POP POP POP POP SWAP1 JUMP JUMPDEST PUSH1 0x40 DUP5 DUP4 SUB SLT PUSH2 0x129 JUMPI PUSH1 0x20 PUSH1 0x40 SWAP2 DUP3 MLOAD PUSH2 0xB22 DUP2 PUSH2 0xA5B JUMP JUMPDEST PUSH2 0xB2B DUP8 PUSH2 0xA99 JUMP JUMPDEST DUP2 MSTORE DUP3 DUP8 ADD CALLDATALOAD DUP4 DUP3 ADD MSTORE DUP2 MSTORE ADD SWAP4 ADD SWAP3 PUSH2 0xAFA JUMP JUMPDEST SWAP1 CALLDATALOAD SWAP1 PUSH1 0x1E NOT DUP2 CALLDATASIZE SUB ADD DUP3 SLT ISZERO PUSH2 0x129 JUMPI ADD DUP1 CALLDATALOAD SWAP1 PUSH8 0xFFFFFFFFFFFFFFFF DUP3 GT PUSH2 0x129 JUMPI PUSH1 0x20 ADD SWAP2 DUP2 PUSH1 0x6 SHL CALLDATASIZE SUB DUP4 SGT PUSH2 0x129 JUMPI JUMP JUMPDEST SWAP2 SWAP1 DUP2 LT ISZERO PUSH2 0x531 JUMPI PUSH1 0x6 SHL ADD SWAP1 JUMP JUMPDEST DUP1 MLOAD DUP3 LT ISZERO PUSH2 0x531 JUMPI PUSH1 0x20 SWAP2 PUSH1 0x5 SHL ADD ADD SWAP1 JUMP JUMPDEST SWAP1 DUP2 PUSH1 0x20 SWAP2 SUB SLT PUSH2 0x129 JUMPI MLOAD DUP1 ISZERO ISZERO DUP2 SUB PUSH2 0x129 JUMPI SWAP1 JUMP JUMPDEST PUSH1 0x1 PUSH1 0x1 PUSH1 0xA0 SHL SUB PUSH1 0x0 SLOAD AND CALLER SUB PUSH2 0xBC6 JUMPI JUMP JUMPDEST PUSH32 0x118CDAA700000000000000000000000000000000000000000000000000000000 PUSH1 0x0 MSTORE CALLER PUSH1 0x4 MSTORE PUSH1 0x24 PUSH1 0x0 REVERT INVALID LOG2 PUSH5 0x6970667358 0x22 SLT KECCAK256 PUSH19 0xA42A6D2FD747A62122F5E04EA6EF40FAD79569 PUSH4 0x2127D433 LOG2 0xE8 0xE3 PUSH7 0xFE5B6C64736F6C PUSH4 0x4300081C STOP CALLER "
        },
        "methodIdentifiers": {
          "bridgeToken(uint256,(address,uint256)[],address)": "8599fe89",
          "etnCallPayMaster()": "606e987a",
          "etnCallReceive((bytes32,uint256,address,bytes,(address,uint256)[],uint8))": "3f2fa79b",
          "getETNCall()": "87530b18",
          "owner()": "8da5cb5b",
          "renounceOwnership()": "715018a6",
          "setContract(uint256,address)": "89e865a9",
          "transferOwnership(address)": "f2fde38b"
        }
      }
    }
  }
}