{
  "contracts/ETNCall.sol": {
    "ETNCall": {
      "abi": [
        {
          "inputs": [
            {
              "internalType": "address",
              "name": "pay_",
              "type": "address"
            },
            {
              "internalType": "address",
              "name": "config_",
              "type": "address"
            }
          ],
          "stateMutability": "nonpayable",
          "type": "constructor"
        },
        {
          "inputs": [
            {
              "internalType": "bytes32",
              "name": "messageId",
              "type": "bytes32"
            }
          ],
          "name": "AlreadyExecuted",
          "type": "error"
        },
        {
          "inputs": [],
          "name": "InsufficientGasFee",
          "type": "error"
        },
        {
          "inputs": [],
          "name": "InvalidMessage",
          "type": "error"
        },
        {
          "inputs": [
            {
              "internalType": "address",
              "name": "owner",
              "type": "address"
            }
          ],
          "name": "OwnableInvalidOwner",
          "type": "error"
        },
        {
          "inputs": [
            {
              "internalType": "address",
              "name": "account",
              "type": "address"
            }
          ],
          "name": "OwnableUnauthorizedAccount",
          "type": "error"
        },
        {
          "inputs": [
            {
              "internalType": "uint256",
              "name": "chainId",
              "type": "uint256"
            }
          ],
          "name": "UnsupportedChain",
          "type": "error"
        },
        {
          "anonymous": false,
          "inputs": [
            {
              "indexed": false,
              "internalType": "bytes32",
              "name": "messageId",
              "type": "bytes32"
            },
            {
              "indexed": false,
              "internalType": "uint256",
              "name": "fee",
              "type": "uint256"
            },
            {
              "indexed": false,
              "internalType": "address",
              "name": "feeToken",
              "type": "address"
            },
            {
              "indexed": false,
              "internalType": "uint256",
              "name": "sequenceNumber",
              "type": "uint256"
            },
            {
              "indexed": false,
              "internalType": "uint256",
              "name": "toChainId",
              "type": "uint256"
            },
            {
              "indexed": false,
              "internalType": "address",
              "name": "sender",
              "type": "address"
            },
            {
              "indexed": false,
              "internalType": "address",
              "name": "receiver",
              "type": "address"
            },
            {
              "components": [
                {
                  "internalType": "address",
                  "name": "tokenId",
                  "type": "address"
                },
                {
                  "internalType": "uint256",
                  "name": "amount",
                  "type": "uint256"
                }
              ],
              "indexed": false,
              "internalType": "struct Data.Token[]",
              "name": "tokens",
              "type": "tuple[]"
            },
            {
              "indexed": false,
              "internalType": "enum Data.PayMaster",
              "name": "payMaster",
              "type": "uint8"
            },
            {
              "indexed": false,
              "internalType": "bytes",
              "name": "payload",
              "type": "bytes"
            }
          ],
          "name": "Dispatch",
          "type": "event"
        },
        {
          "anonymous": false,
          "inputs": [
            {
              "indexed": true,
              "internalType": "address",
              "name": "previousOwner",
              "type": "address"
            },
            {
              "indexed": true,
              "internalType": "address",
              "name": "newOwner",
              "type": "address"
            }
          ],
          "name": "OwnershipTransferred",
          "type": "event"
        },
        {
          "anonymous": false,
          "inputs": [
            {
              "indexed": false,
              "internalType": "bytes32",
              "name": "messageId",
              "type": "bytes32"
            }
          ],
          "name": "PostMessage",
          "type": "event"
        },
        {
          "inputs": [
            {
              "internalType": "uint256",
              "name": "toChainId",
              "type": "uint256"
            }
          ],
          "name": "estimateFee",
          "outputs": [
            {
              "internalType": "uint256",
              "name": "",
              "type": "uint256"
            }
          ],
          "stateMutability": "view",
          "type": "function"
        },
        {
          "inputs": [
            {
              "internalType": "uint256",
              "name": "chainId",
              "type": "uint256"
            }
          ],
          "name": "isChainSupported",
          "outputs": [
            {
              "internalType": "bool",
              "name": "",
              "type": "bool"
            }
          ],
          "stateMutability": "view",
          "type": "function"
        },
        {
          "inputs": [
            {
              "internalType": "address",
              "name": "tokenId",
              "type": "address"
            }
          ],
          "name": "isTokenSupported",
          "outputs": [
            {
              "internalType": "bool",
              "name": "",
              "type": "bool"
            }
          ],
          "stateMutability": "view",
          "type": "function"
        },
        {
          "inputs": [],
          "name": "owner",
          "outputs": [
            {
              "internalType": "address",
              "name": "",
              "type": "address"
            }
          ],
          "stateMutability": "view",
          "type": "function"
        },
        {
          "inputs": [
            {
              "internalType": "address",
              "name": "receiver",
              "type": "address"
            },
            {
              "components": [
                {
                  "internalType": "bytes32",
                  "name": "messageId",
                  "type": "bytes32"
                },
                {
                  "internalType": "uint256",
                  "name": "fromChainId",
                  "type": "uint256"
                },
                {
                  "internalType": "address",
                  "name": "sender",
                  "type": "address"
                },
                {
                  "internalType": "bytes",
                  "name": "payload",
                  "type": "bytes"
                },
                {
                  "components": [
                    {
                      "internalType": "address",
                      "name": "tokenId",
                      "type": "address"
                    },
                    {
                      "internalType": "uint256",
                      "name": "amount",
                      "type": "uint256"
                    }
                  ],
                  "internalType": "struct Data.Token[]",
                  "name": "tokens",
                  "type": "tuple[]"
                },
                {
                  "internalType": "enum Data.PayMaster",
                  "name": "payMaster",
                  "type": "uint8"
                }
              ],
              "internalType": "struct Data.IncomingMessage",
              "name": "message",
              "type": "tuple"
            },
            {
              "internalType": "address",
              "name": "tokenPool",
              "type": "address"
            }
          ],
          "name": "postMessage",
          "outputs": [],
          "stateMutability": "nonpayable",
          "type": "function"
        },
        {
          "inputs": [],
          "name": "renounceOwnership",
          "outputs": [],
          "stateMutability": "nonpayable",
          "type": "function"
        },
        {
          "inputs": [
            {
              "components": [
                {
                  "internalType": "uint256",
                  "name": "toChainId",
                  "type": "uint256"
                },
                {
                  "internalType": "address",
                  "name": "receiver",
                  "type": "address"
                },
                {
                  "internalType": "bytes",
                  "name": "payload",
                  "type": "bytes"
                },
                {
                  "components": [
                    {
                      "internalType": "address",
                      "name": "tokenId",
                      "type": "address"
                    },
                    {
                      "internalType": "uint256",
                      "name": "amount",
                      "type": "uint256"
                    }
                  ],
                  "internalType": "struct Data.Token[]",
                  "name": "tokens",
                  "type": "tuple[]"
                },
                {
                  "internalType": "enum Data.PayMaster",
                  "name": "payMaster",
                  "type": "uint8"
                }
              ],
              "internalType": "struct Data.OutgoingMessage",
              "name": "message",
              "type": "tuple"
            },
            {
              "internalType": "address",
              "name": "tokenPool",
              "type": "address"
            }
          ],
          "name": "sendMessage",
          "outputs": [
            {
              "internalType": "bytes32",
              "name": "",
              "type": "bytes32"
            }
          ],
          "stateMutability": "payable",
          "type": "function"
        },
        {
          "inputs": [
            {
              "internalType": "address",
              "name": "newOwner",
              "type": "address"
            }
          ],
          "name": "transferOwnership",
          "outputs": [],
          "stateMutability": "nonpayable",
          "type": "function"
        }
      ],
      "evm": {
        "bytecode": {
          "linkReferences": {},
          "object": "6080346100f257601f61128338819003918201601f19168301916001600160401b038311848410176100f75780849260409485528339810103126100f257610052602061004b8361010d565b920161010d565b33156100dc5760008054336001600160a01b0319821681178355604051949290916001600160a01b0316907f8be0079c531659141344cd1fd0a4f28419497f9722a3daafe3b4186f6b6457e09080a3600280546001600160a01b039283166001600160a01b0319918216179091556003805493909216921691909117905561116190816101228239f35b631e4fbdf760e01b600052600060045260246000fd5b600080fd5b634e487b7160e01b600052604160045260246000fd5b51906001600160a01b03821682036100f25756fe6080604052600436101561001257600080fd5b6000803560e01c80630c840101146104b1578063127e8e4d146104175780635221c1f0146103f8578063715018a61461039257806375151b63146103645780638da5cb5b1461033e578063f2fde38b146102935763fc1d606d1461007557600080fd5b346102905760603660031901126102905761008e610c25565b906024359167ffffffffffffffff83116101bf578260040160c060031985360301126101ce57604435916001600160a01b038316809303610260576100d16110e9565b813592838552600460205260ff604086205416610264576100f9608486979695960184610cdf565b90506101d2575b506001600160a01b0316803b156101ce5761015683929183926040519485809481937f3f2fa79b000000000000000000000000000000000000000000000000000000008352602060048401526024830190610fee565b03925af180156101c3576101aa575b50507f98302d606350c6eac5a0aa13af4cd08f0efcd727799fac363b660272da97b9ae6020604051838152a18152600460205260408120805460ff1916600117905580f35b816101b491610c4f565b6101bf578138610165565b5080fd5b6040513d84823e3d90fd5b8280fd5b803b15610260578360405180927f25ed576d0000000000000000000000000000000000000000000000000000000082526001600160a01b038516600483015260406024830152818381610228604482018a610fee565b03925af1908115610255578491610240575b50610100565b8161024a91610c4f565b6101ce57823861023a565b6040513d86823e3d90fd5b8380fd5b602485857fd1d36dcd000000000000000000000000000000000000000000000000000000008252600452fd5b80fd5b5034610290576020366003190112610290576001600160a01b036102b5610c25565b6102bd6110e9565b168015610312576001600160a01b0382548273ffffffffffffffffffffffffffffffffffffffff198216178455167f8be0079c531659141344cd1fd0a4f28419497f9722a3daafe3b4186f6b6457e08380a380f35b6024827f1e4fbdf700000000000000000000000000000000000000000000000000000000815280600452fd5b50346102905780600319360112610290576001600160a01b036020915416604051908152f35b5034610290576020366003190112610290576020610388610383610c25565b610ec6565b6040519015158152f35b50346102905780600319360112610290576103ab6110e9565b806001600160a01b03815473ffffffffffffffffffffffffffffffffffffffff1981168355167f8be0079c531659141344cd1fd0a4f28419497f9722a3daafe3b4186f6b6457e08280a380f35b5034610290576020366003190112610290576020610388600435610da8565b50346102905760203660031901126102905760249060206001600160a01b036003541660405193848092633f3b917d60e21b825260043560048301525afa9081156104a5579061046d575b602090604051908152f35b506020813d60201161049d575b8161048760209383610c4f565b810103126104985760209051610462565b600080fd5b3d915061047a565b604051903d90823e3d90fd5b5060403660031901126102905767ffffffffffffffff600435116102905760a060043536036003190112610290576024356001600160a01b03811681036101bf576001543360601b179061012060405260043560040135608052610519602460043501610c3b565b60a05267ffffffffffffffff60043560440135116101ce5760043560448101350191366023840112156102605767ffffffffffffffff600484013511610c11576040516105746004850135601f01601f191660200182610c4f565b60048401358082523690850160240111610ba5576004840135602485016020830137600484810135820160200186905260c091825235606401359067ffffffffffffffff8211610914573660238360043501011215610914576105dd6004838135010135610c87565b906105eb6040519283610c4f565b600480358401908101358084526020840194602460069290921b90920101908490368311610c0d5760043501602401905b828210610bf35750505060e0829052600260043560840135101561091857608460043501356080800152608051906001600160a01b0360206080015116905191604051957feeeeeeeeeeeeeeeeeeeeeeeeeeeeeeeeeeeeeeee000000000000000000000000602088015260408701526060860152608085015260e060a085015280519081610100860152875b828110610bdc57505080876101206101409387010152601f80199101168401610120810192601f19610120878403010160c087015251809352019190865b818110610bb157505050906107198160249361070b60e0830160846004350135610d3a565b03601f198101835282610c4f565b6020815191012060206001600160a01b036003541660405193848092633f3b917d60e21b82526004356004013560048301525afa91821561086e578592610b79575b5060043560840135600103610b495734610ac557846001600160a01b0360025416803b156101bf5781906064604051809481937f120cad450000000000000000000000000000000000000000000000000000000083523360048401528860248401528760448401525af18015610aba57610aa6575b505b845b6107e8606460043501600435600401610cdf565b905081101561094357610805606460043501600435600401610cdf565b82101561092f5761081d879136908460061b01610c9f565b80516001600160a01b031673eeeeeeeeeeeeeeeeeeeeeeeeeeeeeeeeeeeeeeee8103610882575050803415610879575b8180809234906001600160a01b038a1690f11561086e576001905b016107d4565b6040513d87823e3d90fd5b506108fc61084d565b606460208093015160405194859384927f23b872dd0000000000000000000000000000000000000000000000000000000084523360048501526001600160a01b038c16602485015260448401525af18015610924576108e5575b50600190610868565b6020813d821161091c575b816108fd60209383610c4f565b8101031261091857518015150361091457386108dc565b8580fd5b8680fd5b3d91506108f0565b6040513d89823e3d90fd5b602487634e487b7160e01b81526032600452fd5b5084846001549360246004350135916001600160a01b03831680930361026057610977606460043501600435600401610cdf565b90926022196004353603016044600435013512156109145760048301353603602484011361091457819060405195610140870191898852602088015273eeeeeeeeeeeeeeeeeeeeeeeeeeeeeeeeeeeeeeee60408801528960608801526004356004013560808801523360a088015260c087015261014060e08701525261016084019290855b818110610a8b5750505091610a5981927fd00eacc6efde56afa76b4a4559b37e6f3fe7141311a16134b34e233b312d5d0c94610a42610100850160846004350135610d3a565b838203610120850152602460048201359101610d5d565b0390a16000198314610a775750600160209201600155604051908152f35b80634e487b7160e01b602492526011600452fd5b9091936040610a9c60019287610d15565b95019291016109fc565b85610ab391969296610c4f565b93386107d0565b6040513d88823e3d90fd5b60846040517f08c379a000000000000000000000000000000000000000000000000000000000815260206004820152603060248201527f446f6e74207061737320696e20616e792076616c756520666f72205061794d6160448201527f737465722e45544e43414c4c5f504159000000000000000000000000000000006064820152fd5b813410156107d2576004857fe6b65893000000000000000000000000000000000000000000000000000000008152fd5b9091506020813d602011610ba9575b81610b9560209383610c4f565b81010312610ba55751903861075b565b8480fd5b3d9150610b88565b825180516001600160a01b0316855260209081015181860152604090940193909201916001016106e6565b8060208092840101516101208289010152016106a8565b6020604091610c023685610c9f565b81520191019061061c565b8980fd5b602484634e487b7160e01b81526041600452fd5b600435906001600160a01b038216820361049857565b35906001600160a01b038216820361049857565b90601f8019910116810190811067ffffffffffffffff821117610c7157604052565b634e487b7160e01b600052604160045260246000fd5b67ffffffffffffffff8111610c715760051b60200190565b9190826040910312610498576040516040810181811067ffffffffffffffff821117610c71576040526020808294610cd681610c3b565b84520135910152565b903590601e1981360301821215610498570180359067ffffffffffffffff821161049857602001918160061b3603831361049857565b9060206040926001600160a01b03610d2c82610c3b565b168352013560208201520190565b906002821015610d475752565b634e487b7160e01b600052602160045260246000fd5b908060209392818452848401376000828201840152601f01601f1916010190565b8051821015610d925760209160051b010190565b634e487b7160e01b600052603260045260246000fd5b600460006001600160a01b0360035416604051928380927f816949b50000000000000000000000000000000000000000000000000000000082525afa908115610eba57600091610e2a575b509060005b8251811015610e225781610e0c8285610d7e565b5114610e1a57600101610df8565b505050600190565b505050600090565b3d8083833e610e398183610c4f565b8101906020818303126101ce5780519067ffffffffffffffff8211610260570181601f820112156101ce57805190610e7082610c87565b93610e7e6040519586610c4f565b82855260208086019360051b8301019384116102905750602001905b828210610eaa5750505038610df3565b8151815260209182019101610e9a565b6040513d6000823e3d90fd5b60049060006001600160a01b0360035416604051938480927fb002249d0000000000000000000000000000000000000000000000000000000082525afa918215610eba57600092610f4a575b5060005b8251811015610e22576001600160a01b03610f318285610d7e565b51166001600160a01b03831614610e1a57600101610f16565b90913d8082843e610f5b8184610c4f565b8201916020818403126101bf5780519067ffffffffffffffff82116101ce57019180601f840112156101bf57825191610f9383610c87565b93610fa16040519586610c4f565b83855260208086019460051b8201019283116101bf57602001925b828410610fce57505050509038610f12565b83516001600160a01b03811681036101ce57815260209384019301610fbc565b9081358152602082013560208201526001600160a01b0361101160408401610c3b565b16604082015236829003601e19019160608101358381121561049857810160208135910167ffffffffffffffff8211610498578136038113610498576110629160c0606086015260c0850191610d5d565b926080820135908112156104985781016020813591019367ffffffffffffffff8211610498578160061b36038513610498578381036080850152818152602001939060005b8181106110ce5750505060a0013560028110156104985760a06110cb920190610d3a565b90565b90919460406110df60019288610d15565b96019291016110a7565b6001600160a01b036000541633036110fd57565b7f118cdaa7000000000000000000000000000000000000000000000000000000006000523360045260246000fdfea26469706673582212204e656aba087f8e056e3d9f0491b8a593ea0c43df1d15d0bf819bfec23210f09164736f6c634300081c0033",
          "opcodes": "PUSH1 0x80 CALLVALUE PUSH2 0xF2 JUMPI PUSH1 0x1F PUSH2 0x1283 CODESIZE DUP2 SWAP1 SUB SWAP2 DUP3 ADD PUSH1 0x1F NOT AND DUP4 ADD SWAP2 PUSH1 0x1 PUSH1 0x1 PUSH1 0x40 SHL SUB DUP4 GT DUP5 DUP5 LT OR PUSH2 0xF7 JUMPI DUP1 DUP5 SWAP3 PUSH1 0x40 SWAP5 DUP6 MSTORE DUP4 CODECOPY DUP2 ADD SUB SLT PUSH2 0xF2 JUMPI PUSH2 0x52 PUSH1 0x20 PUSH2 0x4B DUP4 PUSH2 0x10D JUMP JUMPDEST SWAP3 ADD PUSH2 0x10D JUMP JUMPDEST CALLER ISZERO PUSH2 0xDC JUMPI PUSH1 0x0 DUP1 SLOAD CALLER PUSH1 0x1 PUSH1 0x1 PUSH1 0xA0 SHL SUB NOT DUP3 AND DUP2 OR DUP4 SSTORE PUSH1 0x40 MLOAD SWAP5 SWAP3 SWAP1 SWAP2 PUSH1 0x1 PUSH1 0x1 PUSH1 0xA0 SHL SUB AND SWAP1 PUSH32 0x8BE0079C531659141344CD1FD0A4F28419497F9722A3DAAFE3B4186F6B6457E0 SWAP1 DUP1 LOG3 PUSH1 0x2 DUP1 SLOAD PUSH1 0x1 PUSH1 0x1 PUSH1 0xA0 SHL SUB SWAP3 DUP4 AND PUSH1 0x1 PUSH1 0x1 PUSH1 0xA0 SHL SUB NOT SWAP2 DUP3 AND OR SWAP1 SWAP2 SSTORE PUSH1 0x3 DUP1 SLOAD SWAP4 SWAP1 SWAP3 AND SWAP3 AND SWAP2 SWAP1 SWAP2 OR SWAP1 SSTORE PUSH2 0x1161 SWAP1 DUP2 PUSH2 0x122 DUP3 CODECOPY RETURN JUMPDEST PUSH4 0x1E4FBDF7 PUSH1 0xE0 SHL PUSH1 0x0 MSTORE PUSH1 0x0 PUSH1 0x4 MSTORE PUSH1 0x24 PUSH1 0x0 REVERT JUMPDEST PUSH1 0x0 DUP1 REVERT JUMPDEST PUSH4 0x4E487B71 PUSH1 0xE0 SHL PUSH1 0x0 MSTORE PUSH1 0x41 PUSH1 0x4 MSTORE PUSH1 0x24 PUSH1 0x0 REVERT JUMPDEST MLOAD SWAP1 PUSH1 0x1 PUSH1 0x1 PUSH1 0xA0 SHL SUB DUP3 AND DUP3 SUB PUSH2 0xF2 JUMPI JUMP INVALID PUSH1 0x80 PUSH1 0x40 MSTORE PUSH1 0x4 CALLDATASIZE LT ISZERO PUSH2 0x12 JUMPI PUSH1 0x0 DUP1 REVERT JUMPDEST PUSH1 0x0 DUP1 CALLDATALOAD PUSH1 0xE0 SHR DUP1 PUSH4 0xC840101 EQ PUSH2 0x4B1 JUMPI DUP1 PUSH4 0x127E8E4D EQ PUSH2 0x417 JUMPI DUP1 PUSH4 0x5221C1F0 EQ PUSH2 0x3F8 JUMPI DUP1 PUSH4 0x715018A6 EQ PUSH2 0x392 JUMPI DUP1 PUSH4 0x75151B63 EQ PUSH2 0x364 JUMPI DUP1 PUSH4 0x8DA5CB5B EQ PUSH2 0x33E JUMPI DUP1 PUSH4 0xF2FDE38B EQ PUSH2 0x293 JUMPI PUSH4 0xFC1D606D EQ PUSH2 0x75 JUMPI PUSH1 0x0 DUP1 REVERT JUMPDEST CALLVALUE PUSH2 0x290 JUMPI PUSH1 0x60 CALLDATASIZE PUSH1 0x3 NOT ADD SLT PUSH2 0x290 JUMPI PUSH2 0x8E PUSH2 0xC25 JUMP JUMPDEST SWAP1 PUSH1 0x24 CALLDATALOAD SWAP2 PUSH8 0xFFFFFFFFFFFFFFFF DUP4 GT PUSH2 0x1BF JUMPI DUP3 PUSH1 0x4 ADD PUSH1 0xC0 PUSH1 0x3 NOT DUP6 CALLDATASIZE SUB ADD SLT PUSH2 0x1CE JUMPI PUSH1 0x44 CALLDATALOAD SWAP2 PUSH1 0x1 PUSH1 0x1 PUSH1 0xA0 SHL SUB DUP4 AND DUP1 SWAP4 SUB PUSH2 0x260 JUMPI PUSH2 0xD1 PUSH2 0x10E9 JUMP JUMPDEST DUP2 CALLDATALOAD SWAP3 DUP4 DUP6 MSTORE PUSH1 0x4 PUSH1 0x20 MSTORE PUSH1 0xFF PUSH1 0x40 DUP7 KECCAK256 SLOAD AND PUSH2 0x264 JUMPI PUSH2 0xF9 PUSH1 0x84 DUP7 SWAP8 SWAP7 SWAP6 SWAP7 ADD DUP5 PUSH2 0xCDF JUMP JUMPDEST SWAP1 POP PUSH2 0x1D2 JUMPI JUMPDEST POP PUSH1 0x1 PUSH1 0x1 PUSH1 0xA0 SHL SUB AND DUP1 EXTCODESIZE ISZERO PUSH2 0x1CE JUMPI PUSH2 0x156 DUP4 SWAP3 SWAP2 DUP4 SWAP3 PUSH1 0x40 MLOAD SWAP5 DUP6 DUP1 SWAP5 DUP2 SWAP4 PUSH32 0x3F2FA79B00000000000000000000000000000000000000000000000000000000 DUP4 MSTORE PUSH1 0x20 PUSH1 0x4 DUP5 ADD MSTORE PUSH1 0x24 DUP4 ADD SWAP1 PUSH2 0xFEE JUMP JUMPDEST SUB SWAP3 GAS CALL DUP1 ISZERO PUSH2 0x1C3 JUMPI PUSH2 0x1AA JUMPI JUMPDEST POP POP PUSH32 0x98302D606350C6EAC5A0AA13AF4CD08F0EFCD727799FAC363B660272DA97B9AE PUSH1 0x20 PUSH1 0x40 MLOAD DUP4 DUP2 MSTORE LOG1 DUP2 MSTORE PUSH1 0x4 PUSH1 0x20 MSTORE PUSH1 0x40 DUP2 KECCAK256 DUP1 SLOAD PUSH1 0xFF NOT AND PUSH1 0x1 OR SWAP1 SSTORE DUP1 RETURN JUMPDEST DUP2 PUSH2 0x1B4 SWAP2 PUSH2 0xC4F JUMP JUMPDEST PUSH2 0x1BF JUMPI DUP2 CODESIZE PUSH2 0x165 JUMP JUMPDEST POP DUP1 REVERT JUMPDEST PUSH1 0x40 MLOAD RETURNDATASIZE DUP5 DUP3 RETURNDATACOPY RETURNDATASIZE SWAP1 REVERT JUMPDEST DUP3 DUP1 REVERT JUMPDEST DUP1 EXTCODESIZE ISZERO PUSH2 0x260 JUMPI DUP4 PUSH1 0x40 MLOAD DUP1 SWAP3 PUSH32 0x25ED576D00000000000000000000000000000000000000000000000000000000 DUP3 MSTORE PUSH1 0x1 PUSH1 0x1 PUSH1 0xA0 SHL SUB DUP6 AND PUSH1 0x4 DUP4 ADD MSTORE PUSH1 0x40 PUSH1 0x24 DUP4 ADD MSTORE DUP2 DUP4 DUP2 PUSH2 0x228 PUSH1 0x44 DUP3 ADD DUP11 PUSH2 0xFEE JUMP JUMPDEST SUB SWAP3 GAS CALL SWAP1 DUP2 ISZERO PUSH2 0x255 JUMPI DUP5 SWAP2 PUSH2 0x240 JUMPI JUMPDEST POP PUSH2 0x100 JUMP JUMPDEST DUP2 PUSH2 0x24A SWAP2 PUSH2 0xC4F JUMP JUMPDEST PUSH2 0x1CE JUMPI DUP3 CODESIZE PUSH2 0x23A JUMP JUMPDEST PUSH1 0x40 MLOAD RETURNDATASIZE DUP7 DUP3 RETURNDATACOPY RETURNDATASIZE SWAP1 REVERT JUMPDEST DUP4 DUP1 REVERT JUMPDEST PUSH1 0x24 DUP6 DUP6 PUSH32 0xD1D36DCD00000000000000000000000000000000000000000000000000000000 DUP3 MSTORE PUSH1 0x4 MSTORE REVERT JUMPDEST DUP1 REVERT JUMPDEST POP CALLVALUE PUSH2 0x290 JUMPI PUSH1 0x20 CALLDATASIZE PUSH1 0x3 NOT ADD SLT PUSH2 0x290 JUMPI PUSH1 0x1 PUSH1 0x1 PUSH1 0xA0 SHL SUB PUSH2 0x2B5 PUSH2 0xC25 JUMP JUMPDEST PUSH2 0x2BD PUSH2 0x10E9 JUMP JUMPDEST AND DUP1 ISZERO PUSH2 0x312 JUMPI PUSH1 0x1 PUSH1 0x1 PUSH1 0xA0 SHL SUB DUP3 SLOAD DUP3 PUSH20 0xFFFFFFFFFFFFFFFFFFFFFFFFFFFFFFFFFFFFFFFF NOT DUP3 AND OR DUP5 SSTORE AND PUSH32 0x8BE0079C531659141344CD1FD0A4F28419497F9722A3DAAFE3B4186F6B6457E0 DUP4 DUP1 LOG3 DUP1 RETURN JUMPDEST PUSH1 0x24 DUP3 PUSH32 0x1E4FBDF700000000000000000000000000000000000000000000000000000000 DUP2 MSTORE DUP1 PUSH1 0x4 MSTORE REVERT JUMPDEST POP CALLVALUE PUSH2 0x290 JUMPI DUP1 PUSH1 0x3 NOT CALLDATASIZE ADD SLT PUSH2 0x290 JUMPI PUSH1 0x1 PUSH1 0x1 PUSH1 0xA0 SHL SUB PUSH1 0x20 SWAP2 SLOAD AND PUSH1 0x40 MLOAD SWAP1 DUP2 MSTORE RETURN JUMPDEST POP CALLVALUE PUSH2 0x290 JUMPI PUSH1 0x20 CALLDATASIZE PUSH1 0x3 NOT ADD SLT PUSH2 0x290 JUMPI PUSH1 0x20 PUSH2 0x388 PUSH2 0x383 PUSH2 0xC25 JUMP JUMPDEST PUSH2 0xEC6 JUMP JUMPDEST PUSH1 0x40 MLOAD SWAP1 ISZERO ISZERO DUP2 MSTORE RETURN JUMPDEST POP CALLVALUE PUSH2 0x290 JUMPI DUP1 PUSH1 0x3 NOT CALLDATASIZE ADD SLT PUSH2 0x290 JUMPI PUSH2 0x3AB PUSH2 0x10E9 JUMP JUMPDEST DUP1 PUSH1 0x1 PUSH1 0x1 PUSH1 0xA0 SHL SUB DUP2 SLOAD PUSH20 0xFFFFFFFFFFFFFFFFFFFFFFFFFFFFFFFFFFFFFFFF NOT DUP2 AND DUP4 SSTORE AND PUSH32 0x8BE0079C531659141344CD1FD0A4F28419497F9722A3DAAFE3B4186F6B6457E0 DUP3 DUP1 LOG3 DUP1 RETURN JUMPDEST POP CALLVALUE PUSH2 0x290 JUMPI PUSH1 0x20 CALLDATASIZE PUSH1 0x3 NOT ADD SLT PUSH2 0x290 JUMPI PUSH1 0x20 PUSH2 0x388 PUSH1 0x4 CALLDATALOAD PUSH2 0xDA8 JUMP JUMPDEST POP CALLVALUE PUSH2 0x290 JUMPI PUSH1 0x20 CALLDATASIZE PUSH1 0x3 NOT ADD SLT PUSH2 0x290 JUMPI PUSH1 0x24 SWAP1 PUSH1 0x20 PUSH1 0x1 PUSH1 0x1 PUSH1 0xA0 SHL SUB PUSH1 0x3 SLOAD AND PUSH1 0x40 MLOAD SWAP4 DUP5 DUP1 SWAP3 PUSH4 0x3F3B917D PUSH1 0xE2 SHL DUP3 MSTORE PUSH1 0x4 CALLDATALOAD PUSH1 0x4 DUP4 ADD MSTORE GAS STATICCALL SWAP1 DUP2 ISZERO PUSH2 0x4A5 JUMPI SWAP1 PUSH2 0x46D JUMPI JUMPDEST PUSH1 0x20 SWAP1 PUSH1 0x40 MLOAD SWAP1 DUP2 MSTORE RETURN JUMPDEST POP PUSH1 0x20 DUP2 RETURNDATASIZE PUSH1 0x20 GT PUSH2 0x49D JUMPI JUMPDEST DUP2 PUSH2 0x487 PUSH1 0x20 SWAP4 DUP4 PUSH2 0xC4F JUMP JUMPDEST DUP2 ADD SUB SLT PUSH2 0x498 JUMPI PUSH1 0x20 SWAP1 MLOAD PUSH2 0x462 JUMP JUMPDEST PUSH1 0x0 DUP1 REVERT JUMPDEST RETURNDATASIZE SWAP2 POP PUSH2 0x47A JUMP JUMPDEST PUSH1 0x40 MLOAD SWAP1 RETURNDATASIZE SWAP1 DUP3 RETURNDATACOPY RETURNDATASIZE SWAP1 REVERT JUMPDEST POP PUSH1 0x40 CALLDATASIZE PUSH1 0x3 NOT ADD SLT PUSH2 0x290 JUMPI PUSH8 0xFFFFFFFFFFFFFFFF PUSH1 0x4 CALLDATALOAD GT PUSH2 0x290 JUMPI PUSH1 0xA0 PUSH1 0x4 CALLDATALOAD CALLDATASIZE SUB PUSH1 0x3 NOT ADD SLT PUSH2 0x290 JUMPI PUSH1 0x24 CALLDATALOAD PUSH1 0x1 PUSH1 0x1 PUSH1 0xA0 SHL SUB DUP2 AND DUP2 SUB PUSH2 0x1BF JUMPI PUSH1 0x1 SLOAD CALLER PUSH1 0x60 SHL OR SWAP1 PUSH2 0x120 PUSH1 0x40 MSTORE PUSH1 0x4 CALLDATALOAD PUSH1 0x4 ADD CALLDATALOAD PUSH1 0x80 MSTORE PUSH2 0x519 PUSH1 0x24 PUSH1 0x4 CALLDATALOAD ADD PUSH2 0xC3B JUMP JUMPDEST PUSH1 0xA0 MSTORE PUSH8 0xFFFFFFFFFFFFFFFF PUSH1 0x4 CALLDATALOAD PUSH1 0x44 ADD CALLDATALOAD GT PUSH2 0x1CE JUMPI PUSH1 0x4 CALLDATALOAD PUSH1 0x44 DUP2 ADD CALLDATALOAD ADD SWAP2 CALLDATASIZE PUSH1 0x23 DUP5 ADD SLT ISZERO PUSH2 0x260 JUMPI PUSH8 0xFFFFFFFFFFFFFFFF PUSH1 0x4 DUP5 ADD CALLDATALOAD GT PUSH2 0xC11 JUMPI PUSH1 0x40 MLOAD PUSH2 0x574 PUSH1 0x4 DUP6 ADD CALLDATALOAD PUSH1 0x1F ADD PUSH1 0x1F NOT AND PUSH1 0x20 ADD DUP3 PUSH2 0xC4F JUMP JUMPDEST PUSH1 0x4 DUP5 ADD CALLDATALOAD DUP1 DUP3 MSTORE CALLDATASIZE SWAP1 DUP6 ADD PUSH1 0x24 ADD GT PUSH2 0xBA5 JUMPI PUSH1 0x4 DUP5 ADD CALLDATALOAD PUSH1 0x24 DUP6 ADD PUSH1 0x20 DUP4 ADD CALLDATACOPY PUSH1 0x4 DUP5 DUP2 ADD CALLDATALOAD DUP3 ADD PUSH1 0x20 ADD DUP7 SWAP1 MSTORE PUSH1 0xC0 SWAP2 DUP3 MSTORE CALLDATALOAD PUSH1 0x64 ADD CALLDATALOAD SWAP1 PUSH8 0xFFFFFFFFFFFFFFFF DUP3 GT PUSH2 0x914 JUMPI CALLDATASIZE PUSH1 0x23 DUP4 PUSH1 0x4 CALLDATALOAD ADD ADD SLT ISZERO PUSH2 0x914 JUMPI PUSH2 0x5DD PUSH1 0x4 DUP4 DUP2 CALLDATALOAD ADD ADD CALLDATALOAD PUSH2 0xC87 JUMP JUMPDEST SWAP1 PUSH2 0x5EB PUSH1 0x40 MLOAD SWAP3 DUP4 PUSH2 0xC4F JUMP JUMPDEST PUSH1 0x4 DUP1 CALLDATALOAD DUP5 ADD SWAP1 DUP2 ADD CALLDATALOAD DUP1 DUP5 MSTORE PUSH1 0x20 DUP5 ADD SWAP5 PUSH1 0x24 PUSH1 0x6 SWAP3 SWAP1 SWAP3 SHL SWAP1 SWAP3 ADD ADD SWAP1 DUP5 SWAP1 CALLDATASIZE DUP4 GT PUSH2 0xC0D JUMPI PUSH1 0x4 CALLDATALOAD ADD PUSH1 0x24 ADD SWAP1 JUMPDEST DUP3 DUP3 LT PUSH2 0xBF3 JUMPI POP POP POP PUSH1 0xE0 DUP3 SWAP1 MSTORE PUSH1 0x2 PUSH1 0x4 CALLDATALOAD PUSH1 0x84 ADD CALLDATALOAD LT ISZERO PUSH2 0x918 JUMPI PUSH1 0x84 PUSH1 0x4 CALLDATALOAD ADD CALLDATALOAD PUSH1 0x80 DUP1 ADD MSTORE PUSH1 0x80 MLOAD SWAP1 PUSH1 0x1 PUSH1 0x1 PUSH1 0xA0 SHL SUB PUSH1 0x20 PUSH1 0x80 ADD MLOAD AND SWAP1 MLOAD SWAP2 PUSH1 0x40 MLOAD SWAP6 PUSH32 0xEEEEEEEEEEEEEEEEEEEEEEEEEEEEEEEEEEEEEEEE000000000000000000000000 PUSH1 0x20 DUP9 ADD MSTORE PUSH1 0x40 DUP8 ADD MSTORE PUSH1 0x60 DUP7 ADD MSTORE PUSH1 0x80 DUP6 ADD MSTORE PUSH1 0xE0 PUSH1 0xA0 DUP6 ADD MSTORE DUP1 MLOAD SWAP1 DUP2 PUSH2 0x100 DUP7 ADD MSTORE DUP8 JUMPDEST DUP3 DUP2 LT PUSH2 0xBDC JUMPI POP POP DUP1 DUP8 PUSH2 0x120 PUSH2 0x140 SWAP4 DUP8 ADD ADD MSTORE PUSH1 0x1F DUP1 NOT SWAP2 ADD AND DUP5 ADD PUSH2 0x120 DUP2 ADD SWAP3 PUSH1 0x1F NOT PUSH2 0x120 DUP8 DUP5 SUB ADD ADD PUSH1 0xC0 DUP8 ADD MSTORE MLOAD DUP1 SWAP4 MSTORE ADD SWAP2 SWAP1 DUP7 JUMPDEST DUP2 DUP2 LT PUSH2 0xBB1 JUMPI POP POP POP SWAP1 PUSH2 0x719 DUP2 PUSH1 0x24 SWAP4 PUSH2 0x70B PUSH1 0xE0 DUP4 ADD PUSH1 0x84 PUSH1 0x4 CALLDATALOAD ADD CALLDATALOAD PUSH2 0xD3A JUMP JUMPDEST SUB PUSH1 0x1F NOT DUP2 ADD DUP4 MSTORE DUP3 PUSH2 0xC4F JUMP JUMPDEST PUSH1 0x20 DUP2 MLOAD SWAP2 ADD KECCAK256 PUSH1 0x20 PUSH1 0x1 PUSH1 0x1 PUSH1 0xA0 SHL SUB PUSH1 0x3 SLOAD AND PUSH1 0x40 MLOAD SWAP4 DUP5 DUP1 SWAP3 PUSH4 0x3F3B917D PUSH1 0xE2 SHL DUP3 MSTORE PUSH1 0x4 CALLDATALOAD PUSH1 0x4 ADD CALLDATALOAD PUSH1 0x4 DUP4 ADD MSTORE GAS STATICCALL SWAP2 DUP3 ISZERO PUSH2 0x86E JUMPI DUP6 SWAP3 PUSH2 0xB79 JUMPI JUMPDEST POP PUSH1 0x4 CALLDATALOAD PUSH1 0x84 ADD CALLDATALOAD PUSH1 0x1 SUB PUSH2 0xB49 JUMPI CALLVALUE PUSH2 0xAC5 JUMPI DUP5 PUSH1 0x1 PUSH1 0x1 PUSH1 0xA0 SHL SUB PUSH1 0x2 SLOAD AND DUP1 EXTCODESIZE ISZERO PUSH2 0x1BF JUMPI DUP2 SWAP1 PUSH1 0x64 PUSH1 0x40 MLOAD DUP1 SWAP5 DUP2 SWAP4 PUSH32 0x120CAD4500000000000000000000000000000000000000000000000000000000 DUP4 MSTORE CALLER PUSH1 0x4 DUP5 ADD MSTORE DUP9 PUSH1 0x24 DUP5 ADD MSTORE DUP8 PUSH1 0x44 DUP5 ADD MSTORE GAS CALL DUP1 ISZERO PUSH2 0xABA JUMPI PUSH2 0xAA6 JUMPI JUMPDEST POP JUMPDEST DUP5 JUMPDEST PUSH2 0x7E8 PUSH1 0x64 PUSH1 0x4 CALLDATALOAD ADD PUSH1 0x4 CALLDATALOAD PUSH1 0x4 ADD PUSH2 0xCDF JUMP JUMPDEST SWAP1 POP DUP2 LT ISZERO PUSH2 0x943 JUMPI PUSH2 0x805 PUSH1 0x64 PUSH1 0x4 CALLDATALOAD ADD PUSH1 0x4 CALLDATALOAD PUSH1 0x4 ADD PUSH2 0xCDF JUMP JUMPDEST DUP3 LT ISZERO PUSH2 0x92F JUMPI PUSH2 0x81D DUP8 SWAP2 CALLDATASIZE SWAP1 DUP5 PUSH1 0x6 SHL ADD PUSH2 0xC9F JUMP JUMPDEST DUP1 MLOAD PUSH1 0x1 PUSH1 0x1 PUSH1 0xA0 SHL SUB AND PUSH20 0xEEEEEEEEEEEEEEEEEEEEEEEEEEEEEEEEEEEEEEEE DUP2 SUB PUSH2 0x882 JUMPI POP POP DUP1 CALLVALUE ISZERO PUSH2 0x879 JUMPI JUMPDEST DUP2 DUP1 DUP1 SWAP3 CALLVALUE SWAP1 PUSH1 0x1 PUSH1 0x1 PUSH1 0xA0 SHL SUB DUP11 AND SWAP1 CALL ISZERO PUSH2 0x86E JUMPI PUSH1 0x1 SWAP1 JUMPDEST ADD PUSH2 0x7D4 JUMP JUMPDEST PUSH1 0x40 MLOAD RETURNDATASIZE DUP8 DUP3 RETURNDATACOPY RETURNDATASIZE SWAP1 REVERT JUMPDEST POP PUSH2 0x8FC PUSH2 0x84D JUMP JUMPDEST PUSH1 0x64 PUSH1 0x20 DUP1 SWAP4 ADD MLOAD PUSH1 0x40 MLOAD SWAP5 DUP6 SWAP4 DUP5 SWAP3 PUSH32 0x23B872DD00000000000000000000000000000000000000000000000000000000 DUP5 MSTORE CALLER PUSH1 0x4 DUP6 ADD MSTORE PUSH1 0x1 PUSH1 0x1 PUSH1 0xA0 SHL SUB DUP13 AND PUSH1 0x24 DUP6 ADD MSTORE PUSH1 0x44 DUP5 ADD MSTORE GAS CALL DUP1 ISZERO PUSH2 0x924 JUMPI PUSH2 0x8E5 JUMPI JUMPDEST POP PUSH1 0x1 SWAP1 PUSH2 0x868 JUMP JUMPDEST PUSH1 0x20 DUP2 RETURNDATASIZE DUP3 GT PUSH2 0x91C JUMPI JUMPDEST DUP2 PUSH2 0x8FD PUSH1 0x20 SWAP4 DUP4 PUSH2 0xC4F JUMP JUMPDEST DUP2 ADD SUB SLT PUSH2 0x918 JUMPI MLOAD DUP1 ISZERO ISZERO SUB PUSH2 0x914 JUMPI CODESIZE PUSH2 0x8DC JUMP JUMPDEST DUP6 DUP1 REVERT JUMPDEST DUP7 DUP1 REVERT JUMPDEST RETURNDATASIZE SWAP2 POP PUSH2 0x8F0 JUMP JUMPDEST PUSH1 0x40 MLOAD RETURNDATASIZE DUP10 DUP3 RETURNDATACOPY RETURNDATASIZE SWAP1 REVERT JUMPDEST PUSH1 0x24 DUP8 PUSH4 0x4E487B71 PUSH1 0xE0 SHL DUP2 MSTORE PUSH1 0x32 PUSH1 0x4 MSTORE REVERT JUMPDEST POP DUP5 DUP5 PUSH1 0x1 SLOAD SWAP4 PUSH1 0x24 PUSH1 0x4 CALLDATALOAD ADD CALLDATALOAD SWAP2 PUSH1 0x1 PUSH1 0x1 PUSH1 0xA0 SHL SUB DUP4 AND DUP1 SWAP4 SUB PUSH2 0x260 JUMPI PUSH2 0x977 PUSH1 0x64 PUSH1 0x4 CALLDATALOAD ADD PUSH1 0x4 CALLDATALOAD PUSH1 0x4 ADD PUSH2 0xCDF JUMP JUMPDEST SWAP1 SWAP3 PUSH1 0x22 NOT PUSH1 0x4 CALLDATALOAD CALLDATASIZE SUB ADD PUSH1 0x44 PUSH1 0x4 CALLDATALOAD ADD CALLDATALOAD SLT ISZERO PUSH2 0x914 JUMPI PUSH1 0x4 DUP4 ADD CALLDATALOAD CALLDATASIZE SUB PUSH1 0x24 DUP5 ADD SGT PUSH2 0x914 JUMPI DUP2 SWAP1 PUSH1 0x40 MLOAD SWAP6 PUSH2 0x140 DUP8 ADD SWAP2 DUP10 DUP9 MSTORE PUSH1 0x20 DUP9 ADD MSTORE PUSH20 0xEEEEEEEEEEEEEEEEEEEEEEEEEEEEEEEEEEEEEEEE PUSH1 0x40 DUP9 ADD MSTORE DUP10 PUSH1 0x60 DUP9 ADD MSTORE PUSH1 0x4 CALLDATALOAD PUSH1 0x4 ADD CALLDATALOAD PUSH1 0x80 DUP9 ADD MSTORE CALLER PUSH1 0xA0 DUP9 ADD MSTORE PUSH1 0xC0 DUP8 ADD MSTORE PUSH2 0x140 PUSH1 0xE0 DUP8 ADD MSTORE MSTORE PUSH2 0x160 DUP5 ADD SWAP3 SWAP1 DUP6 JUMPDEST DUP2 DUP2 LT PUSH2 0xA8B JUMPI POP POP POP SWAP2 PUSH2 0xA59 DUP2 SWAP3 PUSH32 0xD00EACC6EFDE56AFA76B4A4559B37E6F3FE7141311A16134B34E233B312D5D0C SWAP5 PUSH2 0xA42 PUSH2 0x100 DUP6 ADD PUSH1 0x84 PUSH1 0x4 CALLDATALOAD ADD CALLDATALOAD PUSH2 0xD3A JUMP JUMPDEST DUP4 DUP3 SUB PUSH2 0x120 DUP6 ADD MSTORE PUSH1 0x24 PUSH1 0x4 DUP3 ADD CALLDATALOAD SWAP2 ADD PUSH2 0xD5D JUMP JUMPDEST SUB SWAP1 LOG1 PUSH1 0x0 NOT DUP4 EQ PUSH2 0xA77 JUMPI POP PUSH1 0x1 PUSH1 0x20 SWAP3 ADD PUSH1 0x1 SSTORE PUSH1 0x40 MLOAD SWAP1 DUP2 MSTORE RETURN JUMPDEST DUP1 PUSH4 0x4E487B71 PUSH1 0xE0 SHL PUSH1 0x24 SWAP3 MSTORE PUSH1 0x11 PUSH1 0x4 MSTORE REVERT JUMPDEST SWAP1 SWAP2 SWAP4 PUSH1 0x40 PUSH2 0xA9C PUSH1 0x1 SWAP3 DUP8 PUSH2 0xD15 JUMP JUMPDEST SWAP6 ADD SWAP3 SWAP2 ADD PUSH2 0x9FC JUMP JUMPDEST DUP6 PUSH2 0xAB3 SWAP2 SWAP7 SWAP3 SWAP7 PUSH2 0xC4F JUMP JUMPDEST SWAP4 CODESIZE PUSH2 0x7D0 JUMP JUMPDEST PUSH1 0x40 MLOAD RETURNDATASIZE DUP9 DUP3 RETURNDATACOPY RETURNDATASIZE SWAP1 REVERT JUMPDEST PUSH1 0x84 PUSH1 0x40 MLOAD PUSH32 0x8C379A000000000000000000000000000000000000000000000000000000000 DUP2 MSTORE PUSH1 0x20 PUSH1 0x4 DUP3 ADD MSTORE PUSH1 0x30 PUSH1 0x24 DUP3 ADD MSTORE PUSH32 0x446F6E74207061737320696E20616E792076616C756520666F72205061794D61 PUSH1 0x44 DUP3 ADD MSTORE PUSH32 0x737465722E45544E43414C4C5F50415900000000000000000000000000000000 PUSH1 0x64 DUP3 ADD MSTORE REVERT JUMPDEST DUP2 CALLVALUE LT ISZERO PUSH2 0x7D2 JUMPI PUSH1 0x4 DUP6 PUSH32 0xE6B6589300000000000000000000000000000000000000000000000000000000 DUP2 MSTORE REVERT JUMPDEST SWAP1 SWAP2 POP PUSH1 0x20 DUP2 RETURNDATASIZE PUSH1 0x20 GT PUSH2 0xBA9 JUMPI JUMPDEST DUP2 PUSH2 0xB95 PUSH1 0x20 SWAP4 DUP4 PUSH2 0xC4F JUMP JUMPDEST DUP2 ADD SUB SLT PUSH2 0xBA5 JUMPI MLOAD SWAP1 CODESIZE PUSH2 0x75B JUMP JUMPDEST DUP5 DUP1 REVERT JUMPDEST RETURNDATASIZE SWAP2 POP PUSH2 0xB88 JUMP JUMPDEST DUP3 MLOAD DUP1 MLOAD PUSH1 0x1 PUSH1 0x1 PUSH1 0xA0 SHL SUB AND DUP6 MSTORE PUSH1 0x20 SWAP1 DUP2 ADD MLOAD DUP2 DUP7 ADD MSTORE PUSH1 0x40 SWAP1 SWAP5 ADD SWAP4 SWAP1 SWAP3 ADD SWAP2 PUSH1 0x1 ADD PUSH2 0x6E6 JUMP JUMPDEST DUP1 PUSH1 0x20 DUP1 SWAP3 DUP5 ADD ADD MLOAD PUSH2 0x120 DUP3 DUP10 ADD ADD MSTORE ADD PUSH2 0x6A8 JUMP JUMPDEST PUSH1 0x20 PUSH1 0x40 SWAP2 PUSH2 0xC02 CALLDATASIZE DUP6 PUSH2 0xC9F JUMP JUMPDEST DUP2 MSTORE ADD SWAP2 ADD SWAP1 PUSH2 0x61C JUMP JUMPDEST DUP10 DUP1 REVERT JUMPDEST PUSH1 0x24 DUP5 PUSH4 0x4E487B71 PUSH1 0xE0 SHL DUP2 MSTORE PUSH1 0x41 PUSH1 0x4 MSTORE REVERT JUMPDEST PUSH1 0x4 CALLDATALOAD SWAP1 PUSH1 0x1 PUSH1 0x1 PUSH1 0xA0 SHL SUB DUP3 AND DUP3 SUB PUSH2 0x498 JUMPI JUMP JUMPDEST CALLDATALOAD SWAP1 PUSH1 0x1 PUSH1 0x1 PUSH1 0xA0 SHL SUB DUP3 AND DUP3 SUB PUSH2 0x498 JUMPI JUMP JUMPDEST SWAP1 PUSH1 0x1F DUP1 NOT SWAP2 ADD AND DUP2 ADD SWAP1 DUP2 LT PUSH8 0xFFFFFFFFFFFFFFFF DUP3 GT OR PUSH2 0xC71 JUMPI PUSH1 0x40 MSTORE JUMP JUMPDEST PUSH4 0x4E487B71 PUSH1 0xE0 SHL PUSH1 0x0 MSTORE PUSH1 0x41 PUSH1 0x4 MSTORE PUSH1 0x24 PUSH1 0x0 REVERT JUMPDEST PUSH8 0xFFFFFFFFFFFFFFFF DUP2 GT PUSH2 0xC71 JUMPI PUSH1 0x5 SHL PUSH1 0x20 ADD SWAP1 JUMP JUMPDEST SWAP2 SWAP1 DUP3 PUSH1 0x40 SWAP2 SUB SLT PUSH2 0x498 JUMPI PUSH1 0x40 MLOAD PUSH1 0x40 DUP2 ADD DUP2 DUP2 LT PUSH8 0xFFFFFFFFFFFFFFFF DUP3 GT OR PUSH2 0xC71 JUMPI PUSH1 0x40 MSTORE PUSH1 0x20 DUP1 DUP3 SWAP5 PUSH2 0xCD6 DUP2 PUSH2 0xC3B JUMP JUMPDEST DUP5 MSTORE ADD CALLDATALOAD SWAP2 ADD MSTORE JUMP JUMPDEST SWAP1 CALLDATALOAD SWAP1 PUSH1 0x1E NOT DUP2 CALLDATASIZE SUB ADD DUP3 SLT ISZERO PUSH2 0x498 JUMPI ADD DUP1 CALLDATALOAD SWAP1 PUSH8 0xFFFFFFFFFFFFFFFF DUP3 GT PUSH2 0x498 JUMPI PUSH1 0x20 ADD SWAP2 DUP2 PUSH1 0x6 SHL CALLDATASIZE SUB DUP4 SGT PUSH2 0x498 JUMPI JUMP JUMPDEST SWAP1 PUSH1 0x20 PUSH1 0x40 SWAP3 PUSH1 0x1 PUSH1 0x1 PUSH1 0xA0 SHL SUB PUSH2 0xD2C DUP3 PUSH2 0xC3B JUMP JUMPDEST AND DUP4 MSTORE ADD CALLDATALOAD PUSH1 0x20 DUP3 ADD MSTORE ADD SWAP1 JUMP JUMPDEST SWAP1 PUSH1 0x2 DUP3 LT ISZERO PUSH2 0xD47 JUMPI MSTORE JUMP JUMPDEST PUSH4 0x4E487B71 PUSH1 0xE0 SHL PUSH1 0x0 MSTORE PUSH1 0x21 PUSH1 0x4 MSTORE PUSH1 0x24 PUSH1 0x0 REVERT JUMPDEST SWAP1 DUP1 PUSH1 0x20 SWAP4 SWAP3 DUP2 DUP5 MSTORE DUP5 DUP5 ADD CALLDATACOPY PUSH1 0x0 DUP3 DUP3 ADD DUP5 ADD MSTORE PUSH1 0x1F ADD PUSH1 0x1F NOT AND ADD ADD SWAP1 JUMP JUMPDEST DUP1 MLOAD DUP3 LT ISZERO PUSH2 0xD92 JUMPI PUSH1 0x20 SWAP2 PUSH1 0x5 SHL ADD ADD SWAP1 JUMP JUMPDEST PUSH4 0x4E487B71 PUSH1 0xE0 SHL PUSH1 0x0 MSTORE PUSH1 0x32 PUSH1 0x4 MSTORE PUSH1 0x24 PUSH1 0x0 REVERT JUMPDEST PUSH1 0x4 PUSH1 0x0 PUSH1 0x1 PUSH1 0x1 PUSH1 0xA0 SHL SUB PUSH1 0x3 SLOAD AND PUSH1 0x40 MLOAD SWAP3 DUP4 DUP1 SWAP3 PUSH32 0x816949B500000000000000000000000000000000000000000000000000000000 DUP3 MSTORE GAS STATICCALL SWAP1 DUP2 ISZERO PUSH2 0xEBA JUMPI PUSH1 0x0 SWAP2 PUSH2 0xE2A JUMPI JUMPDEST POP SWAP1 PUSH1 0x0 JUMPDEST DUP3 MLOAD DUP2 LT ISZERO PUSH2 0xE22 JUMPI DUP2 PUSH2 0xE0C DUP3 DUP6 PUSH2 0xD7E JUMP JUMPDEST MLOAD EQ PUSH2 0xE1A JUMPI PUSH1 0x1 ADD PUSH2 0xDF8 JUMP JUMPDEST POP POP POP PUSH1 0x1 SWAP1 JUMP JUMPDEST POP POP POP PUSH1 0x0 SWAP1 JUMP JUMPDEST RETURNDATASIZE DUP1 DUP4 DUP4 RETURNDATACOPY PUSH2 0xE39 DUP2 DUP4 PUSH2 0xC4F JUMP JUMPDEST DUP2 ADD SWAP1 PUSH1 0x20 DUP2 DUP4 SUB SLT PUSH2 0x1CE JUMPI DUP1 MLOAD SWAP1 PUSH8 0xFFFFFFFFFFFFFFFF DUP3 GT PUSH2 0x260 JUMPI ADD DUP2 PUSH1 0x1F DUP3 ADD SLT ISZERO PUSH2 0x1CE JUMPI DUP1 MLOAD SWAP1 PUSH2 0xE70 DUP3 PUSH2 0xC87 JUMP JUMPDEST SWAP4 PUSH2 0xE7E PUSH1 0x40 MLOAD SWAP6 DUP7 PUSH2 0xC4F JUMP JUMPDEST DUP3 DUP6 MSTORE PUSH1 0x20 DUP1 DUP7 ADD SWAP4 PUSH1 0x5 SHL DUP4 ADD ADD SWAP4 DUP5 GT PUSH2 0x290 JUMPI POP PUSH1 0x20 ADD SWAP1 JUMPDEST DUP3 DUP3 LT PUSH2 0xEAA JUMPI POP POP POP CODESIZE PUSH2 0xDF3 JUMP JUMPDEST DUP2 MLOAD DUP2 MSTORE PUSH1 0x20 SWAP2 DUP3 ADD SWAP2 ADD PUSH2 0xE9A JUMP JUMPDEST PUSH1 0x40 MLOAD RETURNDATASIZE PUSH1 0x0 DUP3 RETURNDATACOPY RETURNDATASIZE SWAP1 REVERT JUMPDEST PUSH1 0x4 SWAP1 PUSH1 0x0 PUSH1 0x1 PUSH1 0x1 PUSH1 0xA0 SHL SUB PUSH1 0x3 SLOAD AND PUSH1 0x40 MLOAD SWAP4 DUP5 DUP1 SWAP3 PUSH32 0xB002249D00000000000000000000000000000000000000000000000000000000 DUP3 MSTORE GAS STATICCALL SWAP2 DUP3 ISZERO PUSH2 0xEBA JUMPI PUSH1 0x0 SWAP3 PUSH2 0xF4A JUMPI JUMPDEST POP PUSH1 0x0 JUMPDEST DUP3 MLOAD DUP2 LT ISZERO PUSH2 0xE22 JUMPI PUSH1 0x1 PUSH1 0x1 PUSH1 0xA0 SHL SUB PUSH2 0xF31 DUP3 DUP6 PUSH2 0xD7E JUMP JUMPDEST MLOAD AND PUSH1 0x1 PUSH1 0x1 PUSH1 0xA0 SHL SUB DUP4 AND EQ PUSH2 0xE1A JUMPI PUSH1 0x1 ADD PUSH2 0xF16 JUMP JUMPDEST SWAP1 SWAP2 RETURNDATASIZE DUP1 DUP3 DUP5 RETURNDATACOPY PUSH2 0xF5B DUP2 DUP5 PUSH2 0xC4F JUMP JUMPDEST DUP3 ADD SWAP2 PUSH1 0x20 DUP2 DUP5 SUB SLT PUSH2 0x1BF JUMPI DUP1 MLOAD SWAP1 PUSH8 0xFFFFFFFFFFFFFFFF DUP3 GT PUSH2 0x1CE JUMPI ADD SWAP2 DUP1 PUSH1 0x1F DUP5 ADD SLT ISZERO PUSH2 0x1BF JUMPI DUP3 MLOAD SWAP2 PUSH2 0xF93 DUP4 PUSH2 0xC87 JUMP JUMPDEST SWAP4 PUSH2 0xFA1 PUSH1 0x40 MLOAD SWAP6 DUP7 PUSH2 0xC4F JUMP JUMPDEST DUP4 DUP6 MSTORE PUSH1 0x20 DUP1 DUP7 ADD SWAP5 PUSH1 0x5 SHL DUP3 ADD ADD SWAP3 DUP4 GT PUSH2 0x1BF JUMPI PUSH1 0x20 ADD SWAP3 JUMPDEST DUP3 DUP5 LT PUSH2 0xFCE JUMPI POP POP POP POP SWAP1 CODESIZE PUSH2 0xF12 JUMP JUMPDEST DUP4 MLOAD PUSH1 0x1 PUSH1 0x1 PUSH1 0xA0 SHL SUB DUP2 AND DUP2 SUB PUSH2 0x1CE JUMPI DUP2 MSTORE PUSH1 0x20 SWAP4 DUP5 ADD SWAP4 ADD PUSH2 0xFBC JUMP JUMPDEST SWAP1 DUP2 CALLDATALOAD DUP2 MSTORE PUSH1 0x20 DUP3 ADD CALLDATALOAD PUSH1 0x20 DUP3 ADD MSTORE PUSH1 0x1 PUSH1 0x1 PUSH1 0xA0 SHL SUB PUSH2 0x1011 PUSH1 0x40 DUP5 ADD PUSH2 0xC3B JUMP JUMPDEST AND PUSH1 0x40 DUP3 ADD MSTORE CALLDATASIZE DUP3 SWAP1 SUB PUSH1 0x1E NOT ADD SWAP2 PUSH1 0x60 DUP2 ADD CALLDATALOAD DUP4 DUP2 SLT ISZERO PUSH2 0x498 JUMPI DUP2 ADD PUSH1 0x20 DUP2 CALLDATALOAD SWAP2 ADD PUSH8 0xFFFFFFFFFFFFFFFF DUP3 GT PUSH2 0x498 JUMPI DUP2 CALLDATASIZE SUB DUP2 SGT PUSH2 0x498 JUMPI PUSH2 0x1062 SWAP2 PUSH1 0xC0 PUSH1 0x60 DUP7 ADD MSTORE PUSH1 0xC0 DUP6 ADD SWAP2 PUSH2 0xD5D JUMP JUMPDEST SWAP3 PUSH1 0x80 DUP3 ADD CALLDATALOAD SWAP1 DUP2 SLT ISZERO PUSH2 0x498 JUMPI DUP2 ADD PUSH1 0x20 DUP2 CALLDATALOAD SWAP2 ADD SWAP4 PUSH8 0xFFFFFFFFFFFFFFFF DUP3 GT PUSH2 0x498 JUMPI DUP2 PUSH1 0x6 SHL CALLDATASIZE SUB DUP6 SGT PUSH2 0x498 JUMPI DUP4 DUP2 SUB PUSH1 0x80 DUP6 ADD MSTORE DUP2 DUP2 MSTORE PUSH1 0x20 ADD SWAP4 SWAP1 PUSH1 0x0 JUMPDEST DUP2 DUP2 LT PUSH2 0x10CE JUMPI POP POP POP PUSH1 0xA0 ADD CALLDATALOAD PUSH1 0x2 DUP2 LT ISZERO PUSH2 0x498 JUMPI PUSH1 0xA0 PUSH2 0x10CB SWAP3 ADD SWAP1 PUSH2 0xD3A JUMP JUMPDEST SWAP1 JUMP JUMPDEST SWAP1 SWAP2 SWAP5 PUSH1 0x40 PUSH2 0x10DF PUSH1 0x1 SWAP3 DUP9 PUSH2 0xD15 JUMP JUMPDEST SWAP7 ADD SWAP3 SWAP2 ADD PUSH2 0x10A7 JUMP JUMPDEST PUSH1 0x1 PUSH1 0x1 PUSH1 0xA0 SHL SUB PUSH1 0x0 SLOAD AND CALLER SUB PUSH2 0x10FD JUMPI JUMP JUMPDEST PUSH32 0x118CDAA700000000000000000000000000000000000000000000000000000000 PUSH1 0x0 MSTORE CALLER PUSH1 0x4 MSTORE PUSH1 0x24 PUSH1 0x0 REVERT INVALID LOG2 PUSH5 0x6970667358 0x22 SLT KECCAK256 0x4E PUSH6 0x6ABA087F8E05 PUSH15 0x3D9F0491B8A593EA0C43DF1D15D0BF DUP2 SWAP12 INVALID 0xC2 ORIGIN LT CREATE SWAP2 PUSH5 0x736F6C6343 STOP ADDMOD SHR STOP CALLER "
        },
        "methodIdentifiers": {
          "estimateFee(uint256)": "127e8e4d",
          "isChainSupported(uint256)": "5221c1f0",
          "isTokenSupported(address)": "75151b63",
          "owner()": "8da5cb5b",
          "postMessage(address,(bytes32,uint256,address,bytes,(address,uint256)[],uint8),address)": "fc1d606d",
          "renounceOwnership()": "715018a6",
          "sendMessage((uint256,address,bytes,(address,uint256)[],uint8),address)": "0c840101",
          "transferOwnership(address)": "f2fde38b"
        }
      }
    }
  }
}