{
  "contracts/paymaster/ETNCallPay.sol": {
    "ETNCallPay": {
      "abi": [
        {
          "inputs": [
            {
              "internalType": "uint256",
              "name": "amount",
              "type": "uint256"
            }
          ],
          "name": "InsufficientAmount",
          "type": "error"
        },
        {
          "inputs": [
            {
              "internalType": "address",
              "name": "payer",
              "type": "address"
            }
          ],
          "name": "InvalidPayMaster",
          "type": "error"
        },
        {
          "inputs": [],
          "name": "OverflowAmount",
          "type": "error"
        },
        {
          "anonymous": false,
          "inputs": [
            {
              "indexed": false,
              "internalType": "address",
              "name": "dapp",
              "type": "address"
            },
            {
              "indexed": false,
              "internalType": "uint256",
              "name": "amount",
              "type": "uint256"
            }
          ],
          "name": "Deposit",
          "type": "event"
        },
        {
          "anonymous": false,
          "inputs": [
            {
              "indexed": false,
              "internalType": "address",
              "name": "dapp",
              "type": "address"
            },
            {
              "indexed": false,
              "internalType": "uint256",
              "name": "amount",
              "type": "uint256"
            },
            {
              "indexed": false,
              "internalType": "bytes32",
              "name": "messageId",
              "type": "bytes32"
            }
          ],
          "name": "PayGas",
          "type": "event"
        },
        {
          "anonymous": false,
          "inputs": [
            {
              "indexed": false,
              "internalType": "address",
              "name": "dapp",
              "type": "address"
            },
            {
              "indexed": false,
              "internalType": "uint256",
              "name": "amount",
              "type": "uint256"
            }
          ],
          "name": "Withdraw",
          "type": "event"
        },
        {
          "inputs": [
            {
              "internalType": "address",
              "name": "dapp",
              "type": "address"
            }
          ],
          "name": "balanceOf",
          "outputs": [
            {
              "internalType": "uint256",
              "name": "",
              "type": "uint256"
            }
          ],
          "stateMutability": "view",
          "type": "function"
        },
        {
          "inputs": [
            {
              "internalType": "address",
              "name": "dapp",
              "type": "address"
            }
          ],
          "name": "deposit",
          "outputs": [],
          "stateMutability": "payable",
          "type": "function"
        },
        {
          "inputs": [
            {
              "internalType": "address",
              "name": "dapp",
              "type": "address"
            },
            {
              "internalType": "uint256",
              "name": "amount",
              "type": "uint256"
            },
            {
              "internalType": "bytes32",
              "name": "messageId",
              "type": "bytes32"
            }
          ],
          "name": "payGas",
          "outputs": [],
          "stateMutability": "nonpayable",
          "type": "function"
        },
        {
          "inputs": [
            {
              "internalType": "address",
              "name": "dapp",
              "type": "address"
            },
            {
              "internalType": "uint256",
              "name": "amount",
              "type": "uint256"
            }
          ],
          "name": "withdraw",
          "outputs": [],
          "stateMutability": "nonpayable",
          "type": "function"
        }
      ],
      "evm": {
        "bytecode": {
          "linkReferences": {},
          "object": "6080806040523460225768056bc75e2d631000006001556104e090816100288239f35b600080fdfe6080604052600436101561001257600080fd5b60003560e01c8063120cad451461037c57806370a0823114610342578063f340fa01146102255763f3fef3a31461004857600080fd5b346102205760403660031901126102205761006161040d565b6024356001600160a01b0382166040516330374c3d60e11b8152602081600481855afa8015610160576001600160a01b0391600091610201575b501633036101d35780600052600060205281604060002054106101a5576020816004926000526000825260406000206100d5858254610423565b9055604051928380926330374c3d60e11b82525afa8015610160576000808481949382948391610176575b508290821561016c575b6001600160a01b031690f11561016057604080516001600160a01b03909316835260208301919091527f884edad9ce6fa2440d8a54cc123490eb96d2768479d49ff9c7366125a94243649190819081015b0390a1005b6040513d6000823e3d90fd5b6108fc915061010a565b610198915060203d60201161019e575b6101908183610453565b81019061048b565b38610100565b503d610186565b507f77b8dde30000000000000000000000000000000000000000000000000000000060005260045260246000fd5b7fab26abf0000000000000000000000000000000000000000000000000000000006000523360045260246000fd5b61021a915060203d60201161019e576101908183610453565b3861009b565b600080fd5b60203660031901126102205761023961040d565b6001600160a01b03811680600052600060205261025c6040600020543490610446565b60015410610318576040516330374c3d60e11b8152602081600481855afa8015610160576001600160a01b03916000916102f9575b501633036101d3577fe1fffcc4923d04b559f4d29a8bfc6cda04eb5b0d3c460751c2402c5c5cc9109c9161015b91600052600060205260406000206102d7348254610446565b9055604080516001600160a01b03909216825234602083015290918291820190565b610312915060203d60201161019e576101908183610453565b84610291565b7f4da6b0c10000000000000000000000000000000000000000000000000000000060005260046000fd5b34610220576020366003190112610220576001600160a01b0361036361040d565b1660005260006020526020604060002054604051908152f35b346102205760603660031901126102205761039561040d565b6001600160a01b03602435911680600052600060205281604060002054106101a557807ffea9da21606e4205832bcfc5d68aac8e4799bc3dedadc463e01cbe2510e52e6d92606092600052600060205260406000206103f5828254610423565b905560405191825260208201526044356040820152a1005b600435906001600160a01b038216820361022057565b9190820391821161043057565b634e487b7160e01b600052601160045260246000fd5b9190820180921161043057565b90601f8019910116810190811067ffffffffffffffff82111761047557604052565b634e487b7160e01b600052604160045260246000fd5b9081602091031261022057516001600160a01b0381168103610220579056fea2646970667358221220bcd19a1c57253f24f10ce65d3e7b652223bca0b88a9b219ced701cf4ca2854c764736f6c634300081c0033",
          "opcodes": "PUSH1 0x80 DUP1 PUSH1 0x40 MSTORE CALLVALUE PUSH1 0x22 JUMPI PUSH9 0x56BC75E2D63100000 PUSH1 0x1 SSTORE PUSH2 0x4E0 SWAP1 DUP2 PUSH2 0x28 DUP3 CODECOPY RETURN JUMPDEST PUSH1 0x0 DUP1 REVERT INVALID PUSH1 0x80 PUSH1 0x40 MSTORE PUSH1 0x4 CALLDATASIZE LT ISZERO PUSH2 0x12 JUMPI PUSH1 0x0 DUP1 REVERT JUMPDEST PUSH1 0x0 CALLDATALOAD PUSH1 0xE0 SHR DUP1 PUSH4 0x120CAD45 EQ PUSH2 0x37C JUMPI DUP1 PUSH4 0x70A08231 EQ PUSH2 0x342 JUMPI DUP1 PUSH4 0xF340FA01 EQ PUSH2 0x225 JUMPI PUSH4 0xF3FEF3A3 EQ PUSH2 0x48 JUMPI PUSH1 0x0 DUP1 REVERT JUMPDEST CALLVALUE PUSH2 0x220 JUMPI PUSH1 0x40 CALLDATASIZE PUSH1 0x3 NOT ADD SLT PUSH2 0x220 JUMPI PUSH2 0x61 PUSH2 0x40D JUMP JUMPDEST PUSH1 0x24 CALLDATALOAD PUSH1 0x1 PUSH1 0x1 PUSH1 0xA0 SHL SUB DUP3 AND PUSH1 0x40 MLOAD PUSH4 0x30374C3D PUSH1 0xE1 SHL DUP2 MSTORE PUSH1 0x20 DUP2 PUSH1 0x4 DUP2 DUP6 GAS STATICCALL DUP1 ISZERO PUSH2 0x160 JUMPI PUSH1 0x1 PUSH1 0x1 PUSH1 0xA0 SHL SUB SWAP2 PUSH1 0x0 SWAP2 PUSH2 0x201 JUMPI JUMPDEST POP AND CALLER SUB PUSH2 0x1D3 JUMPI DUP1 PUSH1 0x0 MSTORE PUSH1 0x0 PUSH1 0x20 MSTORE DUP2 PUSH1 0x40 PUSH1 0x0 KECCAK256 SLOAD LT PUSH2 0x1A5 JUMPI PUSH1 0x20 DUP2 PUSH1 0x4 SWAP3 PUSH1 0x0 MSTORE PUSH1 0x0 DUP3 MSTORE PUSH1 0x40 PUSH1 0x0 KECCAK256 PUSH2 0xD5 DUP6 DUP3 SLOAD PUSH2 0x423 JUMP JUMPDEST SWAP1 SSTORE PUSH1 0x40 MLOAD SWAP3 DUP4 DUP1 SWAP3 PUSH4 0x30374C3D PUSH1 0xE1 SHL DUP3 MSTORE GAS STATICCALL DUP1 ISZERO PUSH2 0x160 JUMPI PUSH1 0x0 DUP1 DUP5 DUP2 SWAP5 SWAP4 DUP3 SWAP5 DUP4 SWAP2 PUSH2 0x176 JUMPI JUMPDEST POP DUP3 SWAP1 DUP3 ISZERO PUSH2 0x16C JUMPI JUMPDEST PUSH1 0x1 PUSH1 0x1 PUSH1 0xA0 SHL SUB AND SWAP1 CALL ISZERO PUSH2 0x160 JUMPI PUSH1 0x40 DUP1 MLOAD PUSH1 0x1 PUSH1 0x1 PUSH1 0xA0 SHL SUB SWAP1 SWAP4 AND DUP4 MSTORE PUSH1 0x20 DUP4 ADD SWAP2 SWAP1 SWAP2 MSTORE PUSH32 0x884EDAD9CE6FA2440D8A54CC123490EB96D2768479D49FF9C7366125A9424364 SWAP2 SWAP1 DUP2 SWAP1 DUP2 ADD JUMPDEST SUB SWAP1 LOG1 STOP JUMPDEST PUSH1 0x40 MLOAD RETURNDATASIZE PUSH1 0x0 DUP3 RETURNDATACOPY RETURNDATASIZE SWAP1 REVERT JUMPDEST PUSH2 0x8FC SWAP2 POP PUSH2 0x10A JUMP JUMPDEST PUSH2 0x198 SWAP2 POP PUSH1 0x20 RETURNDATASIZE PUSH1 0x20 GT PUSH2 0x19E JUMPI JUMPDEST PUSH2 0x190 DUP2 DUP4 PUSH2 0x453 JUMP JUMPDEST DUP2 ADD SWAP1 PUSH2 0x48B JUMP JUMPDEST CODESIZE PUSH2 0x100 JUMP JUMPDEST POP RETURNDATASIZE PUSH2 0x186 JUMP JUMPDEST POP PUSH32 0x77B8DDE300000000000000000000000000000000000000000000000000000000 PUSH1 0x0 MSTORE PUSH1 0x4 MSTORE PUSH1 0x24 PUSH1 0x0 REVERT JUMPDEST PUSH32 0xAB26ABF000000000000000000000000000000000000000000000000000000000 PUSH1 0x0 MSTORE CALLER PUSH1 0x4 MSTORE PUSH1 0x24 PUSH1 0x0 REVERT JUMPDEST PUSH2 0x21A SWAP2 POP PUSH1 0x20 RETURNDATASIZE PUSH1 0x20 GT PUSH2 0x19E JUMPI PUSH2 0x190 DUP2 DUP4 PUSH2 0x453 JUMP JUMPDEST CODESIZE PUSH2 0x9B JUMP JUMPDEST PUSH1 0x0 DUP1 REVERT JUMPDEST PUSH1 0x20 CALLDATASIZE PUSH1 0x3 NOT ADD SLT PUSH2 0x220 JUMPI PUSH2 0x239 PUSH2 0x40D JUMP JUMPDEST PUSH1 0x1 PUSH1 0x1 PUSH1 0xA0 SHL SUB DUP2 AND DUP1 PUSH1 0x0 MSTORE PUSH1 0x0 PUSH1 0x20 MSTORE PUSH2 0x25C PUSH1 0x40 PUSH1 0x0 KECCAK256 SLOAD CALLVALUE SWAP1 PUSH2 0x446 JUMP JUMPDEST PUSH1 0x1 SLOAD LT PUSH2 0x318 JUMPI PUSH1 0x40 MLOAD PUSH4 0x30374C3D PUSH1 0xE1 SHL DUP2 MSTORE PUSH1 0x20 DUP2 PUSH1 0x4 DUP2 DUP6 GAS STATICCALL DUP1 ISZERO PUSH2 0x160 JUMPI PUSH1 0x1 PUSH1 0x1 PUSH1 0xA0 SHL SUB SWAP2 PUSH1 0x0 SWAP2 PUSH2 0x2F9 JUMPI JUMPDEST POP AND CALLER SUB PUSH2 0x1D3 JUMPI PUSH32 0xE1FFFCC4923D04B559F4D29A8BFC6CDA04EB5B0D3C460751C2402C5C5CC9109C SWAP2 PUSH2 0x15B SWAP2 PUSH1 0x0 MSTORE PUSH1 0x0 PUSH1 0x20 MSTORE PUSH1 0x40 PUSH1 0x0 KECCAK256 PUSH2 0x2D7 CALLVALUE DUP3 SLOAD PUSH2 0x446 JUMP JUMPDEST SWAP1 SSTORE PUSH1 0x40 DUP1 MLOAD PUSH1 0x1 PUSH1 0x1 PUSH1 0xA0 SHL SUB SWAP1 SWAP3 AND DUP3 MSTORE CALLVALUE PUSH1 0x20 DUP4 ADD MSTORE SWAP1 SWAP2 DUP3 SWAP2 DUP3 ADD SWAP1 JUMP JUMPDEST PUSH2 0x312 SWAP2 POP PUSH1 0x20 RETURNDATASIZE PUSH1 0x20 GT PUSH2 0x19E JUMPI PUSH2 0x190 DUP2 DUP4 PUSH2 0x453 JUMP JUMPDEST DUP5 PUSH2 0x291 JUMP JUMPDEST PUSH32 0x4DA6B0C100000000000000000000000000000000000000000000000000000000 PUSH1 0x0 MSTORE PUSH1 0x4 PUSH1 0x0 REVERT JUMPDEST CALLVALUE PUSH2 0x220 JUMPI PUSH1 0x20 CALLDATASIZE PUSH1 0x3 NOT ADD SLT PUSH2 0x220 JUMPI PUSH1 0x1 PUSH1 0x1 PUSH1 0xA0 SHL SUB PUSH2 0x363 PUSH2 0x40D JUMP JUMPDEST AND PUSH1 0x0 MSTORE PUSH1 0x0 PUSH1 0x20 MSTORE PUSH1 0x20 PUSH1 0x40 PUSH1 0x0 KECCAK256 SLOAD PUSH1 0x40 MLOAD SWAP1 DUP2 MSTORE RETURN JUMPDEST CALLVALUE PUSH2 0x220 JUMPI PUSH1 0x60 CALLDATASIZE PUSH1 0x3 NOT ADD SLT PUSH2 0x220 JUMPI PUSH2 0x395 PUSH2 0x40D JUMP JUMPDEST PUSH1 0x1 PUSH1 0x1 PUSH1 0xA0 SHL SUB PUSH1 0x24 CALLDATALOAD SWAP2 AND DUP1 PUSH1 0x0 MSTORE PUSH1 0x0 PUSH1 0x20 MSTORE DUP2 PUSH1 0x40 PUSH1 0x0 KECCAK256 SLOAD LT PUSH2 0x1A5 JUMPI DUP1 PUSH32 0xFEA9DA21606E4205832BCFC5D68AAC8E4799BC3DEDADC463E01CBE2510E52E6D SWAP3 PUSH1 0x60 SWAP3 PUSH1 0x0 MSTORE PUSH1 0x0 PUSH1 0x20 MSTORE PUSH1 0x40 PUSH1 0x0 KECCAK256 PUSH2 0x3F5 DUP3 DUP3 SLOAD PUSH2 0x423 JUMP JUMPDEST SWAP1 SSTORE PUSH1 0x40 MLOAD SWAP2 DUP3 MSTORE PUSH1 0x20 DUP3 ADD MSTORE PUSH1 0x44 CALLDATALOAD PUSH1 0x40 DUP3 ADD MSTORE LOG1 STOP JUMPDEST PUSH1 0x4 CALLDATALOAD SWAP1 PUSH1 0x1 PUSH1 0x1 PUSH1 0xA0 SHL SUB DUP3 AND DUP3 SUB PUSH2 0x220 JUMPI JUMP JUMPDEST SWAP2 SWAP1 DUP3 SUB SWAP2 DUP3 GT PUSH2 0x430 JUMPI JUMP JUMPDEST PUSH4 0x4E487B71 PUSH1 0xE0 SHL PUSH1 0x0 MSTORE PUSH1 0x11 PUSH1 0x4 MSTORE PUSH1 0x24 PUSH1 0x0 REVERT JUMPDEST SWAP2 SWAP1 DUP3 ADD DUP1 SWAP3 GT PUSH2 0x430 JUMPI JUMP JUMPDEST SWAP1 PUSH1 0x1F DUP1 NOT SWAP2 ADD AND DUP2 ADD SWAP1 DUP2 LT PUSH8 0xFFFFFFFFFFFFFFFF DUP3 GT OR PUSH2 0x475 JUMPI PUSH1 0x40 MSTORE JUMP JUMPDEST PUSH4 0x4E487B71 PUSH1 0xE0 SHL PUSH1 0x0 MSTORE PUSH1 0x41 PUSH1 0x4 MSTORE PUSH1 0x24 PUSH1 0x0 REVERT JUMPDEST SWAP1 DUP2 PUSH1 0x20 SWAP2 SUB SLT PUSH2 0x220 JUMPI MLOAD PUSH1 0x1 PUSH1 0x1 PUSH1 0xA0 SHL SUB DUP2 AND DUP2 SUB PUSH2 0x220 JUMPI SWAP1 JUMP INVALID LOG2 PUSH5 0x6970667358 0x22 SLT KECCAK256 0xBC 0xD1 SWAP11 SHR JUMPI 0x25 EXTCODEHASH 0x24 CALL 0xC 0xE6 TSTORE RETURNDATACOPY PUSH28 0x652223BCA0B88A9B219CED701CF4CA2854C764736F6C634300081C00 CALLER "
        },
        "methodIdentifiers": {
          "balanceOf(address)": "70a08231",
          "deposit(address)": "f340fa01",
          "payGas(address,uint256,bytes32)": "120cad45",
          "withdraw(address,uint256)": "f3fef3a3"
        }
      }
    }
  }
}