{
  "_format": "hh-sol-artifact-1",
  "contractName": "ETNCallPay",
  "sourceName": "contracts/paymaster/ETNCallPay.sol",
  "abi": [
    {
      "inputs": [
        {
          "internalType": "uint256",
          "name": "amount",
          "type": "uint256"
        }
      ],
      "name": "InsufficientAmount",
      "type": "error"
    },
    {
      "inputs": [
        {
          "internalType": "address",
          "name": "payer",
          "type": "address"
        }
      ],
      "name": "InvalidPayMaster",
      "type": "error"
    },
    {
      "inputs": [],
      "name": "OverflowAmount",
      "type": "error"
    },
    {
      "anonymous": false,
      "inputs": [
        {
          "indexed": false,
          "internalType": "address",
          "name": "dapp",
          "type": "address"
        },
        {
          "indexed": false,
          "internalType": "uint256",
          "name": "amount",
          "type": "uint256"
        }
      ],
      "name": "Deposit",
      "type": "event"
    },
    {
      "anonymous": false,
      "inputs": [
        {
          "indexed": false,
          "internalType": "address",
          "name": "dapp",
          "type": "address"
        },
        {
          "indexed": false,
          "internalType": "uint256",
          "name": "amount",
          "type": "uint256"
        },
        {
          "indexed": false,
          "internalType": "bytes32",
          "name": "messageId",
          "type": "bytes32"
        }
      ],
      "name": "PayGas",
      "type": "event"
    },
    {
      "anonymous": false,
      "inputs": [
        {
          "indexed": false,
          "internalType": "address",
          "name": "dapp",
          "type": "address"
        },
        {
          "indexed": false,
          "internalType": "uint256",
          "name": "amount",
          "type": "uint256"
        }
      ],
      "name": "Withdraw",
      "type": "event"
    },
    {
      "inputs": [
        {
          "internalType": "address",
          "name": "dapp",
          "type": "address"
        }
      ],
      "name": "balanceOf",
      "outputs": [
        {
          "internalType": "uint256",
          "name": "",
          "type": "uint256"
        }
      ],
      "stateMutability": "view",
      "type": "function"
    },
    {
      "inputs": [
        {
          "internalType": "address",
          "name": "dapp",
          "type": "address"
        }
      ],
      "name": "deposit",
      "outputs": [],
      "stateMutability": "payable",
      "type": "function"
    },
    {
      "inputs": [
        {
          "internalType": "address",
          "name": "dapp",
          "type": "address"
        },
        {
          "internalType": "uint256",
          "name": "amount",
          "type": "uint256"
        },
        {
          "internalType": "bytes32",
          "name": "messageId",
          "type": "bytes32"
        }
      ],
      "name": "payGas",
      "outputs": [],
      "stateMutability": "nonpayable",
      "type": "function"
    },
    {
      "inputs": [
        {
          "internalType": "address",
          "name": "dapp",
          "type": "address"
        },
        {
          "internalType": "uint256",
          "name": "amount",
          "type": "uint256"
        }
      ],
      "name": "withdraw",
      "outputs": [],
      "stateMutability": "nonpayable",
      "type": "function"
    }
  ],
  "bytecode": "0x6080806040523460225768056bc75e2d631000006001556104e090816100288239f35b600080fdfe6080604052600436101561001257600080fd5b60003560e01c8063120cad451461037c57806370a0823114610342578063f340fa01146102255763f3fef3a31461004857600080fd5b346102205760403660031901126102205761006161040d565b6024356001600160a01b0382166040516330374c3d60e11b8152602081600481855afa8015610160576001600160a01b0391600091610201575b501633036101d35780600052600060205281604060002054106101a5576020816004926000526000825260406000206100d5858254610423565b9055604051928380926330374c3d60e11b82525afa8015610160576000808481949382948391610176575b508290821561016c575b6001600160a01b031690f11561016057604080516001600160a01b03909316835260208301919091527f884edad9ce6fa2440d8a54cc123490eb96d2768479d49ff9c7366125a94243649190819081015b0390a1005b6040513d6000823e3d90fd5b6108fc915061010a565b610198915060203d60201161019e575b6101908183610453565b81019061048b565b38610100565b503d610186565b507f77b8dde30000000000000000000000000000000000000000000000000000000060005260045260246000fd5b7fab26abf0000000000000000000000000000000000000000000000000000000006000523360045260246000fd5b61021a915060203d60201161019e576101908183610453565b3861009b565b600080fd5b60203660031901126102205761023961040d565b6001600160a01b03811680600052600060205261025c6040600020543490610446565b60015410610318576040516330374c3d60e11b8152602081600481855afa8015610160576001600160a01b03916000916102f9575b501633036101d3577fe1fffcc4923d04b559f4d29a8bfc6cda04eb5b0d3c460751c2402c5c5cc9109c9161015b91600052600060205260406000206102d7348254610446565b9055604080516001600160a01b03909216825234602083015290918291820190565b610312915060203d60201161019e576101908183610453565b84610291565b7f4da6b0c10000000000000000000000000000000000000000000000000000000060005260046000fd5b34610220576020366003190112610220576001600160a01b0361036361040d565b1660005260006020526020604060002054604051908152f35b346102205760603660031901126102205761039561040d565b6001600160a01b03602435911680600052600060205281604060002054106101a557807ffea9da21606e4205832bcfc5d68aac8e4799bc3dedadc463e01cbe2510e52e6d92606092600052600060205260406000206103f5828254610423565b905560405191825260208201526044356040820152a1005b600435906001600160a01b038216820361022057565b9190820391821161043057565b634e487b7160e01b600052601160045260246000fd5b9190820180921161043057565b90601f8019910116810190811067ffffffffffffffff82111761047557604052565b634e487b7160e01b600052604160045260246000fd5b9081602091031261022057516001600160a01b0381168103610220579056fea2646970667358221220bcd19a1c57253f24f10ce65d3e7b652223bca0b88a9b219ced701cf4ca2854c764736f6c634300081c0033",
  "linkReferences": {},
  "deployedLinkReferences": {}
}