{
  "_format": "hh-sol-artifact-1",
  "contractName": "ETNCallConfig",
  "sourceName": "contracts/ETNCallConfig.sol",
  "abi": [
    {
      "inputs": [],
      "stateMutability": "nonpayable",
      "type": "constructor"
    },
    {
      "inputs": [
        {
          "internalType": "uint256",
          "name": "amount",
          "type": "uint256"
        }
      ],
      "name": "InvalidAmount",
      "type": "error"
    },
    {
      "inputs": [
        {
          "internalType": "uint256",
          "name": "chainId",
          "type": "uint256"
        }
      ],
      "name": "InvalidChainId",
      "type": "error"
    },
    {
      "inputs": [
        {
          "internalType": "address",
          "name": "owner",
          "type": "address"
        }
      ],
      "name": "OwnableInvalidOwner",
      "type": "error"
    },
    {
      "inputs": [
        {
          "internalType": "address",
          "name": "account",
          "type": "address"
        }
      ],
      "name": "OwnableUnauthorizedAccount",
      "type": "error"
    },
    {
      "anonymous": false,
      "inputs": [
        {
          "indexed": true,
          "internalType": "address",
          "name": "previousOwner",
          "type": "address"
        },
        {
          "indexed": true,
          "internalType": "address",
          "name": "newOwner",
          "type": "address"
        }
      ],
      "name": "OwnershipTransferred",
      "type": "event"
    },
    {
      "anonymous": false,
      "inputs": [
        {
          "indexed": false,
          "internalType": "uint256",
          "name": "chainId",
          "type": "uint256"
        },
        {
          "indexed": false,
          "internalType": "address",
          "name": "tokenId",
          "type": "address"
        },
        {
          "indexed": false,
          "internalType": "address",
          "name": "chainTokenId",
          "type": "address"
        }
      ],
      "name": "SetChainTokenId",
      "type": "event"
    },
    {
      "anonymous": false,
      "inputs": [
        {
          "indexed": false,
          "internalType": "uint256",
          "name": "toChainId",
          "type": "uint256"
        },
        {
          "indexed": false,
          "internalType": "uint256",
          "name": "amount",
          "type": "uint256"
        }
      ],
      "name": "SetFee",
      "type": "event"
    },
    {
      "anonymous": false,
      "inputs": [
        {
          "indexed": false,
          "internalType": "uint256[]",
          "name": "chains",
          "type": "uint256[]"
        }
      ],
      "name": "SupportedChains",
      "type": "event"
    },
    {
      "anonymous": false,
      "inputs": [
        {
          "indexed": false,
          "internalType": "address[]",
          "name": "chains",
          "type": "address[]"
        }
      ],
      "name": "SupportedTokens",
      "type": "event"
    },
    {
      "inputs": [
        {
          "internalType": "uint256",
          "name": "chainId",
          "type": "uint256"
        },
        {
          "internalType": "address",
          "name": "tokenId",
          "type": "address"
        }
      ],
      "name": "getChainTokenId",
      "outputs": [
        {
          "internalType": "address",
          "name": "",
          "type": "address"
        }
      ],
      "stateMutability": "view",
      "type": "function"
    },
    {
      "inputs": [
        {
          "internalType": "uint256",
          "name": "toChainId",
          "type": "uint256"
        }
      ],
      "name": "getFee",
      "outputs": [
        {
          "internalType": "uint256",
          "name": "",
          "type": "uint256"
        }
      ],
      "stateMutability": "view",
      "type": "function"
    },
    {
      "inputs": [],
      "name": "owner",
      "outputs": [
        {
          "internalType": "address",
          "name": "",
          "type": "address"
        }
      ],
      "stateMutability": "view",
      "type": "function"
    },
    {
      "inputs": [],
      "name": "renounceOwnership",
      "outputs": [],
      "stateMutability": "nonpayable",
      "type": "function"
    },
    {
      "inputs": [
        {
          "internalType": "uint256",
          "name": "chainId",
          "type": "uint256"
        },
        {
          "internalType": "address",
          "name": "tokenId",
          "type": "address"
        },
        {
          "internalType": "address",
          "name": "chainTokenId",
          "type": "address"
        }
      ],
      "name": "setChainTokenId",
      "outputs": [],
      "stateMutability": "nonpayable",
      "type": "function"
    },
    {
      "inputs": [
        {
          "internalType": "uint256",
          "name": "toChainId",
          "type": "uint256"
        },
        {
          "internalType": "uint256",
          "name": "amount",
          "type": "uint256"
        }
      ],
      "name": "setFee",
      "outputs": [],
      "stateMutability": "nonpayable",
      "type": "function"
    },
    {
      "inputs": [],
      "name": "supportedChains",
      "outputs": [
        {
          "internalType": "uint256[]",
          "name": "",
          "type": "uint256[]"
        }
      ],
      "stateMutability": "view",
      "type": "function"
    },
    {
      "inputs": [],
      "name": "supportedTokens",
      "outputs": [
        {
          "internalType": "address[]",
          "name": "",
          "type": "address[]"
        }
      ],
      "stateMutability": "view",
      "type": "function"
    },
    {
      "inputs": [
        {
          "internalType": "address",
          "name": "newOwner",
          "type": "address"
        }
      ],
      "name": "transferOwnership",
      "outputs": [],
      "stateMutability": "nonpayable",
      "type": "function"
    },
    {
      "inputs": [
        {
          "internalType": "uint256[]",
          "name": "chains",
          "type": "uint256[]"
        }
      ],
      "name": "updateSupportedChains",
      "outputs": [],
      "stateMutability": "nonpayable",
      "type": "function"
    },
    {
      "inputs": [
        {
          "internalType": "address[]",
          "name": "tokens",
          "type": "address[]"
        }
      ],
      "name": "updateSupportedTokens",
      "outputs": [],
      "stateMutability": "nonpayable",
      "type": "function"
    }
  ],
  "bytecode": "0x608080604052346075573315605f5760008054336001600160a01b0319821681178355916001600160a01b03909116907f8be0079c531659141344cd1fd0a4f28419497f9722a3daafe3b4186f6b6457e09080a3610962908161007b8239f35b631e4fbdf760e01b600052600060045260246000fd5b600080fdfe6080604052600436101561001257600080fd5b60003560e01c80634cb30ee81461075357806352f7c9881461068c5780636af405f614610508578063715018a6146104a2578063816949b51461041f5780638da5cb5b146103f85780639fea73771461025a578063b002249d146101ca578063f2fde38b14610118578063fb0d2b50146100c65763fcee45f41461009557600080fd5b346100c15760203660031901126100c15760043560005260016020526020604060002054604051908152f35b600080fd5b346100c15760403660031901126100c1576100df610806565b60043560005260026020526001600160a01b036040600020911660005260205260206001600160a01b0360406000205416604051908152f35b346100c15760203660031901126100c1576004356001600160a01b0381168091036100c1576101456108ea565b801561019b576001600160a01b036000548273ffffffffffffffffffffffffffffffffffffffff19821617600055167f8be0079c531659141344cd1fd0a4f28419497f9722a3daafe3b4186f6b6457e0600080a3005b7f1e4fbdf700000000000000000000000000000000000000000000000000000000600052600060045260246000fd5b346100c15760003660031901126100c15760405180602060045491828152019060046000527f8a35acfbc15ff81a39ae7d344fd709f28e8600b4aa8c65c6b64bfe7fe36bd19b9060005b81811061023b576102378561022b8187038261081c565b60405191829182610890565b0390f35b82546001600160a01b0316845260209093019260019283019201610214565b346100c15760203660031901126100c15760043567ffffffffffffffff81116100c157366023820112156100c15780600401356102968161083e565b916102a4604051938461081c565b818352602083016024819360051b830101913683116100c157602401905b8282106103e8575050506102d46108ea565b81519067ffffffffffffffff82116103b9576801000000000000000082116103b9576003548260035580831061037e575b50600360005260005b82811061034a576040517f56aef294adb176650719ad99c27cf178915205af226a58c6f0e4c9bacc1b746690806103458782610856565b0390a1005b60019060208351930192817fc2575a0e9e593c00f959f8c92f12db2869c3395a3b0502d05e2516446f71f85b01550161030e565b60036000526103b3907fc2575a0e9e593c00f959f8c92f12db2869c3395a3b0502d05e2516446f71f85b9081019084016108d3565b83610305565b7f4e487b7100000000000000000000000000000000000000000000000000000000600052604160045260246000fd5b81358152602091820191016102c2565b346100c15760003660031901126100c15760206001600160a01b0360005416604051908152f35b346100c15760003660031901126100c15760405180602060035491828152019060036000527fc2575a0e9e593c00f959f8c92f12db2869c3395a3b0502d05e2516446f71f85b9060005b81811061048c57610237856104808187038261081c565b60405191829182610856565b8254845260209093019260019283019201610469565b346100c15760003660031901126100c1576104bb6108ea565b60006001600160a01b03815473ffffffffffffffffffffffffffffffffffffffff1981168355167f8be0079c531659141344cd1fd0a4f28419497f9722a3daafe3b4186f6b6457e08280a3005b346100c15760203660031901126100c15760043567ffffffffffffffff81116100c157366023820112156100c15780600401356105448161083e565b91610552604051938461081c565b81835260208301906024829360051b820101903682116100c157602401915b81831061066c575050506105836108ea565b81519067ffffffffffffffff82116103b9576801000000000000000082116103b95760045482600455808310610631575b50600460005260005b8281106105f4576040517f023c0bbef93212a062a8b51d82c40fb6d8396cedf38372bf67778810697c7b2990806103458782610890565b60019060206001600160a01b03845116930192817f8a35acfbc15ff81a39ae7d344fd709f28e8600b4aa8c65c6b64bfe7fe36bd19b0155016105bd565b6004600052610666907f8a35acfbc15ff81a39ae7d344fd709f28e8600b4aa8c65c6b64bfe7fe36bd19b9081019084016108d3565b836105b4565b82356001600160a01b03811681036100c157815260209283019201610571565b346100c15760403660031901126100c1576004356024356106ab6108ea565b80156107265781156106f857816040917f032dc6a2d839eb179729a55633fdf1c41a1fc4739394154117005db2b354b9b593600052600160205280836000205582519182526020820152a1005b507f331003b30000000000000000000000000000000000000000000000000000000060005260045260246000fd5b7f3728b83d0000000000000000000000000000000000000000000000000000000060005260045260246000fd5b346100c15760603660031901126100c15760043561076f610806565b604435916001600160a01b0383168093036100c1577f1cffd3e976bc822e6df68a8d7cc8fc412365a73b3a4abb6df213f4af9ba8d4ad926001600160a01b036060936107b96108ea565b836000526002602052604060002082821660005260205260406000208373ffffffffffffffffffffffffffffffffffffffff198254161790556040519384521660208301526040820152a1005b602435906001600160a01b03821682036100c157565b90601f8019910116810190811067ffffffffffffffff8211176103b957604052565b67ffffffffffffffff81116103b95760051b60200190565b602060408183019282815284518094520192019060005b81811061087a5750505090565b825184526020938401939092019160010161086d565b602060408183019282815284518094520192019060005b8181106108b45750505090565b82516001600160a01b03168452602093840193909201916001016108a7565b8181106108de575050565b600081556001016108d3565b6001600160a01b036000541633036108fe57565b7f118cdaa7000000000000000000000000000000000000000000000000000000006000523360045260246000fdfea2646970667358221220d8bf9f854049c9807d579e3e8c147e54282d53cc8296b693ffde6c6f6aa4863764736f6c634300081c0033",
  "linkReferences": {},
  "deployedLinkReferences": {}
}