{
  "_format": "hh-sol-artifact-1",
  "contractName": "TokenPool",
  "sourceName": "contracts/pool/TokenPool.sol",
  "abi": [
    {
      "inputs": [
        {
          "internalType": "address",
          "name": "config_",
          "type": "address"
        },
        {
          "internalType": "address",
          "name": "etnCall_",
          "type": "address"
        }
      ],
      "stateMutability": "nonpayable",
      "type": "constructor"
    },
    {
      "inputs": [
        {
          "internalType": "address",
          "name": "router",
          "type": "address"
        }
      ],
      "name": "InvalidRouter",
      "type": "error"
    },
    {
      "inputs": [
        {
          "internalType": "address",
          "name": "owner",
          "type": "address"
        }
      ],
      "name": "OwnableInvalidOwner",
      "type": "error"
    },
    {
      "inputs": [
        {
          "internalType": "address",
          "name": "account",
          "type": "address"
        }
      ],
      "name": "OwnableUnauthorizedAccount",
      "type": "error"
    },
    {
      "anonymous": false,
      "inputs": [
        {
          "indexed": true,
          "internalType": "address",
          "name": "previousOwner",
          "type": "address"
        },
        {
          "indexed": true,
          "internalType": "address",
          "name": "newOwner",
          "type": "address"
        }
      ],
      "name": "OwnershipTransferred",
      "type": "event"
    },
    {
      "inputs": [],
      "name": "owner",
      "outputs": [
        {
          "internalType": "address",
          "name": "",
          "type": "address"
        }
      ],
      "stateMutability": "view",
      "type": "function"
    },
    {
      "inputs": [],
      "name": "renounceOwnership",
      "outputs": [],
      "stateMutability": "nonpayable",
      "type": "function"
    },
    {
      "inputs": [
        {
          "internalType": "address",
          "name": "newOwner",
          "type": "address"
        }
      ],
      "name": "transferOwnership",
      "outputs": [],
      "stateMutability": "nonpayable",
      "type": "function"
    },
    {
      "inputs": [
        {
          "internalType": "address",
          "name": "to",
          "type": "address"
        },
        {
          "components": [
            {
              "internalType": "bytes32",
              "name": "messageId",
              "type": "bytes32"
            },
            {
              "internalType": "uint256",
              "name": "fromChainId",
              "type": "uint256"
            },
            {
              "internalType": "address",
              "name": "sender",
              "type": "address"
            },
            {
              "internalType": "bytes",
              "name": "payload",
              "type": "bytes"
            },
            {
              "components": [
                {
                  "internalType": "address",
                  "name": "tokenId",
                  "type": "address"
                },
                {
                  "internalType": "uint256",
                  "name": "amount",
                  "type": "uint256"
                }
              ],
              "internalType": "struct Data.Token[]",
              "name": "tokens",
              "type": "tuple[]"
            },
            {
              "internalType": "enum Data.PayMaster",
              "name": "payMaster",
              "type": "uint8"
            }
          ],
          "internalType": "struct Data.IncomingMessage",
          "name": "message",
          "type": "tuple"
        }
      ],
      "name": "withdrawTo",
      "outputs": [],
      "stateMutability": "nonpayable",
      "type": "function"
    }
  ],
  "bytecode": "0x60a03461011557601f6106a038819003918201601f19168301916001600160401b0383118484101761011a57808492604094855283398101031261011557610052602061004b83610130565b9201610130565b9033156100ff5760008054336001600160a01b0319821681178355604051949290916001600160a01b0316907f8be0079c531659141344cd1fd0a4f28419497f9722a3daafe3b4186f6b6457e09080a36001600160a01b038116156100e957608052600180546001600160a01b0319166001600160a01b039290921691909117905561055b90816101458239608051816101d30152f35b6335fdcccd60e21b600052600060045260246000fd5b631e4fbdf760e01b600052600060045260246000fd5b600080fd5b634e487b7160e01b600052604160045260246000fd5b51906001600160a01b03821682036101155756fe6080604052600436101561001257600080fd5b60003560e01c806325ed576d14610189578063715018a6146101235780638da5cb5b146100fc5763f2fde38b1461004857600080fd5b346100f75760203660031901126100f7576001600160a01b03610069610475565b6100716104e3565b1680156100c8576001600160a01b036000548273ffffffffffffffffffffffffffffffffffffffff19821617600055167f8be0079c531659141344cd1fd0a4f28419497f9722a3daafe3b4186f6b6457e0600080a3005b7f1e4fbdf700000000000000000000000000000000000000000000000000000000600052600060045260246000fd5b600080fd5b346100f75760003660031901126100f75760206001600160a01b0360005416604051908152f35b346100f75760003660031901126100f75761013c6104e3565b60006001600160a01b03815473ffffffffffffffffffffffffffffffffffffffff1981168355167f8be0079c531659141344cd1fd0a4f28419497f9722a3daafe3b4186f6b6457e08280a3005b346100f75760403660031901126100f7576101a2610475565b6024359067ffffffffffffffff82116100f757816004019160c060031982360301126100f757336001600160a01b037f000000000000000000000000000000000000000000000000000000000000000016036104475791600090602460848501940135915b610211858361048b565b905081101561044557610224858361048b565b82101561042f578160061b016040813603126100f7576040516040810181811067ffffffffffffffff821117610419576040528135906001600160a01b038216918281036100f757816020929183925201920135825260206001600160a01b0360015416916044604051809481937ffb0d2b500000000000000000000000000000000000000000000000000000000083528a600484015260248301525afa908115610323576000916103ca575b50600091906001600160a01b031673eeeeeeeeeeeeeeeeeeeeeeeeeeeeeeeeeeeeeeee81036103385750818080925181811561032f575b6001600160a01b038a1690f115610323576001905b01610207565b6040513d6000823e3d90fd5b506108fc610308565b60446020925160405194859384927fa9059cbb0000000000000000000000000000000000000000000000000000000084526001600160a01b038c16600485015260248401525af1801561032357610393575b5060019061031d565b6020813d82116103c2575b816103ab602093836104c1565b810103126100f75751801515036100f7578561038a565b3d915061039e565b6020813d8211610411575b816103e2602093836104c1565b8101031261040d5751906001600160a01b038216820361040a57506001600160a01b036102d1565b80fd5b5080fd5b3d91506103d5565b634e487b7160e01b600052604160045260246000fd5b634e487b7160e01b600052603260045260246000fd5b005b7fd7f73334000000000000000000000000000000000000000000000000000000006000523360045260246000fd5b600435906001600160a01b03821682036100f757565b903590601e19813603018212156100f7570180359067ffffffffffffffff82116100f757602001918160061b360383136100f757565b90601f8019910116810190811067ffffffffffffffff82111761041957604052565b6001600160a01b036000541633036104f757565b7f118cdaa7000000000000000000000000000000000000000000000000000000006000523360045260246000fdfea264697066735822122075949ecdd57e019d1e1d7cd3527ee02afc48c896d9271c2275e72a425069c75664736f6c634300081c0033",
  "linkReferences": {},
  "deployedLinkReferences": {}
}