{
  "contracts/ETNCallConfig.sol": {
    "ETNCallConfig": {
      "abi": [
        {
          "inputs": [],
          "stateMutability": "nonpayable",
          "type": "constructor"
        },
        {
          "inputs": [
            {
              "internalType": "uint256",
              "name": "amount",
              "type": "uint256"
            }
          ],
          "name": "InvalidAmount",
          "type": "error"
        },
        {
          "inputs": [
            {
              "internalType": "uint256",
              "name": "chainId",
              "type": "uint256"
            }
          ],
          "name": "InvalidChainId",
          "type": "error"
        },
        {
          "inputs": [
            {
              "internalType": "address",
              "name": "owner",
              "type": "address"
            }
          ],
          "name": "OwnableInvalidOwner",
          "type": "error"
        },
        {
          "inputs": [
            {
              "internalType": "address",
              "name": "account",
              "type": "address"
            }
          ],
          "name": "OwnableUnauthorizedAccount",
          "type": "error"
        },
        {
          "anonymous": false,
          "inputs": [
            {
              "indexed": true,
              "internalType": "address",
              "name": "previousOwner",
              "type": "address"
            },
            {
              "indexed": true,
              "internalType": "address",
              "name": "newOwner",
              "type": "address"
            }
          ],
          "name": "OwnershipTransferred",
          "type": "event"
        },
        {
          "anonymous": false,
          "inputs": [
            {
              "indexed": false,
              "internalType": "uint256",
              "name": "chainId",
              "type": "uint256"
            },
            {
              "indexed": false,
              "internalType": "address",
              "name": "tokenId",
              "type": "address"
            },
            {
              "indexed": false,
              "internalType": "address",
              "name": "chainTokenId",
              "type": "address"
            }
          ],
          "name": "SetChainTokenId",
          "type": "event"
        },
        {
          "anonymous": false,
          "inputs": [
            {
              "indexed": false,
              "internalType": "uint256",
              "name": "toChainId",
              "type": "uint256"
            },
            {
              "indexed": false,
              "internalType": "uint256",
              "name": "amount",
              "type": "uint256"
            }
          ],
          "name": "SetFee",
          "type": "event"
        },
        {
          "anonymous": false,
          "inputs": [
            {
              "indexed": false,
              "internalType": "uint256[]",
              "name": "chains",
              "type": "uint256[]"
            }
          ],
          "name": "SupportedChains",
          "type": "event"
        },
        {
          "anonymous": false,
          "inputs": [
            {
              "indexed": false,
              "internalType": "address[]",
              "name": "chains",
              "type": "address[]"
            }
          ],
          "name": "SupportedTokens",
          "type": "event"
        },
        {
          "inputs": [
            {
              "internalType": "uint256",
              "name": "chainId",
              "type": "uint256"
            },
            {
              "internalType": "address",
              "name": "tokenId",
              "type": "address"
            }
          ],
          "name": "getChainTokenId",
          "outputs": [
            {
              "internalType": "address",
              "name": "",
              "type": "address"
            }
          ],
          "stateMutability": "view",
          "type": "function"
        },
        {
          "inputs": [
            {
              "internalType": "uint256",
              "name": "toChainId",
              "type": "uint256"
            }
          ],
          "name": "getFee",
          "outputs": [
            {
              "internalType": "uint256",
              "name": "",
              "type": "uint256"
            }
          ],
          "stateMutability": "view",
          "type": "function"
        },
        {
          "inputs": [],
          "name": "owner",
          "outputs": [
            {
              "internalType": "address",
              "name": "",
              "type": "address"
            }
          ],
          "stateMutability": "view",
          "type": "function"
        },
        {
          "inputs": [],
          "name": "renounceOwnership",
          "outputs": [],
          "stateMutability": "nonpayable",
          "type": "function"
        },
        {
          "inputs": [
            {
              "internalType": "uint256",
              "name": "chainId",
              "type": "uint256"
            },
            {
              "internalType": "address",
              "name": "tokenId",
              "type": "address"
            },
            {
              "internalType": "address",
              "name": "chainTokenId",
              "type": "address"
            }
          ],
          "name": "setChainTokenId",
          "outputs": [],
          "stateMutability": "nonpayable",
          "type": "function"
        },
        {
          "inputs": [
            {
              "internalType": "uint256",
              "name": "toChainId",
              "type": "uint256"
            },
            {
              "internalType": "uint256",
              "name": "amount",
              "type": "uint256"
            }
          ],
          "name": "setFee",
          "outputs": [],
          "stateMutability": "nonpayable",
          "type": "function"
        },
        {
          "inputs": [],
          "name": "supportedChains",
          "outputs": [
            {
              "internalType": "uint256[]",
              "name": "",
              "type": "uint256[]"
            }
          ],
          "stateMutability": "view",
          "type": "function"
        },
        {
          "inputs": [],
          "name": "supportedTokens",
          "outputs": [
            {
              "internalType": "address[]",
              "name": "",
              "type": "address[]"
            }
          ],
          "stateMutability": "view",
          "type": "function"
        },
        {
          "inputs": [
            {
              "internalType": "address",
              "name": "newOwner",
              "type": "address"
            }
          ],
          "name": "transferOwnership",
          "outputs": [],
          "stateMutability": "nonpayable",
          "type": "function"
        },
        {
          "inputs": [
            {
              "internalType": "uint256[]",
              "name": "chains",
              "type": "uint256[]"
            }
          ],
          "name": "updateSupportedChains",
          "outputs": [],
          "stateMutability": "nonpayable",
          "type": "function"
        },
        {
          "inputs": [
            {
              "internalType": "address[]",
              "name": "tokens",
              "type": "address[]"
            }
          ],
          "name": "updateSupportedTokens",
          "outputs": [],
          "stateMutability": "nonpayable",
          "type": "function"
        }
      ],
      "evm": {
        "bytecode": {
          "linkReferences": {},
          "object": "608080604052346075573315605f5760008054336001600160a01b0319821681178355916001600160a01b03909116907f8be0079c531659141344cd1fd0a4f28419497f9722a3daafe3b4186f6b6457e09080a3610962908161007b8239f35b631e4fbdf760e01b600052600060045260246000fd5b600080fdfe6080604052600436101561001257600080fd5b60003560e01c80634cb30ee81461075357806352f7c9881461068c5780636af405f614610508578063715018a6146104a2578063816949b51461041f5780638da5cb5b146103f85780639fea73771461025a578063b002249d146101ca578063f2fde38b14610118578063fb0d2b50146100c65763fcee45f41461009557600080fd5b346100c15760203660031901126100c15760043560005260016020526020604060002054604051908152f35b600080fd5b346100c15760403660031901126100c1576100df610806565b60043560005260026020526001600160a01b036040600020911660005260205260206001600160a01b0360406000205416604051908152f35b346100c15760203660031901126100c1576004356001600160a01b0381168091036100c1576101456108ea565b801561019b576001600160a01b036000548273ffffffffffffffffffffffffffffffffffffffff19821617600055167f8be0079c531659141344cd1fd0a4f28419497f9722a3daafe3b4186f6b6457e0600080a3005b7f1e4fbdf700000000000000000000000000000000000000000000000000000000600052600060045260246000fd5b346100c15760003660031901126100c15760405180602060045491828152019060046000527f8a35acfbc15ff81a39ae7d344fd709f28e8600b4aa8c65c6b64bfe7fe36bd19b9060005b81811061023b576102378561022b8187038261081c565b60405191829182610890565b0390f35b82546001600160a01b0316845260209093019260019283019201610214565b346100c15760203660031901126100c15760043567ffffffffffffffff81116100c157366023820112156100c15780600401356102968161083e565b916102a4604051938461081c565b818352602083016024819360051b830101913683116100c157602401905b8282106103e8575050506102d46108ea565b81519067ffffffffffffffff82116103b9576801000000000000000082116103b9576003548260035580831061037e575b50600360005260005b82811061034a576040517f56aef294adb176650719ad99c27cf178915205af226a58c6f0e4c9bacc1b746690806103458782610856565b0390a1005b60019060208351930192817fc2575a0e9e593c00f959f8c92f12db2869c3395a3b0502d05e2516446f71f85b01550161030e565b60036000526103b3907fc2575a0e9e593c00f959f8c92f12db2869c3395a3b0502d05e2516446f71f85b9081019084016108d3565b83610305565b7f4e487b7100000000000000000000000000000000000000000000000000000000600052604160045260246000fd5b81358152602091820191016102c2565b346100c15760003660031901126100c15760206001600160a01b0360005416604051908152f35b346100c15760003660031901126100c15760405180602060035491828152019060036000527fc2575a0e9e593c00f959f8c92f12db2869c3395a3b0502d05e2516446f71f85b9060005b81811061048c57610237856104808187038261081c565b60405191829182610856565b8254845260209093019260019283019201610469565b346100c15760003660031901126100c1576104bb6108ea565b60006001600160a01b03815473ffffffffffffffffffffffffffffffffffffffff1981168355167f8be0079c531659141344cd1fd0a4f28419497f9722a3daafe3b4186f6b6457e08280a3005b346100c15760203660031901126100c15760043567ffffffffffffffff81116100c157366023820112156100c15780600401356105448161083e565b91610552604051938461081c565b81835260208301906024829360051b820101903682116100c157602401915b81831061066c575050506105836108ea565b81519067ffffffffffffffff82116103b9576801000000000000000082116103b95760045482600455808310610631575b50600460005260005b8281106105f4576040517f023c0bbef93212a062a8b51d82c40fb6d8396cedf38372bf67778810697c7b2990806103458782610890565b60019060206001600160a01b03845116930192817f8a35acfbc15ff81a39ae7d344fd709f28e8600b4aa8c65c6b64bfe7fe36bd19b0155016105bd565b6004600052610666907f8a35acfbc15ff81a39ae7d344fd709f28e8600b4aa8c65c6b64bfe7fe36bd19b9081019084016108d3565b836105b4565b82356001600160a01b03811681036100c157815260209283019201610571565b346100c15760403660031901126100c1576004356024356106ab6108ea565b80156107265781156106f857816040917f032dc6a2d839eb179729a55633fdf1c41a1fc4739394154117005db2b354b9b593600052600160205280836000205582519182526020820152a1005b507f331003b30000000000000000000000000000000000000000000000000000000060005260045260246000fd5b7f3728b83d0000000000000000000000000000000000000000000000000000000060005260045260246000fd5b346100c15760603660031901126100c15760043561076f610806565b604435916001600160a01b0383168093036100c1577f1cffd3e976bc822e6df68a8d7cc8fc412365a73b3a4abb6df213f4af9ba8d4ad926001600160a01b036060936107b96108ea565b836000526002602052604060002082821660005260205260406000208373ffffffffffffffffffffffffffffffffffffffff198254161790556040519384521660208301526040820152a1005b602435906001600160a01b03821682036100c157565b90601f8019910116810190811067ffffffffffffffff8211176103b957604052565b67ffffffffffffffff81116103b95760051b60200190565b602060408183019282815284518094520192019060005b81811061087a5750505090565b825184526020938401939092019160010161086d565b602060408183019282815284518094520192019060005b8181106108b45750505090565b82516001600160a01b03168452602093840193909201916001016108a7565b8181106108de575050565b600081556001016108d3565b6001600160a01b036000541633036108fe57565b7f118cdaa7000000000000000000000000000000000000000000000000000000006000523360045260246000fdfea26469706673582212207b7fedc2fe81711008b280bddfe32dcd7acf5123249dac846aad79dff91935ed64736f6c634300081c0033",
          "opcodes": "PUSH1 0x80 DUP1 PUSH1 0x40 MSTORE CALLVALUE PUSH1 0x75 JUMPI CALLER ISZERO PUSH1 0x5F JUMPI PUSH1 0x0 DUP1 SLOAD CALLER PUSH1 0x1 PUSH1 0x1 PUSH1 0xA0 SHL SUB NOT DUP3 AND DUP2 OR DUP4 SSTORE SWAP2 PUSH1 0x1 PUSH1 0x1 PUSH1 0xA0 SHL SUB SWAP1 SWAP2 AND SWAP1 PUSH32 0x8BE0079C531659141344CD1FD0A4F28419497F9722A3DAAFE3B4186F6B6457E0 SWAP1 DUP1 LOG3 PUSH2 0x962 SWAP1 DUP2 PUSH2 0x7B DUP3 CODECOPY RETURN JUMPDEST PUSH4 0x1E4FBDF7 PUSH1 0xE0 SHL PUSH1 0x0 MSTORE PUSH1 0x0 PUSH1 0x4 MSTORE PUSH1 0x24 PUSH1 0x0 REVERT JUMPDEST PUSH1 0x0 DUP1 REVERT INVALID PUSH1 0x80 PUSH1 0x40 MSTORE PUSH1 0x4 CALLDATASIZE LT ISZERO PUSH2 0x12 JUMPI PUSH1 0x0 DUP1 REVERT JUMPDEST PUSH1 0x0 CALLDATALOAD PUSH1 0xE0 SHR DUP1 PUSH4 0x4CB30EE8 EQ PUSH2 0x753 JUMPI DUP1 PUSH4 0x52F7C988 EQ PUSH2 0x68C JUMPI DUP1 PUSH4 0x6AF405F6 EQ PUSH2 0x508 JUMPI DUP1 PUSH4 0x715018A6 EQ PUSH2 0x4A2 JUMPI DUP1 PUSH4 0x816949B5 EQ PUSH2 0x41F JUMPI DUP1 PUSH4 0x8DA5CB5B EQ PUSH2 0x3F8 JUMPI DUP1 PUSH4 0x9FEA7377 EQ PUSH2 0x25A JUMPI DUP1 PUSH4 0xB002249D EQ PUSH2 0x1CA JUMPI DUP1 PUSH4 0xF2FDE38B EQ PUSH2 0x118 JUMPI DUP1 PUSH4 0xFB0D2B50 EQ PUSH2 0xC6 JUMPI PUSH4 0xFCEE45F4 EQ PUSH2 0x95 JUMPI PUSH1 0x0 DUP1 REVERT JUMPDEST CALLVALUE PUSH2 0xC1 JUMPI PUSH1 0x20 CALLDATASIZE PUSH1 0x3 NOT ADD SLT PUSH2 0xC1 JUMPI PUSH1 0x4 CALLDATALOAD PUSH1 0x0 MSTORE PUSH1 0x1 PUSH1 0x20 MSTORE PUSH1 0x20 PUSH1 0x40 PUSH1 0x0 KECCAK256 SLOAD PUSH1 0x40 MLOAD SWAP1 DUP2 MSTORE RETURN JUMPDEST PUSH1 0x0 DUP1 REVERT JUMPDEST CALLVALUE PUSH2 0xC1 JUMPI PUSH1 0x40 CALLDATASIZE PUSH1 0x3 NOT ADD SLT PUSH2 0xC1 JUMPI PUSH2 0xDF PUSH2 0x806 JUMP JUMPDEST PUSH1 0x4 CALLDATALOAD PUSH1 0x0 MSTORE PUSH1 0x2 PUSH1 0x20 MSTORE PUSH1 0x1 PUSH1 0x1 PUSH1 0xA0 SHL SUB PUSH1 0x40 PUSH1 0x0 KECCAK256 SWAP2 AND PUSH1 0x0 MSTORE PUSH1 0x20 MSTORE PUSH1 0x20 PUSH1 0x1 PUSH1 0x1 PUSH1 0xA0 SHL SUB PUSH1 0x40 PUSH1 0x0 KECCAK256 SLOAD AND PUSH1 0x40 MLOAD SWAP1 DUP2 MSTORE RETURN JUMPDEST CALLVALUE PUSH2 0xC1 JUMPI PUSH1 0x20 CALLDATASIZE PUSH1 0x3 NOT ADD SLT PUSH2 0xC1 JUMPI PUSH1 0x4 CALLDATALOAD PUSH1 0x1 PUSH1 0x1 PUSH1 0xA0 SHL SUB DUP2 AND DUP1 SWAP2 SUB PUSH2 0xC1 JUMPI PUSH2 0x145 PUSH2 0x8EA JUMP JUMPDEST DUP1 ISZERO PUSH2 0x19B JUMPI PUSH1 0x1 PUSH1 0x1 PUSH1 0xA0 SHL SUB PUSH1 0x0 SLOAD DUP3 PUSH20 0xFFFFFFFFFFFFFFFFFFFFFFFFFFFFFFFFFFFFFFFF NOT DUP3 AND OR PUSH1 0x0 SSTORE AND PUSH32 0x8BE0079C531659141344CD1FD0A4F28419497F9722A3DAAFE3B4186F6B6457E0 PUSH1 0x0 DUP1 LOG3 STOP JUMPDEST PUSH32 0x1E4FBDF700000000000000000000000000000000000000000000000000000000 PUSH1 0x0 MSTORE PUSH1 0x0 PUSH1 0x4 MSTORE PUSH1 0x24 PUSH1 0x0 REVERT JUMPDEST CALLVALUE PUSH2 0xC1 JUMPI PUSH1 0x0 CALLDATASIZE PUSH1 0x3 NOT ADD SLT PUSH2 0xC1 JUMPI PUSH1 0x40 MLOAD DUP1 PUSH1 0x20 PUSH1 0x4 SLOAD SWAP2 DUP3 DUP2 MSTORE ADD SWAP1 PUSH1 0x4 PUSH1 0x0 MSTORE PUSH32 0x8A35ACFBC15FF81A39AE7D344FD709F28E8600B4AA8C65C6B64BFE7FE36BD19B SWAP1 PUSH1 0x0 JUMPDEST DUP2 DUP2 LT PUSH2 0x23B JUMPI PUSH2 0x237 DUP6 PUSH2 0x22B DUP2 DUP8 SUB DUP3 PUSH2 0x81C JUMP JUMPDEST PUSH1 0x40 MLOAD SWAP2 DUP3 SWAP2 DUP3 PUSH2 0x890 JUMP JUMPDEST SUB SWAP1 RETURN JUMPDEST DUP3 SLOAD PUSH1 0x1 PUSH1 0x1 PUSH1 0xA0 SHL SUB AND DUP5 MSTORE PUSH1 0x20 SWAP1 SWAP4 ADD SWAP3 PUSH1 0x1 SWAP3 DUP4 ADD SWAP3 ADD PUSH2 0x214 JUMP JUMPDEST CALLVALUE PUSH2 0xC1 JUMPI PUSH1 0x20 CALLDATASIZE PUSH1 0x3 NOT ADD SLT PUSH2 0xC1 JUMPI PUSH1 0x4 CALLDATALOAD PUSH8 0xFFFFFFFFFFFFFFFF DUP2 GT PUSH2 0xC1 JUMPI CALLDATASIZE PUSH1 0x23 DUP3 ADD SLT ISZERO PUSH2 0xC1 JUMPI DUP1 PUSH1 0x4 ADD CALLDATALOAD PUSH2 0x296 DUP2 PUSH2 0x83E JUMP JUMPDEST SWAP2 PUSH2 0x2A4 PUSH1 0x40 MLOAD SWAP4 DUP5 PUSH2 0x81C JUMP JUMPDEST DUP2 DUP4 MSTORE PUSH1 0x20 DUP4 ADD PUSH1 0x24 DUP2 SWAP4 PUSH1 0x5 SHL DUP4 ADD ADD SWAP2 CALLDATASIZE DUP4 GT PUSH2 0xC1 JUMPI PUSH1 0x24 ADD SWAP1 JUMPDEST DUP3 DUP3 LT PUSH2 0x3E8 JUMPI POP POP POP PUSH2 0x2D4 PUSH2 0x8EA JUMP JUMPDEST DUP2 MLOAD SWAP1 PUSH8 0xFFFFFFFFFFFFFFFF DUP3 GT PUSH2 0x3B9 JUMPI PUSH9 0x10000000000000000 DUP3 GT PUSH2 0x3B9 JUMPI PUSH1 0x3 SLOAD DUP3 PUSH1 0x3 SSTORE DUP1 DUP4 LT PUSH2 0x37E JUMPI JUMPDEST POP PUSH1 0x3 PUSH1 0x0 MSTORE PUSH1 0x0 JUMPDEST DUP3 DUP2 LT PUSH2 0x34A JUMPI PUSH1 0x40 MLOAD PUSH32 0x56AEF294ADB176650719AD99C27CF178915205AF226A58C6F0E4C9BACC1B7466 SWAP1 DUP1 PUSH2 0x345 DUP8 DUP3 PUSH2 0x856 JUMP JUMPDEST SUB SWAP1 LOG1 STOP JUMPDEST PUSH1 0x1 SWAP1 PUSH1 0x20 DUP4 MLOAD SWAP4 ADD SWAP3 DUP2 PUSH32 0xC2575A0E9E593C00F959F8C92F12DB2869C3395A3B0502D05E2516446F71F85B ADD SSTORE ADD PUSH2 0x30E JUMP JUMPDEST PUSH1 0x3 PUSH1 0x0 MSTORE PUSH2 0x3B3 SWAP1 PUSH32 0xC2575A0E9E593C00F959F8C92F12DB2869C3395A3B0502D05E2516446F71F85B SWAP1 DUP2 ADD SWAP1 DUP5 ADD PUSH2 0x8D3 JUMP JUMPDEST DUP4 PUSH2 0x305 JUMP JUMPDEST PUSH32 0x4E487B7100000000000000000000000000000000000000000000000000000000 PUSH1 0x0 MSTORE PUSH1 0x41 PUSH1 0x4 MSTORE PUSH1 0x24 PUSH1 0x0 REVERT JUMPDEST DUP2 CALLDATALOAD DUP2 MSTORE PUSH1 0x20 SWAP2 DUP3 ADD SWAP2 ADD PUSH2 0x2C2 JUMP JUMPDEST CALLVALUE PUSH2 0xC1 JUMPI PUSH1 0x0 CALLDATASIZE PUSH1 0x3 NOT ADD SLT PUSH2 0xC1 JUMPI PUSH1 0x20 PUSH1 0x1 PUSH1 0x1 PUSH1 0xA0 SHL SUB PUSH1 0x0 SLOAD AND PUSH1 0x40 MLOAD SWAP1 DUP2 MSTORE RETURN JUMPDEST CALLVALUE PUSH2 0xC1 JUMPI PUSH1 0x0 CALLDATASIZE PUSH1 0x3 NOT ADD SLT PUSH2 0xC1 JUMPI PUSH1 0x40 MLOAD DUP1 PUSH1 0x20 PUSH1 0x3 SLOAD SWAP2 DUP3 DUP2 MSTORE ADD SWAP1 PUSH1 0x3 PUSH1 0x0 MSTORE PUSH32 0xC2575A0E9E593C00F959F8C92F12DB2869C3395A3B0502D05E2516446F71F85B SWAP1 PUSH1 0x0 JUMPDEST DUP2 DUP2 LT PUSH2 0x48C JUMPI PUSH2 0x237 DUP6 PUSH2 0x480 DUP2 DUP8 SUB DUP3 PUSH2 0x81C JUMP JUMPDEST PUSH1 0x40 MLOAD SWAP2 DUP3 SWAP2 DUP3 PUSH2 0x856 JUMP JUMPDEST DUP3 SLOAD DUP5 MSTORE PUSH1 0x20 SWAP1 SWAP4 ADD SWAP3 PUSH1 0x1 SWAP3 DUP4 ADD SWAP3 ADD PUSH2 0x469 JUMP JUMPDEST CALLVALUE PUSH2 0xC1 JUMPI PUSH1 0x0 CALLDATASIZE PUSH1 0x3 NOT ADD SLT PUSH2 0xC1 JUMPI PUSH2 0x4BB PUSH2 0x8EA JUMP JUMPDEST PUSH1 0x0 PUSH1 0x1 PUSH1 0x1 PUSH1 0xA0 SHL SUB DUP2 SLOAD PUSH20 0xFFFFFFFFFFFFFFFFFFFFFFFFFFFFFFFFFFFFFFFF NOT DUP2 AND DUP4 SSTORE AND PUSH32 0x8BE0079C531659141344CD1FD0A4F28419497F9722A3DAAFE3B4186F6B6457E0 DUP3 DUP1 LOG3 STOP JUMPDEST CALLVALUE PUSH2 0xC1 JUMPI PUSH1 0x20 CALLDATASIZE PUSH1 0x3 NOT ADD SLT PUSH2 0xC1 JUMPI PUSH1 0x4 CALLDATALOAD PUSH8 0xFFFFFFFFFFFFFFFF DUP2 GT PUSH2 0xC1 JUMPI CALLDATASIZE PUSH1 0x23 DUP3 ADD SLT ISZERO PUSH2 0xC1 JUMPI DUP1 PUSH1 0x4 ADD CALLDATALOAD PUSH2 0x544 DUP2 PUSH2 0x83E JUMP JUMPDEST SWAP2 PUSH2 0x552 PUSH1 0x40 MLOAD SWAP4 DUP5 PUSH2 0x81C JUMP JUMPDEST DUP2 DUP4 MSTORE PUSH1 0x20 DUP4 ADD SWAP1 PUSH1 0x24 DUP3 SWAP4 PUSH1 0x5 SHL DUP3 ADD ADD SWAP1 CALLDATASIZE DUP3 GT PUSH2 0xC1 JUMPI PUSH1 0x24 ADD SWAP2 JUMPDEST DUP2 DUP4 LT PUSH2 0x66C JUMPI POP POP POP PUSH2 0x583 PUSH2 0x8EA JUMP JUMPDEST DUP2 MLOAD SWAP1 PUSH8 0xFFFFFFFFFFFFFFFF DUP3 GT PUSH2 0x3B9 JUMPI PUSH9 0x10000000000000000 DUP3 GT PUSH2 0x3B9 JUMPI PUSH1 0x4 SLOAD DUP3 PUSH1 0x4 SSTORE DUP1 DUP4 LT PUSH2 0x631 JUMPI JUMPDEST POP PUSH1 0x4 PUSH1 0x0 MSTORE PUSH1 0x0 JUMPDEST DUP3 DUP2 LT PUSH2 0x5F4 JUMPI PUSH1 0x40 MLOAD PUSH32 0x23C0BBEF93212A062A8B51D82C40FB6D8396CEDF38372BF67778810697C7B29 SWAP1 DUP1 PUSH2 0x345 DUP8 DUP3 PUSH2 0x890 JUMP JUMPDEST PUSH1 0x1 SWAP1 PUSH1 0x20 PUSH1 0x1 PUSH1 0x1 PUSH1 0xA0 SHL SUB DUP5 MLOAD AND SWAP4 ADD SWAP3 DUP2 PUSH32 0x8A35ACFBC15FF81A39AE7D344FD709F28E8600B4AA8C65C6B64BFE7FE36BD19B ADD SSTORE ADD PUSH2 0x5BD JUMP JUMPDEST PUSH1 0x4 PUSH1 0x0 MSTORE PUSH2 0x666 SWAP1 PUSH32 0x8A35ACFBC15FF81A39AE7D344FD709F28E8600B4AA8C65C6B64BFE7FE36BD19B SWAP1 DUP2 ADD SWAP1 DUP5 ADD PUSH2 0x8D3 JUMP JUMPDEST DUP4 PUSH2 0x5B4 JUMP JUMPDEST DUP3 CALLDATALOAD PUSH1 0x1 PUSH1 0x1 PUSH1 0xA0 SHL SUB DUP2 AND DUP2 SUB PUSH2 0xC1 JUMPI DUP2 MSTORE PUSH1 0x20 SWAP3 DUP4 ADD SWAP3 ADD PUSH2 0x571 JUMP JUMPDEST CALLVALUE PUSH2 0xC1 JUMPI PUSH1 0x40 CALLDATASIZE PUSH1 0x3 NOT ADD SLT PUSH2 0xC1 JUMPI PUSH1 0x4 CALLDATALOAD PUSH1 0x24 CALLDATALOAD PUSH2 0x6AB PUSH2 0x8EA JUMP JUMPDEST DUP1 ISZERO PUSH2 0x726 JUMPI DUP2 ISZERO PUSH2 0x6F8 JUMPI DUP2 PUSH1 0x40 SWAP2 PUSH32 0x32DC6A2D839EB179729A55633FDF1C41A1FC4739394154117005DB2B354B9B5 SWAP4 PUSH1 0x0 MSTORE PUSH1 0x1 PUSH1 0x20 MSTORE DUP1 DUP4 PUSH1 0x0 KECCAK256 SSTORE DUP3 MLOAD SWAP2 DUP3 MSTORE PUSH1 0x20 DUP3 ADD MSTORE LOG1 STOP JUMPDEST POP PUSH32 0x331003B300000000000000000000000000000000000000000000000000000000 PUSH1 0x0 MSTORE PUSH1 0x4 MSTORE PUSH1 0x24 PUSH1 0x0 REVERT JUMPDEST PUSH32 0x3728B83D00000000000000000000000000000000000000000000000000000000 PUSH1 0x0 MSTORE PUSH1 0x4 MSTORE PUSH1 0x24 PUSH1 0x0 REVERT JUMPDEST CALLVALUE PUSH2 0xC1 JUMPI PUSH1 0x60 CALLDATASIZE PUSH1 0x3 NOT ADD SLT PUSH2 0xC1 JUMPI PUSH1 0x4 CALLDATALOAD PUSH2 0x76F PUSH2 0x806 JUMP JUMPDEST PUSH1 0x44 CALLDATALOAD SWAP2 PUSH1 0x1 PUSH1 0x1 PUSH1 0xA0 SHL SUB DUP4 AND DUP1 SWAP4 SUB PUSH2 0xC1 JUMPI PUSH32 0x1CFFD3E976BC822E6DF68A8D7CC8FC412365A73B3A4ABB6DF213F4AF9BA8D4AD SWAP3 PUSH1 0x1 PUSH1 0x1 PUSH1 0xA0 SHL SUB PUSH1 0x60 SWAP4 PUSH2 0x7B9 PUSH2 0x8EA JUMP JUMPDEST DUP4 PUSH1 0x0 MSTORE PUSH1 0x2 PUSH1 0x20 MSTORE PUSH1 0x40 PUSH1 0x0 KECCAK256 DUP3 DUP3 AND PUSH1 0x0 MSTORE PUSH1 0x20 MSTORE PUSH1 0x40 PUSH1 0x0 KECCAK256 DUP4 PUSH20 0xFFFFFFFFFFFFFFFFFFFFFFFFFFFFFFFFFFFFFFFF NOT DUP3 SLOAD AND OR SWAP1 SSTORE PUSH1 0x40 MLOAD SWAP4 DUP5 MSTORE AND PUSH1 0x20 DUP4 ADD MSTORE PUSH1 0x40 DUP3 ADD MSTORE LOG1 STOP JUMPDEST PUSH1 0x24 CALLDATALOAD SWAP1 PUSH1 0x1 PUSH1 0x1 PUSH1 0xA0 SHL SUB DUP3 AND DUP3 SUB PUSH2 0xC1 JUMPI JUMP JUMPDEST SWAP1 PUSH1 0x1F DUP1 NOT SWAP2 ADD AND DUP2 ADD SWAP1 DUP2 LT PUSH8 0xFFFFFFFFFFFFFFFF DUP3 GT OR PUSH2 0x3B9 JUMPI PUSH1 0x40 MSTORE JUMP JUMPDEST PUSH8 0xFFFFFFFFFFFFFFFF DUP2 GT PUSH2 0x3B9 JUMPI PUSH1 0x5 SHL PUSH1 0x20 ADD SWAP1 JUMP JUMPDEST PUSH1 0x20 PUSH1 0x40 DUP2 DUP4 ADD SWAP3 DUP3 DUP2 MSTORE DUP5 MLOAD DUP1 SWAP5 MSTORE ADD SWAP3 ADD SWAP1 PUSH1 0x0 JUMPDEST DUP2 DUP2 LT PUSH2 0x87A JUMPI POP POP POP SWAP1 JUMP JUMPDEST DUP3 MLOAD DUP5 MSTORE PUSH1 0x20 SWAP4 DUP5 ADD SWAP4 SWAP1 SWAP3 ADD SWAP2 PUSH1 0x1 ADD PUSH2 0x86D JUMP JUMPDEST PUSH1 0x20 PUSH1 0x40 DUP2 DUP4 ADD SWAP3 DUP3 DUP2 MSTORE DUP5 MLOAD DUP1 SWAP5 MSTORE ADD SWAP3 ADD SWAP1 PUSH1 0x0 JUMPDEST DUP2 DUP2 LT PUSH2 0x8B4 JUMPI POP POP POP SWAP1 JUMP JUMPDEST DUP3 MLOAD PUSH1 0x1 PUSH1 0x1 PUSH1 0xA0 SHL SUB AND DUP5 MSTORE PUSH1 0x20 SWAP4 DUP5 ADD SWAP4 SWAP1 SWAP3 ADD SWAP2 PUSH1 0x1 ADD PUSH2 0x8A7 JUMP JUMPDEST DUP2 DUP2 LT PUSH2 0x8DE JUMPI POP POP JUMP JUMPDEST PUSH1 0x0 DUP2 SSTORE PUSH1 0x1 ADD PUSH2 0x8D3 JUMP JUMPDEST PUSH1 0x1 PUSH1 0x1 PUSH1 0xA0 SHL SUB PUSH1 0x0 SLOAD AND CALLER SUB PUSH2 0x8FE JUMPI JUMP JUMPDEST PUSH32 0x118CDAA700000000000000000000000000000000000000000000000000000000 PUSH1 0x0 MSTORE CALLER PUSH1 0x4 MSTORE PUSH1 0x24 PUSH1 0x0 REVERT INVALID LOG2 PUSH5 0x6970667358 0x22 SLT KECCAK256 PUSH28 0x7FEDC2FE81711008B280BDDFE32DCD7ACF5123249DAC846AAD79DFF9 NOT CALLDATALOAD 0xED PUSH5 0x736F6C6343 STOP ADDMOD SHR STOP CALLER "
        },
        "methodIdentifiers": {
          "getChainTokenId(uint256,address)": "fb0d2b50",
          "getFee(uint256)": "fcee45f4",
          "owner()": "8da5cb5b",
          "renounceOwnership()": "715018a6",
          "setChainTokenId(uint256,address,address)": "4cb30ee8",
          "setFee(uint256,uint256)": "52f7c988",
          "supportedChains()": "816949b5",
          "supportedTokens()": "b002249d",
          "transferOwnership(address)": "f2fde38b",
          "updateSupportedChains(uint256[])": "9fea7377",
          "updateSupportedTokens(address[])": "6af405f6"
        }
      }
    }
  }
}