{
  "contracts/Bridge.sol": {
    "Bridge": {
      "abi": [
        {
          "inputs": [
            {
              "internalType": "address",
              "name": "config_",
              "type": "address"
            },
            {
              "internalType": "address",
              "name": "etnCall_",
              "type": "address"
            }
          ],
          "stateMutability": "nonpayable",
          "type": "constructor"
        },
        {
          "inputs": [
            {
              "internalType": "address",
              "name": "router",
              "type": "address"
            }
          ],
          "name": "InvalidRouter",
          "type": "error"
        },
        {
          "inputs": [
            {
              "internalType": "address",
              "name": "owner",
              "type": "address"
            }
          ],
          "name": "OwnableInvalidOwner",
          "type": "error"
        },
        {
          "inputs": [
            {
              "internalType": "address",
              "name": "account",
              "type": "address"
            }
          ],
          "name": "OwnableUnauthorizedAccount",
          "type": "error"
        },
        {
          "anonymous": false,
          "inputs": [
            {
              "indexed": true,
              "internalType": "address",
              "name": "previousOwner",
              "type": "address"
            },
            {
              "indexed": true,
              "internalType": "address",
              "name": "newOwner",
              "type": "address"
            }
          ],
          "name": "OwnershipTransferred",
          "type": "event"
        },
        {
          "inputs": [
            {
              "internalType": "address",
              "name": "",
              "type": "address"
            },
            {
              "internalType": "uint256",
              "name": "",
              "type": "uint256"
            }
          ],
          "name": "_actions",
          "outputs": [
            {
              "internalType": "bytes32",
              "name": "",
              "type": "bytes32"
            }
          ],
          "stateMutability": "view",
          "type": "function"
        },
        {
          "inputs": [
            {
              "internalType": "uint256",
              "name": "",
              "type": "uint256"
            }
          ],
          "name": "_contracts",
          "outputs": [
            {
              "internalType": "address",
              "name": "",
              "type": "address"
            }
          ],
          "stateMutability": "view",
          "type": "function"
        },
        {
          "inputs": [
            {
              "internalType": "uint256",
              "name": "toChainId",
              "type": "uint256"
            },
            {
              "components": [
                {
                  "internalType": "address",
                  "name": "tokenId",
                  "type": "address"
                },
                {
                  "internalType": "uint256",
                  "name": "amount",
                  "type": "uint256"
                }
              ],
              "internalType": "struct Data.Token[]",
              "name": "tokens",
              "type": "tuple[]"
            },
            {
              "internalType": "address",
              "name": "tokenPool",
              "type": "address"
            }
          ],
          "name": "bridgeToken",
          "outputs": [],
          "stateMutability": "payable",
          "type": "function"
        },
        {
          "inputs": [],
          "name": "etnCallPayMaster",
          "outputs": [
            {
              "internalType": "address",
              "name": "",
              "type": "address"
            }
          ],
          "stateMutability": "view",
          "type": "function"
        },
        {
          "inputs": [
            {
              "components": [
                {
                  "internalType": "bytes32",
                  "name": "messageId",
                  "type": "bytes32"
                },
                {
                  "internalType": "uint256",
                  "name": "fromChainId",
                  "type": "uint256"
                },
                {
                  "internalType": "address",
                  "name": "sender",
                  "type": "address"
                },
                {
                  "internalType": "bytes",
                  "name": "payload",
                  "type": "bytes"
                },
                {
                  "components": [
                    {
                      "internalType": "address",
                      "name": "tokenId",
                      "type": "address"
                    },
                    {
                      "internalType": "uint256",
                      "name": "amount",
                      "type": "uint256"
                    }
                  ],
                  "internalType": "struct Data.Token[]",
                  "name": "tokens",
                  "type": "tuple[]"
                },
                {
                  "internalType": "enum Data.PayMaster",
                  "name": "payMaster",
                  "type": "uint8"
                }
              ],
              "internalType": "struct Data.IncomingMessage",
              "name": "message",
              "type": "tuple"
            }
          ],
          "name": "etnCallReceive",
          "outputs": [],
          "stateMutability": "nonpayable",
          "type": "function"
        },
        {
          "inputs": [],
          "name": "getETNCall",
          "outputs": [
            {
              "internalType": "address",
              "name": "",
              "type": "address"
            }
          ],
          "stateMutability": "view",
          "type": "function"
        },
        {
          "inputs": [],
          "name": "owner",
          "outputs": [
            {
              "internalType": "address",
              "name": "",
              "type": "address"
            }
          ],
          "stateMutability": "view",
          "type": "function"
        },
        {
          "inputs": [],
          "name": "renounceOwnership",
          "outputs": [],
          "stateMutability": "nonpayable",
          "type": "function"
        },
        {
          "inputs": [
            {
              "internalType": "uint256",
              "name": "chainId",
              "type": "uint256"
            },
            {
              "internalType": "address",
              "name": "contractId",
              "type": "address"
            }
          ],
          "name": "setContract",
          "outputs": [],
          "stateMutability": "nonpayable",
          "type": "function"
        },
        {
          "inputs": [
            {
              "internalType": "address",
              "name": "newOwner",
              "type": "address"
            }
          ],
          "name": "transferOwnership",
          "outputs": [],
          "stateMutability": "nonpayable",
          "type": "function"
        }
      ],
      "evm": {
        "bytecode": {
          "linkReferences": {},
          "object": "60a03461012557601f610e3138819003918201601f19168301916001600160401b0383118484101761012a57808492604094855283398101031261012557610052602061004b83610140565b9201610140565b331561010f5760008054336001600160a01b0319821681178355604051949290916001600160a01b0316907f8be0079c531659141344cd1fd0a4f28419497f9722a3daafe3b4186f6b6457e09080a36001600160a01b0382169182156100f95760805260018060a01b031660018060a01b0319600154161760015560018060a01b03196002541617600255610cdc9081610155823960805181818161023601526106fc0152f35b6335fdcccd60e21b600052600060045260246000fd5b631e4fbdf760e01b600052600060045260246000fd5b600080fd5b634e487b7160e01b600052604160045260246000fd5b51906001600160a01b03821682036101255756fe608080604052600436101561001357600080fd5b60003560e01c9081633f2fa79b146106bb57508063606e987a1461019857806367acd8a014610686578063715018a6146106205780638599fe891461025a57806387530b181461021657806389e865a9146101bf5780638da5cb5b14610198578063b2bfc835146101415763f2fde38b1461008d57600080fd5b3461013c57602036600319011261013c576001600160a01b036100ae610b07565b6100b6610c64565b16801561010d576001600160a01b036000548273ffffffffffffffffffffffffffffffffffffffff19821617600055167f8be0079c531659141344cd1fd0a4f28419497f9722a3daafe3b4186f6b6457e0600080a3005b7f1e4fbdf700000000000000000000000000000000000000000000000000000000600052600060045260246000fd5b600080fd5b3461013c57604036600319011261013c5761015a610b07565b6001600160a01b03602435911660005260036020526040600020805482101561013c5760209161018991610bc4565b90549060031b1c604051908152f35b3461013c57600036600319011261013c5760206001600160a01b0360005416604051908152f35b3461013c57604036600319011261013c576024356001600160a01b03811680910361013c57600435600052600460205260406000209073ffffffffffffffffffffffffffffffffffffffff19825416179055600080f35b3461013c57600036600319011261013c5760206040516001600160a01b037f0000000000000000000000000000000000000000000000000000000000000000168152f35b606036600319011261013c5760043560243567ffffffffffffffff811161013c57610289903690600401610b31565b604435916001600160a01b03831680930361013c578060005260046020526001600160a01b03604060002054169260405193336020860152602085526102d0604086610ae5565b6040519260a0840184811067ffffffffffffffff82111761058057604052835260208301908152604083019485526060830190848252608084016001815260005b8651811015610452576103248188610c38565b519060206001600160a01b03835116920191825192604051937f23b872dd00000000000000000000000000000000000000000000000000000000855233600486015230602486015260448501526020846064816000865af191821561042b576103e394602093610437575b5060025491516040517f095ea7b30000000000000000000000000000000000000000000000000000000081526001600160a01b03909316600484015260248301529093849190829060009082906044820190565b03925af191821561042b576001926103fd575b5001610311565b61041d9060203d8111610424575b6104158183610ae5565b810190610c4c565b50896103f6565b503d61040b565b6040513d6000823e3d90fd5b61044d90843d8111610424576104158183610ae5565b61038f565b50866001600160a01b03806002541693604051977f0c840101000000000000000000000000000000000000000000000000000000008952604060048a0152516044890152511660648701525160a060848701528051908160e488015260005b82811061060957505060006101048288010152601f8019910116850192602061012461010486019251956043196101048a8303010160a48a015286518094520194019060005b8181106105de57505050519160028310156105c857600085809492602096829460c4840152602483015203925af190811561042b57600091610596575b5033600052600360205260406000208054680100000000000000008110156105805761056591600182018155610bc4565b819291549060031b91821b91600019901b1916179055600080f35b634e487b7160e01b600052604160045260246000fd5b90506020813d6020116105c0575b816105b160209383610ae5565b8101031261013c575181610534565b3d91506105a4565b634e487b7160e01b600052602160045260246000fd5b825180516001600160a01b0316875260209081015181880152604090960195909201916001016104f7565b806020809284010151610104828b010152016104b1565b3461013c57600036600319011261013c57610639610c64565b60006001600160a01b03815473ffffffffffffffffffffffffffffffffffffffff1981168355167f8be0079c531659141344cd1fd0a4f28419497f9722a3daafe3b4186f6b6457e08280a3005b3461013c57602036600319011261013c57600435600052600460205260206001600160a01b0360406000205416604051908152f35b3461013c57602036600319011261013c5760043567ffffffffffffffff811161013c57806004019060c0600319823603011261013c57336001600160a01b037f00000000000000000000000000000000000000000000000000000000000000001603610a9b5760009260c0810181811067ffffffffffffffff821117610a87576040528235815260248201359283602083015261075a60448401610b1d565b6040830152606483013567ffffffffffffffff8111610a835783019436602387011215610a8057600486013567ffffffffffffffff8111610a6c57604051966107ad601f8301601f191660200189610ae5565b8188523660248284010111610a6857818392602460209301838b013788010152606083019586526084840192833567ffffffffffffffff8111610a68576107fc60a49160043691890101610b31565b95608083019687520135906002821015610a685760a001526001546001600160a01b03169594815b855151811015610941576108428161083c8787610bf2565b90610c28565b356001600160a01b03811680910361092a57604051907ffb0d2b5000000000000000000000000000000000000000000000000000000000825283600483015260248201526020816044818c5afa9081156109365784916108ef575b50906108e88160019360206108b68361083c8c8c610bf2565b01356001600160a01b03604051926108cd84610ac9565b16825260208201528951906108e28383610c38565b52610c38565b5001610824565b90506020813d821161092e575b8161090960209383610ae5565b8101031261092a57516001600160a01b038116810361092a576108e861089d565b8380fd5b3d91506108fc565b6040513d86823e3d90fd5b8286818951602081805181010312610a6457602001516001600160a01b038116809103610a6457815b8351908151811015610a6057610981818593610c38565b5180516001600160a01b031673eeeeeeeeeeeeeeeeeeeeeeeeeeeeeeeeeeeeeeee81036109e0575091808060208194950151868282156109d7575bf1156109cc576001905b0161096a565b6040513d84823e3d90fd5b506108fc6109bc565b6020918201516040517fa9059cbb0000000000000000000000000000000000000000000000000000000081526001600160a01b0387166004820152602481019190915293849160449183915af191821561093657600192610a42575b506109c6565b610a599060203d8111610424576104158183610ae5565b5086610a3c565b8380f35b5080fd5b8280fd5b602482634e487b7160e01b81526041600452fd5b80fd5b8580fd5b602485634e487b7160e01b81526041600452fd5b7fd7f73334000000000000000000000000000000000000000000000000000000006000523360045260246000fd5b6040810190811067ffffffffffffffff82111761058057604052565b90601f8019910116810190811067ffffffffffffffff82111761058057604052565b600435906001600160a01b038216820361013c57565b35906001600160a01b038216820361013c57565b81601f8201121561013c5780359067ffffffffffffffff82116105805760405192610b6260208460051b0185610ae5565b82845260208085019360061b8301019181831161013c57602001925b828410610b8c575050505090565b60408483031261013c5760206040918251610ba681610ac9565b610baf87610b1d565b81528287013583820152815201930192610b7e565b8054821015610bdc5760005260206000200190600090565b634e487b7160e01b600052603260045260246000fd5b903590601e198136030182121561013c570180359067ffffffffffffffff821161013c57602001918160061b3603831361013c57565b9190811015610bdc5760061b0190565b8051821015610bdc5760209160051b010190565b9081602091031261013c5751801515810361013c5790565b6001600160a01b03600054163303610c7857565b7f118cdaa7000000000000000000000000000000000000000000000000000000006000523360045260246000fdfea264697066735822122069361283a30644f4d02e8a7f26f50dda7e1aa059731510963ae31d446b6ceebc64736f6c634300081c0033",
          "opcodes": "PUSH1 0xA0 CALLVALUE PUSH2 0x125 JUMPI PUSH1 0x1F PUSH2 0xE31 CODESIZE DUP2 SWAP1 SUB SWAP2 DUP3 ADD PUSH1 0x1F NOT AND DUP4 ADD SWAP2 PUSH1 0x1 PUSH1 0x1 PUSH1 0x40 SHL SUB DUP4 GT DUP5 DUP5 LT OR PUSH2 0x12A JUMPI DUP1 DUP5 SWAP3 PUSH1 0x40 SWAP5 DUP6 MSTORE DUP4 CODECOPY DUP2 ADD SUB SLT PUSH2 0x125 JUMPI PUSH2 0x52 PUSH1 0x20 PUSH2 0x4B DUP4 PUSH2 0x140 JUMP JUMPDEST SWAP3 ADD PUSH2 0x140 JUMP JUMPDEST CALLER ISZERO PUSH2 0x10F JUMPI PUSH1 0x0 DUP1 SLOAD CALLER PUSH1 0x1 PUSH1 0x1 PUSH1 0xA0 SHL SUB NOT DUP3 AND DUP2 OR DUP4 SSTORE PUSH1 0x40 MLOAD SWAP5 SWAP3 SWAP1 SWAP2 PUSH1 0x1 PUSH1 0x1 PUSH1 0xA0 SHL SUB AND SWAP1 PUSH32 0x8BE0079C531659141344CD1FD0A4F28419497F9722A3DAAFE3B4186F6B6457E0 SWAP1 DUP1 LOG3 PUSH1 0x1 PUSH1 0x1 PUSH1 0xA0 SHL SUB DUP3 AND SWAP2 DUP3 ISZERO PUSH2 0xF9 JUMPI PUSH1 0x80 MSTORE PUSH1 0x1 DUP1 PUSH1 0xA0 SHL SUB AND PUSH1 0x1 DUP1 PUSH1 0xA0 SHL SUB NOT PUSH1 0x1 SLOAD AND OR PUSH1 0x1 SSTORE PUSH1 0x1 DUP1 PUSH1 0xA0 SHL SUB NOT PUSH1 0x2 SLOAD AND OR PUSH1 0x2 SSTORE PUSH2 0xCDC SWAP1 DUP2 PUSH2 0x155 DUP3 CODECOPY PUSH1 0x80 MLOAD DUP2 DUP2 DUP2 PUSH2 0x236 ADD MSTORE PUSH2 0x6FC ADD MSTORE RETURN JUMPDEST PUSH4 0x35FDCCCD PUSH1 0xE2 SHL PUSH1 0x0 MSTORE PUSH1 0x0 PUSH1 0x4 MSTORE PUSH1 0x24 PUSH1 0x0 REVERT JUMPDEST PUSH4 0x1E4FBDF7 PUSH1 0xE0 SHL PUSH1 0x0 MSTORE PUSH1 0x0 PUSH1 0x4 MSTORE PUSH1 0x24 PUSH1 0x0 REVERT JUMPDEST PUSH1 0x0 DUP1 REVERT JUMPDEST PUSH4 0x4E487B71 PUSH1 0xE0 SHL PUSH1 0x0 MSTORE PUSH1 0x41 PUSH1 0x4 MSTORE PUSH1 0x24 PUSH1 0x0 REVERT JUMPDEST MLOAD SWAP1 PUSH1 0x1 PUSH1 0x1 PUSH1 0xA0 SHL SUB DUP3 AND DUP3 SUB PUSH2 0x125 JUMPI JUMP INVALID PUSH1 0x80 DUP1 PUSH1 0x40 MSTORE PUSH1 0x4 CALLDATASIZE LT ISZERO PUSH2 0x13 JUMPI PUSH1 0x0 DUP1 REVERT JUMPDEST PUSH1 0x0 CALLDATALOAD PUSH1 0xE0 SHR SWAP1 DUP2 PUSH4 0x3F2FA79B EQ PUSH2 0x6BB JUMPI POP DUP1 PUSH4 0x606E987A EQ PUSH2 0x198 JUMPI DUP1 PUSH4 0x67ACD8A0 EQ PUSH2 0x686 JUMPI DUP1 PUSH4 0x715018A6 EQ PUSH2 0x620 JUMPI DUP1 PUSH4 0x8599FE89 EQ PUSH2 0x25A JUMPI DUP1 PUSH4 0x87530B18 EQ PUSH2 0x216 JUMPI DUP1 PUSH4 0x89E865A9 EQ PUSH2 0x1BF JUMPI DUP1 PUSH4 0x8DA5CB5B EQ PUSH2 0x198 JUMPI DUP1 PUSH4 0xB2BFC835 EQ PUSH2 0x141 JUMPI PUSH4 0xF2FDE38B EQ PUSH2 0x8D JUMPI PUSH1 0x0 DUP1 REVERT JUMPDEST CALLVALUE PUSH2 0x13C JUMPI PUSH1 0x20 CALLDATASIZE PUSH1 0x3 NOT ADD SLT PUSH2 0x13C JUMPI PUSH1 0x1 PUSH1 0x1 PUSH1 0xA0 SHL SUB PUSH2 0xAE PUSH2 0xB07 JUMP JUMPDEST PUSH2 0xB6 PUSH2 0xC64 JUMP JUMPDEST AND DUP1 ISZERO PUSH2 0x10D JUMPI PUSH1 0x1 PUSH1 0x1 PUSH1 0xA0 SHL SUB PUSH1 0x0 SLOAD DUP3 PUSH20 0xFFFFFFFFFFFFFFFFFFFFFFFFFFFFFFFFFFFFFFFF NOT DUP3 AND OR PUSH1 0x0 SSTORE AND PUSH32 0x8BE0079C531659141344CD1FD0A4F28419497F9722A3DAAFE3B4186F6B6457E0 PUSH1 0x0 DUP1 LOG3 STOP JUMPDEST PUSH32 0x1E4FBDF700000000000000000000000000000000000000000000000000000000 PUSH1 0x0 MSTORE PUSH1 0x0 PUSH1 0x4 MSTORE PUSH1 0x24 PUSH1 0x0 REVERT JUMPDEST PUSH1 0x0 DUP1 REVERT JUMPDEST CALLVALUE PUSH2 0x13C JUMPI PUSH1 0x40 CALLDATASIZE PUSH1 0x3 NOT ADD SLT PUSH2 0x13C JUMPI PUSH2 0x15A PUSH2 0xB07 JUMP JUMPDEST PUSH1 0x1 PUSH1 0x1 PUSH1 0xA0 SHL SUB PUSH1 0x24 CALLDATALOAD SWAP2 AND PUSH1 0x0 MSTORE PUSH1 0x3 PUSH1 0x20 MSTORE PUSH1 0x40 PUSH1 0x0 KECCAK256 DUP1 SLOAD DUP3 LT ISZERO PUSH2 0x13C JUMPI PUSH1 0x20 SWAP2 PUSH2 0x189 SWAP2 PUSH2 0xBC4 JUMP JUMPDEST SWAP1 SLOAD SWAP1 PUSH1 0x3 SHL SHR PUSH1 0x40 MLOAD SWAP1 DUP2 MSTORE RETURN JUMPDEST CALLVALUE PUSH2 0x13C JUMPI PUSH1 0x0 CALLDATASIZE PUSH1 0x3 NOT ADD SLT PUSH2 0x13C JUMPI PUSH1 0x20 PUSH1 0x1 PUSH1 0x1 PUSH1 0xA0 SHL SUB PUSH1 0x0 SLOAD AND PUSH1 0x40 MLOAD SWAP1 DUP2 MSTORE RETURN JUMPDEST CALLVALUE PUSH2 0x13C JUMPI PUSH1 0x40 CALLDATASIZE PUSH1 0x3 NOT ADD SLT PUSH2 0x13C JUMPI PUSH1 0x24 CALLDATALOAD PUSH1 0x1 PUSH1 0x1 PUSH1 0xA0 SHL SUB DUP2 AND DUP1 SWAP2 SUB PUSH2 0x13C JUMPI PUSH1 0x4 CALLDATALOAD PUSH1 0x0 MSTORE PUSH1 0x4 PUSH1 0x20 MSTORE PUSH1 0x40 PUSH1 0x0 KECCAK256 SWAP1 PUSH20 0xFFFFFFFFFFFFFFFFFFFFFFFFFFFFFFFFFFFFFFFF NOT DUP3 SLOAD AND OR SWAP1 SSTORE PUSH1 0x0 DUP1 RETURN JUMPDEST CALLVALUE PUSH2 0x13C JUMPI PUSH1 0x0 CALLDATASIZE PUSH1 0x3 NOT ADD SLT PUSH2 0x13C JUMPI PUSH1 0x20 PUSH1 0x40 MLOAD PUSH1 0x1 PUSH1 0x1 PUSH1 0xA0 SHL SUB PUSH32 0x0 AND DUP2 MSTORE RETURN JUMPDEST PUSH1 0x60 CALLDATASIZE PUSH1 0x3 NOT ADD SLT PUSH2 0x13C JUMPI PUSH1 0x4 CALLDATALOAD PUSH1 0x24 CALLDATALOAD PUSH8 0xFFFFFFFFFFFFFFFF DUP2 GT PUSH2 0x13C JUMPI PUSH2 0x289 SWAP1 CALLDATASIZE SWAP1 PUSH1 0x4 ADD PUSH2 0xB31 JUMP JUMPDEST PUSH1 0x44 CALLDATALOAD SWAP2 PUSH1 0x1 PUSH1 0x1 PUSH1 0xA0 SHL SUB DUP4 AND DUP1 SWAP4 SUB PUSH2 0x13C JUMPI DUP1 PUSH1 0x0 MSTORE PUSH1 0x4 PUSH1 0x20 MSTORE PUSH1 0x1 PUSH1 0x1 PUSH1 0xA0 SHL SUB PUSH1 0x40 PUSH1 0x0 KECCAK256 SLOAD AND SWAP3 PUSH1 0x40 MLOAD SWAP4 CALLER PUSH1 0x20 DUP7 ADD MSTORE PUSH1 0x20 DUP6 MSTORE PUSH2 0x2D0 PUSH1 0x40 DUP7 PUSH2 0xAE5 JUMP JUMPDEST PUSH1 0x40 MLOAD SWAP3 PUSH1 0xA0 DUP5 ADD DUP5 DUP2 LT PUSH8 0xFFFFFFFFFFFFFFFF DUP3 GT OR PUSH2 0x580 JUMPI PUSH1 0x40 MSTORE DUP4 MSTORE PUSH1 0x20 DUP4 ADD SWAP1 DUP2 MSTORE PUSH1 0x40 DUP4 ADD SWAP5 DUP6 MSTORE PUSH1 0x60 DUP4 ADD SWAP1 DUP5 DUP3 MSTORE PUSH1 0x80 DUP5 ADD PUSH1 0x1 DUP2 MSTORE PUSH1 0x0 JUMPDEST DUP7 MLOAD DUP2 LT ISZERO PUSH2 0x452 JUMPI PUSH2 0x324 DUP2 DUP9 PUSH2 0xC38 JUMP JUMPDEST MLOAD SWAP1 PUSH1 0x20 PUSH1 0x1 PUSH1 0x1 PUSH1 0xA0 SHL SUB DUP4 MLOAD AND SWAP3 ADD SWAP2 DUP3 MLOAD SWAP3 PUSH1 0x40 MLOAD SWAP4 PUSH32 0x23B872DD00000000000000000000000000000000000000000000000000000000 DUP6 MSTORE CALLER PUSH1 0x4 DUP7 ADD MSTORE ADDRESS PUSH1 0x24 DUP7 ADD MSTORE PUSH1 0x44 DUP6 ADD MSTORE PUSH1 0x20 DUP5 PUSH1 0x64 DUP2 PUSH1 0x0 DUP7 GAS CALL SWAP2 DUP3 ISZERO PUSH2 0x42B JUMPI PUSH2 0x3E3 SWAP5 PUSH1 0x20 SWAP4 PUSH2 0x437 JUMPI JUMPDEST POP PUSH1 0x2 SLOAD SWAP2 MLOAD PUSH1 0x40 MLOAD PUSH32 0x95EA7B300000000000000000000000000000000000000000000000000000000 DUP2 MSTORE PUSH1 0x1 PUSH1 0x1 PUSH1 0xA0 SHL SUB SWAP1 SWAP4 AND PUSH1 0x4 DUP5 ADD MSTORE PUSH1 0x24 DUP4 ADD MSTORE SWAP1 SWAP4 DUP5 SWAP2 SWAP1 DUP3 SWAP1 PUSH1 0x0 SWAP1 DUP3 SWAP1 PUSH1 0x44 DUP3 ADD SWAP1 JUMP JUMPDEST SUB SWAP3 GAS CALL SWAP2 DUP3 ISZERO PUSH2 0x42B JUMPI PUSH1 0x1 SWAP3 PUSH2 0x3FD JUMPI JUMPDEST POP ADD PUSH2 0x311 JUMP JUMPDEST PUSH2 0x41D SWAP1 PUSH1 0x20 RETURNDATASIZE DUP2 GT PUSH2 0x424 JUMPI JUMPDEST PUSH2 0x415 DUP2 DUP4 PUSH2 0xAE5 JUMP JUMPDEST DUP2 ADD SWAP1 PUSH2 0xC4C JUMP JUMPDEST POP DUP10 PUSH2 0x3F6 JUMP JUMPDEST POP RETURNDATASIZE PUSH2 0x40B JUMP JUMPDEST PUSH1 0x40 MLOAD RETURNDATASIZE PUSH1 0x0 DUP3 RETURNDATACOPY RETURNDATASIZE SWAP1 REVERT JUMPDEST PUSH2 0x44D SWAP1 DUP5 RETURNDATASIZE DUP2 GT PUSH2 0x424 JUMPI PUSH2 0x415 DUP2 DUP4 PUSH2 0xAE5 JUMP JUMPDEST PUSH2 0x38F JUMP JUMPDEST POP DUP7 PUSH1 0x1 PUSH1 0x1 PUSH1 0xA0 SHL SUB DUP1 PUSH1 0x2 SLOAD AND SWAP4 PUSH1 0x40 MLOAD SWAP8 PUSH32 0xC84010100000000000000000000000000000000000000000000000000000000 DUP10 MSTORE PUSH1 0x40 PUSH1 0x4 DUP11 ADD MSTORE MLOAD PUSH1 0x44 DUP10 ADD MSTORE MLOAD AND PUSH1 0x64 DUP8 ADD MSTORE MLOAD PUSH1 0xA0 PUSH1 0x84 DUP8 ADD MSTORE DUP1 MLOAD SWAP1 DUP2 PUSH1 0xE4 DUP9 ADD MSTORE PUSH1 0x0 JUMPDEST DUP3 DUP2 LT PUSH2 0x609 JUMPI POP POP PUSH1 0x0 PUSH2 0x104 DUP3 DUP9 ADD ADD MSTORE PUSH1 0x1F DUP1 NOT SWAP2 ADD AND DUP6 ADD SWAP3 PUSH1 0x20 PUSH2 0x124 PUSH2 0x104 DUP7 ADD SWAP3 MLOAD SWAP6 PUSH1 0x43 NOT PUSH2 0x104 DUP11 DUP4 SUB ADD ADD PUSH1 0xA4 DUP11 ADD MSTORE DUP7 MLOAD DUP1 SWAP5 MSTORE ADD SWAP5 ADD SWAP1 PUSH1 0x0 JUMPDEST DUP2 DUP2 LT PUSH2 0x5DE JUMPI POP POP POP MLOAD SWAP2 PUSH1 0x2 DUP4 LT ISZERO PUSH2 0x5C8 JUMPI PUSH1 0x0 DUP6 DUP1 SWAP5 SWAP3 PUSH1 0x20 SWAP7 DUP3 SWAP5 PUSH1 0xC4 DUP5 ADD MSTORE PUSH1 0x24 DUP4 ADD MSTORE SUB SWAP3 GAS CALL SWAP1 DUP2 ISZERO PUSH2 0x42B JUMPI PUSH1 0x0 SWAP2 PUSH2 0x596 JUMPI JUMPDEST POP CALLER PUSH1 0x0 MSTORE PUSH1 0x3 PUSH1 0x20 MSTORE PUSH1 0x40 PUSH1 0x0 KECCAK256 DUP1 SLOAD PUSH9 0x10000000000000000 DUP2 LT ISZERO PUSH2 0x580 JUMPI PUSH2 0x565 SWAP2 PUSH1 0x1 DUP3 ADD DUP2 SSTORE PUSH2 0xBC4 JUMP JUMPDEST DUP2 SWAP3 SWAP2 SLOAD SWAP1 PUSH1 0x3 SHL SWAP2 DUP3 SHL SWAP2 PUSH1 0x0 NOT SWAP1 SHL NOT AND OR SWAP1 SSTORE PUSH1 0x0 DUP1 RETURN JUMPDEST PUSH4 0x4E487B71 PUSH1 0xE0 SHL PUSH1 0x0 MSTORE PUSH1 0x41 PUSH1 0x4 MSTORE PUSH1 0x24 PUSH1 0x0 REVERT JUMPDEST SWAP1 POP PUSH1 0x20 DUP2 RETURNDATASIZE PUSH1 0x20 GT PUSH2 0x5C0 JUMPI JUMPDEST DUP2 PUSH2 0x5B1 PUSH1 0x20 SWAP4 DUP4 PUSH2 0xAE5 JUMP JUMPDEST DUP2 ADD SUB SLT PUSH2 0x13C JUMPI MLOAD DUP2 PUSH2 0x534 JUMP JUMPDEST RETURNDATASIZE SWAP2 POP PUSH2 0x5A4 JUMP JUMPDEST PUSH4 0x4E487B71 PUSH1 0xE0 SHL PUSH1 0x0 MSTORE PUSH1 0x21 PUSH1 0x4 MSTORE PUSH1 0x24 PUSH1 0x0 REVERT JUMPDEST DUP3 MLOAD DUP1 MLOAD PUSH1 0x1 PUSH1 0x1 PUSH1 0xA0 SHL SUB AND DUP8 MSTORE PUSH1 0x20 SWAP1 DUP2 ADD MLOAD DUP2 DUP9 ADD MSTORE PUSH1 0x40 SWAP1 SWAP7 ADD SWAP6 SWAP1 SWAP3 ADD SWAP2 PUSH1 0x1 ADD PUSH2 0x4F7 JUMP JUMPDEST DUP1 PUSH1 0x20 DUP1 SWAP3 DUP5 ADD ADD MLOAD PUSH2 0x104 DUP3 DUP12 ADD ADD MSTORE ADD PUSH2 0x4B1 JUMP JUMPDEST CALLVALUE PUSH2 0x13C JUMPI PUSH1 0x0 CALLDATASIZE PUSH1 0x3 NOT ADD SLT PUSH2 0x13C JUMPI PUSH2 0x639 PUSH2 0xC64 JUMP JUMPDEST PUSH1 0x0 PUSH1 0x1 PUSH1 0x1 PUSH1 0xA0 SHL SUB DUP2 SLOAD PUSH20 0xFFFFFFFFFFFFFFFFFFFFFFFFFFFFFFFFFFFFFFFF NOT DUP2 AND DUP4 SSTORE AND PUSH32 0x8BE0079C531659141344CD1FD0A4F28419497F9722A3DAAFE3B4186F6B6457E0 DUP3 DUP1 LOG3 STOP JUMPDEST CALLVALUE PUSH2 0x13C JUMPI PUSH1 0x20 CALLDATASIZE PUSH1 0x3 NOT ADD SLT PUSH2 0x13C JUMPI PUSH1 0x4 CALLDATALOAD PUSH1 0x0 MSTORE PUSH1 0x4 PUSH1 0x20 MSTORE PUSH1 0x20 PUSH1 0x1 PUSH1 0x1 PUSH1 0xA0 SHL SUB PUSH1 0x40 PUSH1 0x0 KECCAK256 SLOAD AND PUSH1 0x40 MLOAD SWAP1 DUP2 MSTORE RETURN JUMPDEST CALLVALUE PUSH2 0x13C JUMPI PUSH1 0x20 CALLDATASIZE PUSH1 0x3 NOT ADD SLT PUSH2 0x13C JUMPI PUSH1 0x4 CALLDATALOAD PUSH8 0xFFFFFFFFFFFFFFFF DUP2 GT PUSH2 0x13C JUMPI DUP1 PUSH1 0x4 ADD SWAP1 PUSH1 0xC0 PUSH1 0x3 NOT DUP3 CALLDATASIZE SUB ADD SLT PUSH2 0x13C JUMPI CALLER PUSH1 0x1 PUSH1 0x1 PUSH1 0xA0 SHL SUB PUSH32 0x0 AND SUB PUSH2 0xA9B JUMPI PUSH1 0x0 SWAP3 PUSH1 0xC0 DUP2 ADD DUP2 DUP2 LT PUSH8 0xFFFFFFFFFFFFFFFF DUP3 GT OR PUSH2 0xA87 JUMPI PUSH1 0x40 MSTORE DUP3 CALLDATALOAD DUP2 MSTORE PUSH1 0x24 DUP3 ADD CALLDATALOAD SWAP3 DUP4 PUSH1 0x20 DUP4 ADD MSTORE PUSH2 0x75A PUSH1 0x44 DUP5 ADD PUSH2 0xB1D JUMP JUMPDEST PUSH1 0x40 DUP4 ADD MSTORE PUSH1 0x64 DUP4 ADD CALLDATALOAD PUSH8 0xFFFFFFFFFFFFFFFF DUP2 GT PUSH2 0xA83 JUMPI DUP4 ADD SWAP5 CALLDATASIZE PUSH1 0x23 DUP8 ADD SLT ISZERO PUSH2 0xA80 JUMPI PUSH1 0x4 DUP7 ADD CALLDATALOAD PUSH8 0xFFFFFFFFFFFFFFFF DUP2 GT PUSH2 0xA6C JUMPI PUSH1 0x40 MLOAD SWAP7 PUSH2 0x7AD PUSH1 0x1F DUP4 ADD PUSH1 0x1F NOT AND PUSH1 0x20 ADD DUP10 PUSH2 0xAE5 JUMP JUMPDEST DUP2 DUP9 MSTORE CALLDATASIZE PUSH1 0x24 DUP3 DUP5 ADD ADD GT PUSH2 0xA68 JUMPI DUP2 DUP4 SWAP3 PUSH1 0x24 PUSH1 0x20 SWAP4 ADD DUP4 DUP12 ADD CALLDATACOPY DUP9 ADD ADD MSTORE PUSH1 0x60 DUP4 ADD SWAP6 DUP7 MSTORE PUSH1 0x84 DUP5 ADD SWAP3 DUP4 CALLDATALOAD PUSH8 0xFFFFFFFFFFFFFFFF DUP2 GT PUSH2 0xA68 JUMPI PUSH2 0x7FC PUSH1 0xA4 SWAP2 PUSH1 0x4 CALLDATASIZE SWAP2 DUP10 ADD ADD PUSH2 0xB31 JUMP JUMPDEST SWAP6 PUSH1 0x80 DUP4 ADD SWAP7 DUP8 MSTORE ADD CALLDATALOAD SWAP1 PUSH1 0x2 DUP3 LT ISZERO PUSH2 0xA68 JUMPI PUSH1 0xA0 ADD MSTORE PUSH1 0x1 SLOAD PUSH1 0x1 PUSH1 0x1 PUSH1 0xA0 SHL SUB AND SWAP6 SWAP5 DUP2 JUMPDEST DUP6 MLOAD MLOAD DUP2 LT ISZERO PUSH2 0x941 JUMPI PUSH2 0x842 DUP2 PUSH2 0x83C DUP8 DUP8 PUSH2 0xBF2 JUMP JUMPDEST SWAP1 PUSH2 0xC28 JUMP JUMPDEST CALLDATALOAD PUSH1 0x1 PUSH1 0x1 PUSH1 0xA0 SHL SUB DUP2 AND DUP1 SWAP2 SUB PUSH2 0x92A JUMPI PUSH1 0x40 MLOAD SWAP1 PUSH32 0xFB0D2B5000000000000000000000000000000000000000000000000000000000 DUP3 MSTORE DUP4 PUSH1 0x4 DUP4 ADD MSTORE PUSH1 0x24 DUP3 ADD MSTORE PUSH1 0x20 DUP2 PUSH1 0x44 DUP2 DUP13 GAS STATICCALL SWAP1 DUP2 ISZERO PUSH2 0x936 JUMPI DUP5 SWAP2 PUSH2 0x8EF JUMPI JUMPDEST POP SWAP1 PUSH2 0x8E8 DUP2 PUSH1 0x1 SWAP4 PUSH1 0x20 PUSH2 0x8B6 DUP4 PUSH2 0x83C DUP13 DUP13 PUSH2 0xBF2 JUMP JUMPDEST ADD CALLDATALOAD PUSH1 0x1 PUSH1 0x1 PUSH1 0xA0 SHL SUB PUSH1 0x40 MLOAD SWAP3 PUSH2 0x8CD DUP5 PUSH2 0xAC9 JUMP JUMPDEST AND DUP3 MSTORE PUSH1 0x20 DUP3 ADD MSTORE DUP10 MLOAD SWAP1 PUSH2 0x8E2 DUP4 DUP4 PUSH2 0xC38 JUMP JUMPDEST MSTORE PUSH2 0xC38 JUMP JUMPDEST POP ADD PUSH2 0x824 JUMP JUMPDEST SWAP1 POP PUSH1 0x20 DUP2 RETURNDATASIZE DUP3 GT PUSH2 0x92E JUMPI JUMPDEST DUP2 PUSH2 0x909 PUSH1 0x20 SWAP4 DUP4 PUSH2 0xAE5 JUMP JUMPDEST DUP2 ADD SUB SLT PUSH2 0x92A JUMPI MLOAD PUSH1 0x1 PUSH1 0x1 PUSH1 0xA0 SHL SUB DUP2 AND DUP2 SUB PUSH2 0x92A JUMPI PUSH2 0x8E8 PUSH2 0x89D JUMP JUMPDEST DUP4 DUP1 REVERT JUMPDEST RETURNDATASIZE SWAP2 POP PUSH2 0x8FC JUMP JUMPDEST PUSH1 0x40 MLOAD RETURNDATASIZE DUP7 DUP3 RETURNDATACOPY RETURNDATASIZE SWAP1 REVERT JUMPDEST DUP3 DUP7 DUP2 DUP10 MLOAD PUSH1 0x20 DUP2 DUP1 MLOAD DUP2 ADD SUB SLT PUSH2 0xA64 JUMPI PUSH1 0x20 ADD MLOAD PUSH1 0x1 PUSH1 0x1 PUSH1 0xA0 SHL SUB DUP2 AND DUP1 SWAP2 SUB PUSH2 0xA64 JUMPI DUP2 JUMPDEST DUP4 MLOAD SWAP1 DUP2 MLOAD DUP2 LT ISZERO PUSH2 0xA60 JUMPI PUSH2 0x981 DUP2 DUP6 SWAP4 PUSH2 0xC38 JUMP JUMPDEST MLOAD DUP1 MLOAD PUSH1 0x1 PUSH1 0x1 PUSH1 0xA0 SHL SUB AND PUSH20 0xEEEEEEEEEEEEEEEEEEEEEEEEEEEEEEEEEEEEEEEE DUP2 SUB PUSH2 0x9E0 JUMPI POP SWAP2 DUP1 DUP1 PUSH1 0x20 DUP2 SWAP5 SWAP6 ADD MLOAD DUP7 DUP3 DUP3 ISZERO PUSH2 0x9D7 JUMPI JUMPDEST CALL ISZERO PUSH2 0x9CC JUMPI PUSH1 0x1 SWAP1 JUMPDEST ADD PUSH2 0x96A JUMP JUMPDEST PUSH1 0x40 MLOAD RETURNDATASIZE DUP5 DUP3 RETURNDATACOPY RETURNDATASIZE SWAP1 REVERT JUMPDEST POP PUSH2 0x8FC PUSH2 0x9BC JUMP JUMPDEST PUSH1 0x20 SWAP2 DUP3 ADD MLOAD PUSH1 0x40 MLOAD PUSH32 0xA9059CBB00000000000000000000000000000000000000000000000000000000 DUP2 MSTORE PUSH1 0x1 PUSH1 0x1 PUSH1 0xA0 SHL SUB DUP8 AND PUSH1 0x4 DUP3 ADD MSTORE PUSH1 0x24 DUP2 ADD SWAP2 SWAP1 SWAP2 MSTORE SWAP4 DUP5 SWAP2 PUSH1 0x44 SWAP2 DUP4 SWAP2 GAS CALL SWAP2 DUP3 ISZERO PUSH2 0x936 JUMPI PUSH1 0x1 SWAP3 PUSH2 0xA42 JUMPI JUMPDEST POP PUSH2 0x9C6 JUMP JUMPDEST PUSH2 0xA59 SWAP1 PUSH1 0x20 RETURNDATASIZE DUP2 GT PUSH2 0x424 JUMPI PUSH2 0x415 DUP2 DUP4 PUSH2 0xAE5 JUMP JUMPDEST POP DUP7 PUSH2 0xA3C JUMP JUMPDEST DUP4 DUP1 RETURN JUMPDEST POP DUP1 REVERT JUMPDEST DUP3 DUP1 REVERT JUMPDEST PUSH1 0x24 DUP3 PUSH4 0x4E487B71 PUSH1 0xE0 SHL DUP2 MSTORE PUSH1 0x41 PUSH1 0x4 MSTORE REVERT JUMPDEST DUP1 REVERT JUMPDEST DUP6 DUP1 REVERT JUMPDEST PUSH1 0x24 DUP6 PUSH4 0x4E487B71 PUSH1 0xE0 SHL DUP2 MSTORE PUSH1 0x41 PUSH1 0x4 MSTORE REVERT JUMPDEST PUSH32 0xD7F7333400000000000000000000000000000000000000000000000000000000 PUSH1 0x0 MSTORE CALLER PUSH1 0x4 MSTORE PUSH1 0x24 PUSH1 0x0 REVERT JUMPDEST PUSH1 0x40 DUP2 ADD SWAP1 DUP2 LT PUSH8 0xFFFFFFFFFFFFFFFF DUP3 GT OR PUSH2 0x580 JUMPI PUSH1 0x40 MSTORE JUMP JUMPDEST SWAP1 PUSH1 0x1F DUP1 NOT SWAP2 ADD AND DUP2 ADD SWAP1 DUP2 LT PUSH8 0xFFFFFFFFFFFFFFFF DUP3 GT OR PUSH2 0x580 JUMPI PUSH1 0x40 MSTORE JUMP JUMPDEST PUSH1 0x4 CALLDATALOAD SWAP1 PUSH1 0x1 PUSH1 0x1 PUSH1 0xA0 SHL SUB DUP3 AND DUP3 SUB PUSH2 0x13C JUMPI JUMP JUMPDEST CALLDATALOAD SWAP1 PUSH1 0x1 PUSH1 0x1 PUSH1 0xA0 SHL SUB DUP3 AND DUP3 SUB PUSH2 0x13C JUMPI JUMP JUMPDEST DUP2 PUSH1 0x1F DUP3 ADD SLT ISZERO PUSH2 0x13C JUMPI DUP1 CALLDATALOAD SWAP1 PUSH8 0xFFFFFFFFFFFFFFFF DUP3 GT PUSH2 0x580 JUMPI PUSH1 0x40 MLOAD SWAP3 PUSH2 0xB62 PUSH1 0x20 DUP5 PUSH1 0x5 SHL ADD DUP6 PUSH2 0xAE5 JUMP JUMPDEST DUP3 DUP5 MSTORE PUSH1 0x20 DUP1 DUP6 ADD SWAP4 PUSH1 0x6 SHL DUP4 ADD ADD SWAP2 DUP2 DUP4 GT PUSH2 0x13C JUMPI PUSH1 0x20 ADD SWAP3 JUMPDEST DUP3 DUP5 LT PUSH2 0xB8C JUMPI POP POP POP POP SWAP1 JUMP JUMPDEST PUSH1 0x40 DUP5 DUP4 SUB SLT PUSH2 0x13C JUMPI PUSH1 0x20 PUSH1 0x40 SWAP2 DUP3 MLOAD PUSH2 0xBA6 DUP2 PUSH2 0xAC9 JUMP JUMPDEST PUSH2 0xBAF DUP8 PUSH2 0xB1D JUMP JUMPDEST DUP2 MSTORE DUP3 DUP8 ADD CALLDATALOAD DUP4 DUP3 ADD MSTORE DUP2 MSTORE ADD SWAP4 ADD SWAP3 PUSH2 0xB7E JUMP JUMPDEST DUP1 SLOAD DUP3 LT ISZERO PUSH2 0xBDC JUMPI PUSH1 0x0 MSTORE PUSH1 0x20 PUSH1 0x0 KECCAK256 ADD SWAP1 PUSH1 0x0 SWAP1 JUMP JUMPDEST PUSH4 0x4E487B71 PUSH1 0xE0 SHL PUSH1 0x0 MSTORE PUSH1 0x32 PUSH1 0x4 MSTORE PUSH1 0x24 PUSH1 0x0 REVERT JUMPDEST SWAP1 CALLDATALOAD SWAP1 PUSH1 0x1E NOT DUP2 CALLDATASIZE SUB ADD DUP3 SLT ISZERO PUSH2 0x13C JUMPI ADD DUP1 CALLDATALOAD SWAP1 PUSH8 0xFFFFFFFFFFFFFFFF DUP3 GT PUSH2 0x13C JUMPI PUSH1 0x20 ADD SWAP2 DUP2 PUSH1 0x6 SHL CALLDATASIZE SUB DUP4 SGT PUSH2 0x13C JUMPI JUMP JUMPDEST SWAP2 SWAP1 DUP2 LT ISZERO PUSH2 0xBDC JUMPI PUSH1 0x6 SHL ADD SWAP1 JUMP JUMPDEST DUP1 MLOAD DUP3 LT ISZERO PUSH2 0xBDC JUMPI PUSH1 0x20 SWAP2 PUSH1 0x5 SHL ADD ADD SWAP1 JUMP JUMPDEST SWAP1 DUP2 PUSH1 0x20 SWAP2 SUB SLT PUSH2 0x13C JUMPI MLOAD DUP1 ISZERO ISZERO DUP2 SUB PUSH2 0x13C JUMPI SWAP1 JUMP JUMPDEST PUSH1 0x1 PUSH1 0x1 PUSH1 0xA0 SHL SUB PUSH1 0x0 SLOAD AND CALLER SUB PUSH2 0xC78 JUMPI JUMP JUMPDEST PUSH32 0x118CDAA700000000000000000000000000000000000000000000000000000000 PUSH1 0x0 MSTORE CALLER PUSH1 0x4 MSTORE PUSH1 0x24 PUSH1 0x0 REVERT INVALID LOG2 PUSH5 0x6970667358 0x22 SLT KECCAK256 PUSH10 0x361283A30644F4D02E8A PUSH32 0x26F50DDA7E1AA059731510963AE31D446B6CEEBC64736F6C634300081C003300 "
        },
        "methodIdentifiers": {
          "_actions(address,uint256)": "b2bfc835",
          "_contracts(uint256)": "67acd8a0",
          "bridgeToken(uint256,(address,uint256)[],address)": "8599fe89",
          "etnCallPayMaster()": "606e987a",
          "etnCallReceive((bytes32,uint256,address,bytes,(address,uint256)[],uint8))": "3f2fa79b",
          "getETNCall()": "87530b18",
          "owner()": "8da5cb5b",
          "renounceOwnership()": "715018a6",
          "setContract(uint256,address)": "89e865a9",
          "transferOwnership(address)": "f2fde38b"
        }
      }
    }
  }
}