{
  "_format": "hh-sol-artifact-1",
  "contractName": "ETNCall",
  "sourceName": "contracts/ETNCall.sol",
  "abi": [
    {
      "inputs": [
        {
          "internalType": "address",
          "name": "pay_",
          "type": "address"
        },
        {
          "internalType": "address",
          "name": "config_",
          "type": "address"
        }
      ],
      "stateMutability": "nonpayable",
      "type": "constructor"
    },
    {
      "inputs": [
        {
          "internalType": "bytes32",
          "name": "messageId",
          "type": "bytes32"
        }
      ],
      "name": "AlreadyExecuted",
      "type": "error"
    },
    {
      "inputs": [],
      "name": "InsufficientGasFee",
      "type": "error"
    },
    {
      "inputs": [],
      "name": "InvalidMessage",
      "type": "error"
    },
    {
      "inputs": [
        {
          "internalType": "address",
          "name": "owner",
          "type": "address"
        }
      ],
      "name": "OwnableInvalidOwner",
      "type": "error"
    },
    {
      "inputs": [
        {
          "internalType": "address",
          "name": "account",
          "type": "address"
        }
      ],
      "name": "OwnableUnauthorizedAccount",
      "type": "error"
    },
    {
      "inputs": [
        {
          "internalType": "uint256",
          "name": "chainId",
          "type": "uint256"
        }
      ],
      "name": "UnsupportedChain",
      "type": "error"
    },
    {
      "anonymous": false,
      "inputs": [
        {
          "indexed": false,
          "internalType": "bytes32",
          "name": "messageId",
          "type": "bytes32"
        },
        {
          "indexed": false,
          "internalType": "uint256",
          "name": "fee",
          "type": "uint256"
        },
        {
          "indexed": false,
          "internalType": "address",
          "name": "feeToken",
          "type": "address"
        },
        {
          "indexed": false,
          "internalType": "uint256",
          "name": "sequenceNumber",
          "type": "uint256"
        },
        {
          "indexed": false,
          "internalType": "uint256",
          "name": "toChainId",
          "type": "uint256"
        },
        {
          "indexed": false,
          "internalType": "address",
          "name": "sender",
          "type": "address"
        },
        {
          "indexed": false,
          "internalType": "address",
          "name": "receiver",
          "type": "address"
        },
        {
          "components": [
            {
              "internalType": "address",
              "name": "tokenId",
              "type": "address"
            },
            {
              "internalType": "uint256",
              "name": "amount",
              "type": "uint256"
            }
          ],
          "indexed": false,
          "internalType": "struct Data.Token[]",
          "name": "tokens",
          "type": "tuple[]"
        },
        {
          "indexed": false,
          "internalType": "enum Data.PayMaster",
          "name": "payMaster",
          "type": "uint8"
        },
        {
          "indexed": false,
          "internalType": "bytes",
          "name": "payload",
          "type": "bytes"
        }
      ],
      "name": "Dispatch",
      "type": "event"
    },
    {
      "anonymous": false,
      "inputs": [
        {
          "indexed": true,
          "internalType": "address",
          "name": "previousOwner",
          "type": "address"
        },
        {
          "indexed": true,
          "internalType": "address",
          "name": "newOwner",
          "type": "address"
        }
      ],
      "name": "OwnershipTransferred",
      "type": "event"
    },
    {
      "anonymous": false,
      "inputs": [
        {
          "indexed": false,
          "internalType": "bytes32",
          "name": "messageId",
          "type": "bytes32"
        }
      ],
      "name": "PostMessage",
      "type": "event"
    },
    {
      "inputs": [
        {
          "internalType": "uint256",
          "name": "toChainId",
          "type": "uint256"
        }
      ],
      "name": "estimateFee",
      "outputs": [
        {
          "internalType": "uint256",
          "name": "",
          "type": "uint256"
        }
      ],
      "stateMutability": "view",
      "type": "function"
    },
    {
      "inputs": [
        {
          "internalType": "uint256",
          "name": "chainId",
          "type": "uint256"
        }
      ],
      "name": "isChainSupported",
      "outputs": [
        {
          "internalType": "bool",
          "name": "",
          "type": "bool"
        }
      ],
      "stateMutability": "view",
      "type": "function"
    },
    {
      "inputs": [
        {
          "internalType": "address",
          "name": "tokenId",
          "type": "address"
        }
      ],
      "name": "isTokenSupported",
      "outputs": [
        {
          "internalType": "bool",
          "name": "",
          "type": "bool"
        }
      ],
      "stateMutability": "view",
      "type": "function"
    },
    {
      "inputs": [],
      "name": "owner",
      "outputs": [
        {
          "internalType": "address",
          "name": "",
          "type": "address"
        }
      ],
      "stateMutability": "view",
      "type": "function"
    },
    {
      "inputs": [
        {
          "internalType": "address",
          "name": "receiver",
          "type": "address"
        },
        {
          "components": [
            {
              "internalType": "bytes32",
              "name": "messageId",
              "type": "bytes32"
            },
            {
              "internalType": "uint256",
              "name": "fromChainId",
              "type": "uint256"
            },
            {
              "internalType": "address",
              "name": "sender",
              "type": "address"
            },
            {
              "internalType": "bytes",
              "name": "payload",
              "type": "bytes"
            },
            {
              "components": [
                {
                  "internalType": "address",
                  "name": "tokenId",
                  "type": "address"
                },
                {
                  "internalType": "uint256",
                  "name": "amount",
                  "type": "uint256"
                }
              ],
              "internalType": "struct Data.Token[]",
              "name": "tokens",
              "type": "tuple[]"
            },
            {
              "internalType": "enum Data.PayMaster",
              "name": "payMaster",
              "type": "uint8"
            }
          ],
          "internalType": "struct Data.IncomingMessage",
          "name": "message",
          "type": "tuple"
        },
        {
          "internalType": "address",
          "name": "tokenPool",
          "type": "address"
        }
      ],
      "name": "postMessage",
      "outputs": [],
      "stateMutability": "nonpayable",
      "type": "function"
    },
    {
      "inputs": [],
      "name": "renounceOwnership",
      "outputs": [],
      "stateMutability": "nonpayable",
      "type": "function"
    },
    {
      "inputs": [
        {
          "components": [
            {
              "internalType": "uint256",
              "name": "toChainId",
              "type": "uint256"
            },
            {
              "internalType": "address",
              "name": "receiver",
              "type": "address"
            },
            {
              "internalType": "bytes",
              "name": "payload",
              "type": "bytes"
            },
            {
              "components": [
                {
                  "internalType": "address",
                  "name": "tokenId",
                  "type": "address"
                },
                {
                  "internalType": "uint256",
                  "name": "amount",
                  "type": "uint256"
                }
              ],
              "internalType": "struct Data.Token[]",
              "name": "tokens",
              "type": "tuple[]"
            },
            {
              "internalType": "enum Data.PayMaster",
              "name": "payMaster",
              "type": "uint8"
            }
          ],
          "internalType": "struct Data.OutgoingMessage",
          "name": "message",
          "type": "tuple"
        },
        {
          "internalType": "address",
          "name": "tokenPool",
          "type": "address"
        }
      ],
      "name": "sendMessage",
      "outputs": [
        {
          "internalType": "bytes32",
          "name": "",
          "type": "bytes32"
        }
      ],
      "stateMutability": "payable",
      "type": "function"
    },
    {
      "inputs": [
        {
          "internalType": "address",
          "name": "newOwner",
          "type": "address"
        }
      ],
      "name": "transferOwnership",
      "outputs": [],
      "stateMutability": "nonpayable",
      "type": "function"
    }
  ],
  "bytecode": "0x6080346100f257601f61128338819003918201601f19168301916001600160401b038311848410176100f75780849260409485528339810103126100f257610052602061004b8361010d565b920161010d565b33156100dc5760008054336001600160a01b0319821681178355604051949290916001600160a01b0316907f8be0079c531659141344cd1fd0a4f28419497f9722a3daafe3b4186f6b6457e09080a3600280546001600160a01b039283166001600160a01b0319918216179091556003805493909216921691909117905561116190816101228239f35b631e4fbdf760e01b600052600060045260246000fd5b600080fd5b634e487b7160e01b600052604160045260246000fd5b51906001600160a01b03821682036100f25756fe6080604052600436101561001257600080fd5b6000803560e01c80630c840101146104b1578063127e8e4d146104175780635221c1f0146103f8578063715018a61461039257806375151b63146103645780638da5cb5b1461033e578063f2fde38b146102935763fc1d606d1461007557600080fd5b346102905760603660031901126102905761008e610c25565b906024359167ffffffffffffffff83116101bf578260040160c060031985360301126101ce57604435916001600160a01b038316809303610260576100d16110e9565b813592838552600460205260ff604086205416610264576100f9608486979695960184610cdf565b90506101d2575b506001600160a01b0316803b156101ce5761015683929183926040519485809481937f3f2fa79b000000000000000000000000000000000000000000000000000000008352602060048401526024830190610fee565b03925af180156101c3576101aa575b50507f98302d606350c6eac5a0aa13af4cd08f0efcd727799fac363b660272da97b9ae6020604051838152a18152600460205260408120805460ff1916600117905580f35b816101b491610c4f565b6101bf578138610165565b5080fd5b6040513d84823e3d90fd5b8280fd5b803b15610260578360405180927f25ed576d0000000000000000000000000000000000000000000000000000000082526001600160a01b038516600483015260406024830152818381610228604482018a610fee565b03925af1908115610255578491610240575b50610100565b8161024a91610c4f565b6101ce57823861023a565b6040513d86823e3d90fd5b8380fd5b602485857fd1d36dcd000000000000000000000000000000000000000000000000000000008252600452fd5b80fd5b5034610290576020366003190112610290576001600160a01b036102b5610c25565b6102bd6110e9565b168015610312576001600160a01b0382548273ffffffffffffffffffffffffffffffffffffffff198216178455167f8be0079c531659141344cd1fd0a4f28419497f9722a3daafe3b4186f6b6457e08380a380f35b6024827f1e4fbdf700000000000000000000000000000000000000000000000000000000815280600452fd5b50346102905780600319360112610290576001600160a01b036020915416604051908152f35b5034610290576020366003190112610290576020610388610383610c25565b610ec6565b6040519015158152f35b50346102905780600319360112610290576103ab6110e9565b806001600160a01b03815473ffffffffffffffffffffffffffffffffffffffff1981168355167f8be0079c531659141344cd1fd0a4f28419497f9722a3daafe3b4186f6b6457e08280a380f35b5034610290576020366003190112610290576020610388600435610da8565b50346102905760203660031901126102905760249060206001600160a01b036003541660405193848092633f3b917d60e21b825260043560048301525afa9081156104a5579061046d575b602090604051908152f35b506020813d60201161049d575b8161048760209383610c4f565b810103126104985760209051610462565b600080fd5b3d915061047a565b604051903d90823e3d90fd5b5060403660031901126102905767ffffffffffffffff600435116102905760a060043536036003190112610290576024356001600160a01b03811681036101bf576001543360601b179061012060405260043560040135608052610519602460043501610c3b565b60a05267ffffffffffffffff60043560440135116101ce5760043560448101350191366023840112156102605767ffffffffffffffff600484013511610c11576040516105746004850135601f01601f191660200182610c4f565b60048401358082523690850160240111610ba5576004840135602485016020830137600484810135820160200186905260c091825235606401359067ffffffffffffffff8211610914573660238360043501011215610914576105dd6004838135010135610c87565b906105eb6040519283610c4f565b600480358401908101358084526020840194602460069290921b90920101908490368311610c0d5760043501602401905b828210610bf35750505060e0829052600260043560840135101561091857608460043501356080800152608051906001600160a01b0360206080015116905191604051957feeeeeeeeeeeeeeeeeeeeeeeeeeeeeeeeeeeeeeee000000000000000000000000602088015260408701526060860152608085015260e060a085015280519081610100860152875b828110610bdc57505080876101206101409387010152601f80199101168401610120810192601f19610120878403010160c087015251809352019190865b818110610bb157505050906107198160249361070b60e0830160846004350135610d3a565b03601f198101835282610c4f565b6020815191012060206001600160a01b036003541660405193848092633f3b917d60e21b82526004356004013560048301525afa91821561086e578592610b79575b5060043560840135600103610b495734610ac557846001600160a01b0360025416803b156101bf5781906064604051809481937f120cad450000000000000000000000000000000000000000000000000000000083523360048401528860248401528760448401525af18015610aba57610aa6575b505b845b6107e8606460043501600435600401610cdf565b905081101561094357610805606460043501600435600401610cdf565b82101561092f5761081d879136908460061b01610c9f565b80516001600160a01b031673eeeeeeeeeeeeeeeeeeeeeeeeeeeeeeeeeeeeeeee8103610882575050803415610879575b8180809234906001600160a01b038a1690f11561086e576001905b016107d4565b6040513d87823e3d90fd5b506108fc61084d565b606460208093015160405194859384927f23b872dd0000000000000000000000000000000000000000000000000000000084523360048501526001600160a01b038c16602485015260448401525af18015610924576108e5575b50600190610868565b6020813d821161091c575b816108fd60209383610c4f565b8101031261091857518015150361091457386108dc565b8580fd5b8680fd5b3d91506108f0565b6040513d89823e3d90fd5b602487634e487b7160e01b81526032600452fd5b5084846001549360246004350135916001600160a01b03831680930361026057610977606460043501600435600401610cdf565b90926022196004353603016044600435013512156109145760048301353603602484011361091457819060405195610140870191898852602088015273eeeeeeeeeeeeeeeeeeeeeeeeeeeeeeeeeeeeeeee60408801528960608801526004356004013560808801523360a088015260c087015261014060e08701525261016084019290855b818110610a8b5750505091610a5981927fd00eacc6efde56afa76b4a4559b37e6f3fe7141311a16134b34e233b312d5d0c94610a42610100850160846004350135610d3a565b838203610120850152602460048201359101610d5d565b0390a16000198314610a775750600160209201600155604051908152f35b80634e487b7160e01b602492526011600452fd5b9091936040610a9c60019287610d15565b95019291016109fc565b85610ab391969296610c4f565b93386107d0565b6040513d88823e3d90fd5b60846040517f08c379a000000000000000000000000000000000000000000000000000000000815260206004820152603060248201527f446f6e74207061737320696e20616e792076616c756520666f72205061794d6160448201527f737465722e45544e43414c4c5f504159000000000000000000000000000000006064820152fd5b813410156107d2576004857fe6b65893000000000000000000000000000000000000000000000000000000008152fd5b9091506020813d602011610ba9575b81610b9560209383610c4f565b81010312610ba55751903861075b565b8480fd5b3d9150610b88565b825180516001600160a01b0316855260209081015181860152604090940193909201916001016106e6565b8060208092840101516101208289010152016106a8565b6020604091610c023685610c9f565b81520191019061061c565b8980fd5b602484634e487b7160e01b81526041600452fd5b600435906001600160a01b038216820361049857565b35906001600160a01b038216820361049857565b90601f8019910116810190811067ffffffffffffffff821117610c7157604052565b634e487b7160e01b600052604160045260246000fd5b67ffffffffffffffff8111610c715760051b60200190565b9190826040910312610498576040516040810181811067ffffffffffffffff821117610c71576040526020808294610cd681610c3b565b84520135910152565b903590601e1981360301821215610498570180359067ffffffffffffffff821161049857602001918160061b3603831361049857565b9060206040926001600160a01b03610d2c82610c3b565b168352013560208201520190565b906002821015610d475752565b634e487b7160e01b600052602160045260246000fd5b908060209392818452848401376000828201840152601f01601f1916010190565b8051821015610d925760209160051b010190565b634e487b7160e01b600052603260045260246000fd5b600460006001600160a01b0360035416604051928380927f816949b50000000000000000000000000000000000000000000000000000000082525afa908115610eba57600091610e2a575b509060005b8251811015610e225781610e0c8285610d7e565b5114610e1a57600101610df8565b505050600190565b505050600090565b3d8083833e610e398183610c4f565b8101906020818303126101ce5780519067ffffffffffffffff8211610260570181601f820112156101ce57805190610e7082610c87565b93610e7e6040519586610c4f565b82855260208086019360051b8301019384116102905750602001905b828210610eaa5750505038610df3565b8151815260209182019101610e9a565b6040513d6000823e3d90fd5b60049060006001600160a01b0360035416604051938480927fb002249d0000000000000000000000000000000000000000000000000000000082525afa918215610eba57600092610f4a575b5060005b8251811015610e22576001600160a01b03610f318285610d7e565b51166001600160a01b03831614610e1a57600101610f16565b90913d8082843e610f5b8184610c4f565b8201916020818403126101bf5780519067ffffffffffffffff82116101ce57019180601f840112156101bf57825191610f9383610c87565b93610fa16040519586610c4f565b83855260208086019460051b8201019283116101bf57602001925b828410610fce57505050509038610f12565b83516001600160a01b03811681036101ce57815260209384019301610fbc565b9081358152602082013560208201526001600160a01b0361101160408401610c3b565b16604082015236829003601e19019160608101358381121561049857810160208135910167ffffffffffffffff8211610498578136038113610498576110629160c0606086015260c0850191610d5d565b926080820135908112156104985781016020813591019367ffffffffffffffff8211610498578160061b36038513610498578381036080850152818152602001939060005b8181106110ce5750505060a0013560028110156104985760a06110cb920190610d3a565b90565b90919460406110df60019288610d15565b96019291016110a7565b6001600160a01b036000541633036110fd57565b7f118cdaa7000000000000000000000000000000000000000000000000000000006000523360045260246000fdfea26469706673582212204e656aba087f8e056e3d9f0491b8a593ea0c43df1d15d0bf819bfec23210f09164736f6c634300081c0033",
  "linkReferences": {},
  "deployedLinkReferences": {}
}